:020000040000fa
:080000000002040000000000f2
:020000040000fa
:04000800e60300000b
:020000040000fa
:04000c0028040000c4
:020000040000fa
:040010006804000080
:020000040000fa
:0400140006040000de
:020000040000fa
:040018004804000098
:020000040000fa
:04001c005c0600007e
:020000040000fa
:040020008804000050
:020000040000fa
:040024005c06000076
:020000040000fa
:040028005c06000072
:020000040000fa
:04002c00d2040000fa
:020000040000fa
:040030005c0600006a
:020000040000fa
:040034005c06000066
:020000040000fa
:040038005c06000062
:020000040000fa
:04003c005c0600005e
:020000040000fa
:0400400008050000af
:020000040000fa
:040044005c06000056
:020000040000fa
:040048005c06000052
:020000040000fa
:04004c005c0600004e
:020000040000fa
:040050005c0600004a
:020000040000fa
:040054005c06000046
:020000040000fa
:040058005c06000042
:020000040000fa
:04005c005c0600003e
:020000040000fa
:040060005c0600003a
:020000040000fa
:040064005c06000036
:020000040000fa
:040068005c06000032
:020000040000fa
:04006c005c0600002e
:020000040000fa
:040070005c0600002a
:020000040000fa
:040074005c06000026
:020000040000fa
:040078005c06000022
:020000040000fa
:04007c005c0600001e
:020000040000fa
:040080005c0600001a
:020000040000fa
:040084005c06000016
:020000040000fa
:040088005c06000012
:020000040000fa
:04008c005c0600000e
:020000040000fa
:040090005c0600000a
:020000040000fa
:040094005c06000006
:020000040000fa
:040098005c06000002
:020000040000fa
:04009c005c060000fe
:020000040000fa
:0400a0005c060000fa
:020000040000fa
:0400a4005c060000f6
:020000040000fa
:0400a8005c060000f2
:020000040000fa
:0400ac005c060000ee
:020000040000fa
:0400b0005c060000ea
:020000040000fa
:0400b4005c060000e6
:020000040000fa
:0400b8005c060000e2
:020000040000fa
:0400bc005c060000de
:020000040000fa
:0400c0005c060000da
:020000040000fa
:0400c4005c060000d6
:020000040000fa
:0400c8005c060000d2
:020000040000fa
:0400cc005c060000ce
:020000040000fa
:0400d0005c060000ca
:020000040000fa
:0400d4005c060000c6
:020000040000fa
:0400d8005c060000c2
:020000040000fa
:0400dc005c060000be
:020000040000fa
:0400e0005c060000ba
:020000040000fa
:0400e4005c060000b6
:020000040000fa
:0400e8005c060000b2
:020000040000fa
:0400ec005c060000ae
:020000040000fa
:0400f0005c060000aa
:020000040000fa
:0400f4005c060000a6
:020000040000fa
:0400f8005c060000a2
:020000040000fa
:0400fc005c0600009e
:020000040000fa
:040100005c06000099
:020000040000fa
:040104005c06000095
:020000040000fa
:040108005c06000091
:020000040000fa
:04010c005c0600008d
:020000040000fa
:040110005c06000089
:020000040000fa
:040114005c06000085
:020000040000fa
:040118005c06000081
:020000040000fa
:04011c005c0600007d
:020000040000fa
:040120005c06000079
:020000040000fa
:040124005c06000075
:020000040000fa
:040128005c06000071
:020000040000fa
:04012c005c0600006d
:020000040000fa
:040130005c06000069
:020000040000fa
:040134005c06000065
:020000040000fa
:040138005c06000061
:020000040000fa
:04013c005c0600005d
:020000040000fa
:040140005c06000059
:020000040000fa
:040144005c06000055
:020000040000fa
:040148005c06000051
:020000040000fa
:04014c005c0600004d
:020000040000fa
:040150005c06000049
:020000040000fa
:040154005c06000045
:020000040000fa
:040158005c06000041
:020000040000fa
:04015c005c0600003d
:020000040000fa
:040160005c06000039
:020000040000fa
:040164005c06000035
:020000040000fa
:040168005c06000031
:020000040000fa
:04016c005c0600002d
:020000040000fa
:040170005c06000029
:020000040000fa
:040174005c06000025
:020000040000fa
:040178005c06000021
:020000040000fa
:04017c005c0600001d
:020000040000fa
:040180005c06000019
:020000040000fa
:040184005c06000015
:020000040000fa
:040188005c06000011
:020000040000fa
:04018c005c0600000d
:020000040000fa
:040190005c06000009
:020000040000fa
:040194005c06000005
:020000040000fa
:040198005c06000001
:020000040000fa
:04019c005c060000fd
:020000040000fa
:0401a0005c060000f9
:020000040000fa
:0401a4005c060000f5
:020000040000fa
:0401a8005c060000f1
:020000040000fa
:0401ac005c060000ed
:020000040000fa
:0401b0005c060000e9
:020000040000fa
:0401b4005c060000e5
:020000040000fa
:0401b8005c060000e1
:020000040000fa
:0401bc005c060000dd
:020000040000fa
:0401c0005c060000d9
:020000040000fa
:0401c4005c060000d5
:020000040000fa
:0401c8005c060000d1
:020000040000fa
:0401cc005c060000cd
:020000040000fa
:0401d0005c060000c9
:020000040000fa
:0401d40030050000f2
:020000040000fa
:0401d8006c050000b2
:020000040000fa
:0401dc00a805000072
:020000040000fa
:0401e000e405000032
:020000040000fa
:0401e40020060000f1
:020000040000fa
:0401e8005c060000b1
:020000040000fa
:0401ec005c060000ad
:020000040000fa
:0401f0005c060000a9
:020000040000fa
:0401f4005c060000a5
:020000040000fa
:0401f8005c060000a1
:020000040000fa
:0401fc005c0600009d
:020000040000fa
:040200005c06000098
:020000040000fa
:040204005c06000094
:020000040000fa
:040208005c06000090
:020000040000fa
:04020c005c0600008c
:020000040000fa
:040210005c06000088
:020000040000fa
:040214005c06000084
:020000040000fa
:040218005c06000080
:020000040000fa
:04021c005c0600007c
:020000040000fa
:040220005c06000078
:020000040000fa
:040224005c06000074
:020000040000fa
:040228005c06000070
:020000040000fa
:04022c005c0600006c
:020000040000fa
:040230005c06000068
:020000040000fa
:040234005c06000064
:020000040000fa
:040238005c06000060
:020000040000fa
:04023c005c0600005c
:020000040000fa
:040240005c06000058
:020000040000fa
:040244005c06000054
:020000040000fa
:040248005c06000050
:020000040000fa
:04024c005c0600004c
:020000040000fa
:040250005c06000048
:020000040000fa
:040254005c06000044
:020000040000fa
:040258005c06000040
:020000040000fa
:04025c005c0600003c
:020000040000fa
:040260005c06000038
:020000040000fa
:040264005c06000034
:020000040000fa
:040268005c06000030
:020000040000fa
:04026c005c0600002c
:020000040000fa
:040270005c06000028
:020000040000fa
:040274005c06000024
:020000040000fa
:040278005c06000020
:020000040000fa
:04027c005c0600001c
:020000040000fa
:040280005c06000018
:020000040000fa
:040284005c06000014
:020000040000fa
:040288005c06000010
:020000040000fa
:04028c005c0600000c
:020000040000fa
:040290005c06000008
:020000040000fa
:040294005c06000004
:020000040000fa
:040298005c06000000
:020000040000fa
:04029c005c060000fc
:020000040000fa
:0402a0005c060000f8
:020000040000fa
:0402a4005c060000f4
:020000040000fa
:0402a8005c060000f0
:020000040000fa
:0402ac005c060000ec
:020000040000fa
:0402b0005c060000e8
:020000040000fa
:0402b4005c060000e4
:020000040000fa
:0402b8005c060000e0
:020000040000fa
:0402bc005c060000dc
:020000040000fa
:0402c0005c060000d8
:020000040000fa
:0402c4005c060000d4
:020000040000fa
:0402c8005c060000d0
:020000040000fa
:0402cc005c060000cc
:020000040000fa
:0402d0005c060000c8
:020000040000fa
:0402d4005c060000c4
:020000040000fa
:0402d8005c060000c0
:020000040000fa
:0402dc005c060000bc
:020000040000fa
:0402e0005c060000b8
:020000040000fa
:0402e4005c060000b4
:020000040000fa
:0402e8005c060000b0
:020000040000fa
:0402ec005c060000ac
:020000040000fa
:0402f0005c060000a8
:020000040000fa
:0402f4005c060000a4
:020000040000fa
:0402f8005c060000a0
:020000040000fa
:0402fc005c0600009c
:020000040000fa
:040300005c06000097
:020000040000fa
:040304005c06000093
:020000040000fa
:040308005c0600008f
:020000040000fa
:04030c005c0600008b
:020000040000fa
:040310005c06000087
:020000040000fa
:040314005c06000083
:020000040000fa
:040318005c0600007f
:020000040000fa
:04031c005c0600007b
:020000040000fa
:040320005c06000077
:020000040000fa
:100400008f0b21000eff27000e0188000000200046
:100410000000e000020032000001200020028800fd
:1004200014000700260207000000e00003003a0065
:10043000209322000100200002003700000020006d
:1004400001002000810f70004220ae000f00070065
:10045000000020000000e0004220ae00000002008a
:10046000000000002a260200000000000040da0020
:100470000000fe00c00420000000e0000200320086
:10048000002020009001880000000600a1028800e2
:10049000800478000000eb001f003700e284440075
:1004a00054a0b4009905ba00e284440054a0b400fa
:1004b0009906ba00e284440054a0b4000006eb00a0
:1004c000476fde00fd07b200ae018800636ce100fb
:1004d00003003a000ad801000000eb000e003700cc
:1004e000606ce10008003a00004deb000a05e800ee
:1004f000020039003420ec000af0a0008b05e9006e
:10050000f9ff3e00040037006168e100010032009d
:100510000086eb000b00070019c7ba001905ba00e6
:100520000e04e00003003a000a00e000dbff3a009e
:1005300000000600fe07b200ae0288008a047800c0
:10054000f5ff37000cd0a300e20f4d001c003b006c
:1005500089027800354dba000a05e800020039002a
:100560003420ec000af0a0008b05e9000f003200f7
:10057000254dba000a05e800020039003420ec00dd
:100580000af0a0008b05e900080032000c00e00032
:100590000600320015cdba000a05e8000200390055
:1005a0003420ec000af0a0008b05e9008984e80003
:1005b00054a0b4000b00e000e2ff3a000000060087
:1005c0009902ba00055d78008b05e900f7ff32005b
:1005d000c82ade00055d78008b05e900f3ff3200d4
:1005e0000c00e000f1ff320019ddba00eeff370029
:1005f0006100e10001003200100005005400f80025
:1006000050102000a002880000f927001000ba0056
:100610005400f9000700260000f0a6008703d1006f
:100620000703780001c4fe000003eb000120200056
:1006300091018800e1c62a00111303008703e90035
:10064000fdff3a0000f0a7000000050000f0a00048
:1006500080c4fe0086037800f3ff37000408200002
:10066000010037000002eb006100e10001003200f0
:10067000100005003200f8003400f8008102780014
:10068000930188003200be000100e0000c0032003f
:100690000470a70000f0a00032037800c733de002a
:1006a000848343004220af008703e800a70188004d
:1006b000f607b2007f30e100040032002000200085
:1006c0003400f9003200f900000006008100e90062
:1006d0000500e00003003a00018009003210030029
:1006e000e8ff37000180090032900300d561ae00b9
:1006f000e4ff370030002000f1ff370050052000f4
:10070000b00e8800a00a2000b00e8800d3e1a80037
:100710000000060050052000b00e8800a00a20004e
:10072000b00e8800d3e1a90000000600c623040033
:10073000000000001c2c0400000000002024040025
:10074000000000003a240400000000006c240400b3
:10075000000000009a24040000000000ca240400e5
:1007600000000000d624040000000000fc24040067
:1007700000000000e02404000000000058250400f0
:10078000000000008221040000000000b0210400ed
:1007900000000000e221040000000000f621040037
:1007a000000000000a220400000000001e220400d5
:1007b000000000003222040000000000e2250400d6
:1007c0000000000006260400000000003600f800cb
:1007d000809fbe00829fbe00849fbe00869fbe0099
:1007e0000000fa00c028a9000000eb002f14070049
:1007f0000080fa004f03be004f02be004f01be0052
:100800004f00be003600f900004006003600f80038
:10081000809fbe00829fbe00849fbe00869fbe0058
:100820000000fa0026140700c048a90010002000ac
:100830001e1407000080fa004f03be004f02be00e6
:100840004f01be004f00be003600f9000040060018
:100850003600f800809fbe00829fbe00849fbe00cd
:10086000869fbe000000fa00c068a900200020009a
:100870000e1407000080fa004f03be004f02be00b6
:100880004f01be004f00be003600f90000400600d8
:100890003600f800809fbe00829fbe00849fbe008d
:1008a000869fbe000000fa00c088a900300020002a
:1008b000fe1307000080fa004f03be004f02be0087
:1008c0004f01be004f00be003600f9000040060098
:1008d0003600f800809fbe00829fbe00849fbe004d
:1008e000869fbe000000fa00c608a9007000200024
:1008f000ee1307000080fa004f03be004f02be0057
:100900004f01be004f00be003600f9000040060057
:100910003600f800809fbe00829fbe00849fbe000c
:10092000869fbe000000fa002146800000102000d3
:10093000008060000000e00003003200c508a9004c
:10094000c0002000d91307002146800000022000cb
:10095000008060000000e00003003200c4a8a9008d
:1009600090002000d1130700204680007000600036
:100970000000e00003003200c488a900a0002000ad
:10098000ca13070020468000610060000000e000fc
:1009900003003200c408a900b0002000c313070000
:1009a000ffff37003600f800809fbe00829fbe0028
:1009b000849fbe00869fbe000000fa00f080800089
:1009c0000000e00002003200f08080000000010022
:1009d000500b2100104078008040e800500b2100af
:1009e00001487800400b210011c0b3000148780095
:1009f0000028a9000080fa004f03be004f02be008d
:100a00004f01be004f00be003600f9000040060056
:100a10003600f800809fbe00829fbe00849fbe000b
:100a2000869fbe000000fa00014080000004200004
:100a3000008060000000e000020032003610070075
:100a400000c8a9000080fa004f03be004f02be009c
:100a50004f01be004f00be003600f9000040060006
:100a60003600f800809fbe00829fbe00849fbe00bb
:100a7000869fbe003200f8003400f800100020000d
:100a8000a00188000020200000d0fe000200fa0033
:100a900061618000010f7800208080000000e0008c
:100aa00003003200218080001e0078000100010058
:100ab0000d68a9000080fa003400f9003200f90046
:100ac0004f03be004f02be004f01be004f00be00ec
:100ad0003600f900004006003600f800809fbe0096
:100ae000829fbe00849fbe00869fbe003200f80039
:100af0003400f80010002000a00188000020200031
:100b000000d0fe000200fa0071618000010f780041
:100b1000308080000000e00003003200318080005f
:100b20001e007800010001000d88a9000080fa0075
:100b30003400f9003200f9004f03be004f02be003e
:100b40004f01be004f00be003600f9000040060015
:100b50003600f800809fbe00829fbe00849fbe00ca
:100b6000869fbe003200f8003400f800100020001c
:100b7000a00188000020200000d0fe000200fa0042
:100b800081618000010f7800408080000000e0005b
:100b900003003200418080001e0078000100010047
:100ba0000da8a9000080fa003400f9003200f90015
:100bb0004f03be004f02be004f01be004f00be00fb
:100bc0003600f900004006003600f800809fbe00a5
:100bd000829fbe00849fbe00869fbe003200f80048
:100be0003400f80010002000a00188000020200040
:100bf00000d0fe000200fa0091618000010f780031
:100c0000508080000000e00003003200518080002e
:100c10001e007800010001000dc8a9000080fa0044
:100c20003400f9003200f9004f03be004f02be004d
:100c30004f01be004f00be003600f9000040060024
:100c40003600f800809fbe00829fbe00849fbe00d9
:100c5000869fbe003200f8003400f800100020002b
:100c6000a00188000020200000d0fe000200fa0051
:100c7000a1618000010f7800608080000000e0002a
:100c800003003200618080001e0078000100010036
:100c90000de8a9000080fa003400f9003200f900e4
:100ca0004f03be004f02be004f01be004f00be000a
:100cb0003600f900004006000040da000000fe00a7
:100cc000000005000001be001b0007000470a70023
:100cd00003f0a10003f8a30013003a006509b10076
:100ce00010003200090035006928e10002003500db
:100cf000010028000000050000004000818048003d
:100d00008502e900fcff3a0000000600f88f42006f
:100d1000050035008100d1000080d3008502e80085
:100d2000fcff3a00000006008000eb000000050018
:100d30006011b8007c023700c70ade00f107b2007c
:100d4000f50fb20008003200e1cf4200020032008d
:100d50000170a00024000500810f70000100320026
:100d60000408050044000500810f700002003a00ed
:100d7000140005008502e9000000400081c0480021
:100d8000fcff3b000170a00024000500889fbe000e
:100d90008a9fbe008c9fbe001b0020000202be0086
:100da0000586680006002800060666004709de0082
:100db000f20fb200820032000243e80080003200ed
:100dc000c729de00f30fb2007d0032000343e800c4
:100dd0007b003200f107b2000170a000f507b200fd
:100de0000570a000c708dd004903de0086807000a2
:100df0004700dd00c72add004923de00868272003d
:100e00004722dd000305510004035000858358008c
:100e10000300310000004000818048000a05e9001d
:100e20008c1f78008a9fbe00040050008580580007
:100e30000402420085824a00000040008180480090
:100e40000005eb000004be006033b8000406be00dd
:100e50000d48e10056003100050009004dccd800d6
:100e60000c01b8000d02b8008481410060824a0084
:100e70008283530003045c0084845c0060055d0091
:100e80000a00e00025003a00800578000d40e100ee
:100e9000490031008800780007007800050009004b
:100ea0004d88d8000c01b8000d02b80084814100c3
:100eb00060824a006003110083835b0004045c00cd
:100ec000e0845c000900e00021003a004f01be0010
:100ed0000300e0002b003200e3016000070673000e
:100ee0008c81710001003200640070004200de005d
:100ef0004e5edd000c007000c258de0001e0a00074
:100f000083010700cf017800818071004f06be0089
:100f10004f05be004f04be00000006008c83430056
:100f20000d044c00e0844c0060054d000000e90019
:100f30000a00e000d4ff32008c8343000d044c0013
:100f4000e0844c0060054d000000e900ceff370052
:100f50000c0343008d834b0060044c00e0844c0084
:100f60000000e9000900e000d8ff32000c03430054
:100f70008d834b0060044c00e0844c000000e900cd
:100f8000d2ff37004200de004e5edd000c00700034
:100f9000c258de0001e0a000cf0178000300e000ad
:100fa000daff320060001000e0801800d7ff370041
:100fb000f0ff2f00aaff3700f0ff2f00b9ff370026
:100fc0000404be002f010700870678000004fd001e
:100fd0008104fd002b010700078366000678a3004b
:100fe000030032000960a7000800be002c00370093
:100ff0000d78a300020032000800be002800370070
:101000000778a30026003a0001f0a10009f0a10032
:101010000668a30003003200f1ff2700f0ff2f0055
:10102000baff37000d68a300030032000800be00bd
:101030008c807000b5ff37000768a30007003a00f6
:101040000648a30003003200f1ff2700f0ff2f0045
:10105000aeff37000d48a300030032006000b80067
:101060008c807000a9ff37000748a30004003200fd
:1010700001f82700000020008c807000a3ff3700db
:10108000760107000004fd008104fd0002057800e0
:10109000720107000802be008a01780059ff37007c
:1010a0000160a000120220002281880097ff370013
:1010b0000100e000120032000500e00010003200e4
:1010c000889fbe008a9fbe008c9fbe000006eb007a
:1010d00001f8a3000300320060001000e080180057
:1010e0000cf0a00005f8a30003003200600212001b
:1010f000e0821a000cf0a2008005eb0041ff3700ef
:101100006000b800020005000383680007002800a3
:1011100007036300470ade000480a100c71ade004f
:101120000580a100f70f20000720e10042003200f7
:101130000728e10040003200889fbe008a9fbe0061
:101140008c1f7800f107b200f307b2000400e00042
:10115000640032000170a0000500e0006800320069
:101160000370a00085054200eb07b1000204b8003f
:101170000302b8008484440060854a00020ab80073
:10118000848444000a854a00030ab8000405450027
:10119000040033000804d0008984d2000a85d200fc
:1011a0008b05e9006158e1003d0035000210200088
:1011b000090161000308200089816100f707200010
:1011c0008783640008867300c84cde00c853dd00c6
:1011d000878474004855de000300e00006003200fa
:1011e00082037600040032008904e80060054d00a7
:1011f0000a88a3000c003a00f70f20000758e1000e
:1012000044003d000a70a100c75ddd000a8575003d
:101210008a007300090078004f0678004f05be0071
:101220004f04be00000006000a05d1008984d300e7
:101230008b05e800f0ff3700881f7800060478006f
:1012400090000700070278000001fd008101fd0009
:101250008c00070087027800850372000778a300de
:10126000050032000001fd008101fd009f00070024
:101270004f04780000000600850372000748a300b1
:1012800003003200f0ff2f00f1ff2700f8ff3700c6
:101290000000200001f8270088807000f4ff37006c
:1012a000880178004848dd00808171004848de00f0
:1012b000c850dd0001007000c850de000604780050
:1012c0000b0178001600070088807000d2ff3700fd
:1012d0000500e00005003200170020003a0007007a
:1012e0009dff370081037000f9ff3a008600780007
:1012f0004f0678004f05be004f04be0000000500f9
:1013000083037100f9ff3200270020002e00070040
:1013100094ff370001f8270086807000f4ff370043
:101320000100e00026003200610111007810e100a8
:1013300023003c006022b8007010e100040035007a
:1013400080027800010078008000eb0070015100fd
:101350000200e0000900340070031100062add00dd
:10136000822ade008603dd00878272000200de0032
:10137000860bdd00070070008208de0084817100aa
:10138000f4ff2700048262008481710004002800b9
:10139000848262006102600005f0a6000000060081
:1013a00004827100070032000000e800e08048007d
:1013b000000006000002be006000b800efff37002a
:1013c0006000b80000000600889fbe000004eb002b
:1013d0006138e10016003a000100e00008003a0020
:1013e000c800de004800dd00880020000100e000a9
:1013f00003003a00c800de004800dd006804440035
:101400008184cf00e9845400060034008908dd009f
:10141000f08314008703de00878070000900dd0080
:1014200009044400610214004f04be0000000600dd
:101430000300e00008003a00c811de004811dd009a
:10144000880020000300e00003003a00c811de001d
:101450004811dd00680444008384cf00e98454000f
:10146000060034008919dd00f08314008713de00c4
:10147000878171000911dd0009044400e1021400b4
:10148000e9ff37002700200001f0a7001700200027
:10149000470bde00f60fb200040032000643e800fe
:1014a0000a0032004702b300000006000103780082
:1014b000f607b2000603700002003a000703b3000b
:1014c000000006008702b300000006000103780058
:1014d000f607b20006037000020032000770a00099
:1014e000000006000760a000000006000478a300ca
:1014f000040032000578a300030032000168a30055
:1015000001003a000200be000160a00000000600d9
:1015100081017000270032008002eb0001f8a30077
:101520000300320060001000e08018001500200069
:10153000f40720000202420020003400f7032000dc
:1015400087036000060420000003630002082000f7
:10155000000161004700de00c909dd000080710064
:10156000c708de000600e0000800320087037100b3
:10157000060032001000b0000180b0000188a30016
:1015800002003200c108de000402e800f107b200e8
:10159000f30f20000320e10003003d004722dd009f
:1015a000810072002900370001f827000000eb00dd
:1015b000260037006000b800000006006802120034
:1015c0007f20e100020034006000b8001f003700f7
:1015d0006011b8007020e10004003500800178003f
:1015e000010078008000eb00700252000400e0006f
:1015f00009003400f00312000719dd008419de0031
:101600000703dd00868171000400de00070bdd00aa
:10161000060070008408de00f7ff27008383630064
:1016200087037100060028000303630007003200ef
:101630000700e00003003a006101600002817300ce
:10164000020032001000b0000180b0000500a600ca
:101650000000060001f0a000000006004f0ade00b6
:101660004709de00f107b200f20fb2000b003200b2
:10167000f207b1000170a000c708dd00c901de005b
:10168000838070004700dd000400a6000000060013
:1016900060001000e080180000000600810f70005c
:1016a00001003a00000006008182cf000500e00042
:1016b00010003e008082cf00ee8242007028e100e0
:1016c0000400390007003e00800078000000eb00b5
:1016d0000e003700708312008600de000500dd007a
:1016e0000a003700708352008600dd000000eb0026
:1016f00006003700e28252008508dd007083120088
:101700000603de00868070000500dd007507b0006e
:101710000501ea000400a6000000060060001000b9
:10172000e080180000000600889fbe008a9fbe006f
:1017300000827000040271000482710026003200f1
:101740000004be000200be006011b8006b0920005a
:10175000950220000182cf000a0039000541b10046
:101760000082cf00070039000541b1000982cf0097
:10177000040039000541b1000882cf0001003900a2
:101780000541b10005425200120032000a003b0040
:1017900082817100610164008100d1000080d3006a
:1017a0008984d3000884d3008b05e8000442e80054
:1017b000f7ff3a00070037000804440089844c0012
:1017c00000004800818048008b05e9000442e900e0
:1017d000f9ff3a00030007004f05be004f04be00aa
:1017e0000000060081002000618055000b003d00d4
:1017f0000b00200061fe2f000100e1001d003400fd
:1018000082817100610164008904d1000884d300e1
:101810000000e800faff3a00710020006100640057
:1018200003007000020060000900320061044400ff
:10183000e0844c000988a500050032008b05e80013
:101840006808e10002003a008904d1000884d3004e
:10185000f20f20000258e10005003d00c75ddd00e9
:10186000f907b200898075000800780000000600c2
:101870000bf827008b007800000005000000fa003c
:1018800068815700cfb89700d60207000080fa00a1
:101890000000060002000700d60237000000060024
:1018a0002f04b000889fbe008a9fbe008c9fbe00a0
:1018b0008e1f7800b09f9f00a1a79f00a37f9f006d
:1018c00011007800d0a79f0091009000f1a79f0021
:1018d000afa19700a3019000c3a79f002fa297007c
:1018e00044029000a49f9f00afa29700350790008c
:1018f0003204be002205be006022b8006033b8008a
:101900000800be000a01be006e0607000000e000ed
:1019100003003d000bf0a200d0c2b300040037006a
:101920005fa397000628a30008003200b0c2b300ee
:10193000004f7800cfa397008703e90087af9f008f
:1019400010002000e0a79f000f003700dfa09700e5
:101950000138a3000800320000c2b300004f780035
:101960004fa197000201e90082af9f001300200001
:10197000e3a79f00040037004fa2970084af9f00a9
:101980008002eb00e5a79f000800be000a01be0030
:10199000c2ff0700f4ff2f00f5ff2f00f6ff2f0016
:1019a000f7ff2700040260008582600006036100e3
:1019b000878361006000b8000200200003ff270059
:1019c0000020e10001a8e10002b0e10003b8e1005d
:1019d00010003a002f7b97008600fb001104b10035
:1019e000efa3970007004700f98f500002003e0068
:1019f000410a210001003700810a21002c0507005f
:101a0000800a210031050700efa097000101400086
:101a1000140037000020e10001a8e10002b0e1005d
:101a200003b8e100120036002f7997008200fb0016
:101a30001104b100efa1970003004700f98f500097
:101a400002003e00c10a210001003700010b210005
:101a500017050700000b21001c0507006fa2970067
:101a6000040140005fa29700cfa197004902370010
:101a70006022b8006033b8000800be000a01be0052
:101a8000100607000000e000680032006000b800a7
:101a90000200200003ff2300d0af9f00e1af9f00b2
:101aa000f2af9f0083b79f008006eb000802be00e4
:101ab0000a03be0094b79f00a5b79f00b6b79f006a
:101ac000c7b79f00070037008d06e8000800be007a
:101ad0000a01be00d0af9f00e1af9f00f2af9f00b0
:101ae00083b79f006022b800060020004702240050
:101af0005fa89700efa897007fa997008fb1970084
:101b00004b0707000004be000205be000002be0035
:101b10000203be001fb09700afb097003fb197001f
:101b2000cfb19700e70507000000e000e6ff3d00a9
:101b30000006eb005fac9700efac97007fad97001d
:101b40008fb597002500370040ed2f00808f56009d
:101b500019003d000c00e00016003a006022b800b9
:101b600006002000073524001fb09700afb0970093
:101b70003fb19700cfb197002d0707000002be00cc
:101b80000203be0094b79f00a5b79f00b6b79f00a1
:101b9000c7b79f006022b800060020000735240068
:101ba0000800be000a01be00210707000004be00b5
:101bb0000205be001c0020006022b80006002000c4
:101bc000470224000800be000a01be0069060700a3
:101bd0000004be000205be008d06e9000802be003a
:101be0000a03be001fb09700afb097003fb1970047
:101bf000cfb19700b30507000000e000d2ff350029
:101c00000800be000a01be00d0af9f00e1af9f00f8
:101c1000f2af9f0083b79f001fb49700afb4970047
:101c20003fb59700cfb59700080037006022b80095
:101c30000600200007ff2300d4af9f00e5af9f0000
:101c4000f6af9f0087b79f008006eb00af7a970042
:101c50000500fb00b5040700b07f9f007fa397003d
:101c6000600020000600e000010035007fa0970022
:101c700071c6b300bf7b970081cf53000a003a00c2
:101c8000ffa097000100e000cb013200cb0137003c
:101c90008d0f5000cf013c0090b79f0052c6b3009b
:101ca000e2cf9f001e003700bf799700e3cf9f006f
:101cb0000200370064c6b300e4cf9f000000e800d4
:101cc00090b79f0060c6b300efca970080cf520064
:101cd00013003a000d00e00008003d006000b8006d
:101ce0000200200003ff2300d0af9f00e1af9f0060
:101cf000f2af9f0083b79f008006eb0061c6b30080
:101d0000e1cf9f0070c6b3003f799700804f51002c
:101d1000030032009fb197008d81410093b79f006f
:101d20005faa9700efaa97007fab97008fb3970049
:101d3000d4b79f00e5b79f00f6b79f0087bf9f000d
:101d40000800be000a01be0090af9f00a1af9f0037
:101d5000b2af9f00c3af9f000006eb000802be00b9
:101d60000a03be00e49f9f00f59f9f0086a79f0087
:101d700097a79f00310037005fb29700efb297003e
:101d80007fb397008fbb97001fa89700afa897005d
:101d90003fa99700cfa99700f60507004e08070056
:101da0000004be000205be006f0507008002780037
:101db000b5a79f005fb29700efb297007fb397007f
:101dc0008fbb97000800be000a01be0098060700fe
:101dd0001faa9700afaa97003fab9700cfab970021
:101de000930507000002be000203be0007f0a20038
:101df00094af9f00a5af9f00b6af9f00c7af9f00f5
:101e00006022b80006002000470224005fb097005f
:101e1000efb097007fb197008fb99700d505070005
:101e20000002be000203be00d4b79f00e5b79f00ca
:101e3000f6b79f0087bf9f000c06e8009fb297008f
:101e4000850f5600ccff35006f9c9700ff9c9700d4
:101e50000fa597009fa597006022b80006002000fc
:101e6000470124005fb09700efb097007fb1970063
:101e70008fb997006e0607000002be000203be0085
:101e8000d4b79f00e5b79f00f6b79f0087bf9f00bc
:101e90001fa89700afa897003fa99700cfa9970068
:101ea000080507000000e0000f0035005fb2970052
:101eb000efb297007fb397008fbb97001fa89700e2
:101ec000afa897003fa99700cfa99700fd0407008e
:101ed0000000e00011003a00bfa297000508a3002f
:101ee000080032000d0037006000b8006011b80033
:101ef000d0b79f00e1b79f00f2b79f0083bf9f005c
:101f0000060037006022b8006033b800d4b79f00e5
:101f1000e5b79f00f6b79f0087bf9f005fb29700ad
:101f2000efb297007fb397008fbb97000800be0009
:101f30000a01be00440507000002be000203be0005
:101f400094af9f00a5af9f00b6af9f00c7af9f00a3
:101f50006022b80006002000470224005fa8970016
:101f6000efa897007fa997008fb197003006070070
:101f70000004be000205be000002be000203be0057
:101f80001fa89700afa897003fa99700cfa9970077
:101f9000d10407000000e000090035008d06e800cc
:101fa00060c6b300efca970080cf520008003a0025
:101fb0001fb397000603e80096b79f001100370093
:101fc0005fac9700efac97007fad97008fb597009f
:101fd00050c6b3006fc99700804f510009003a0006
:101fe0000802be000a03be00d4b79f00e5b79f00f9
:101ff000f6b79f0087bf9f008002eb00d5af9f0020
:10200000070037000800be000a01be00d0b79f00dd
:10201000e1b79f00f2b79f0083bf9f00ddaf9f0035
:102020006fa697000001eb00b2a79f00c29f9f0020
:10203000e29f9f009d9f9f00680037005fb297005e
:10204000efb297007fb397008fbb97001fa8970050
:10205000afa897003fa99700cfa9970045050700b3
:102060009d0707000004be000205be00be04070075
:10207000e90f50000100340090002000dfa197001c
:102080000348a3000c003a000000e0000a003a00f8
:1020900071c6b3003f7a9700814f520006003a00a4
:1020a000dfaa97000500e00003003d003fa3970072
:1020b0008606e80021003700cf9b97000700e0006c
:1020c0000c003a00dfa897000100e00009003d0085
:1020d0000c014700e1c2b300014978000c06e8009a
:1020e0000fa997000201e90082af9f0013002000b2
:1020f000c39f9f000c014700bfa697000300370055
:1021000001c3b300015978008d06e9000d00e0001d
:10211000fbff3a003fa29700040646008c004700f0
:1021200005c3b300854840000c06e8000480ea00bf
:102130000fab97000003430086af9f005fb297008c
:10214000efb297007fb397008fbb97000800be00e7
:102150000a01be00b60507001faa9700afaa9700a4
:102160003fab9700cfab9700b10407000002be0061
:102170000203be0007f0a20094af9f00a5af9f002e
:10218000b6af9f00c7af9f006022b80006002000d6
:10219000470224005fb09700efb097007fb197002f
:1021a0008fb99700f30407000002be000203be00cf
:1021b000d4b79f00e5b79f00f6b79f0087bf9f0089
:1021c000dfaa97008502e900d5af9f006f9b9700bb
:1021d0000603e800e69f9f00bda79f00ef9b9700c6
:1021e0001fb09700808f530005003d00afa09700ff
:1021f0004100900065005000800f56008fff3900ad
:102200009f9e97004f9997000200e00007003a0058
:10221000dfa197000348a300040032000c00470030
:10222000e1c2b300014878000c06e8000c0047004a
:102230000048eb0051c6b3006fca9700814f5200af
:1022400036003a00af9a97008500e9000101470087
:102250000049eb008001eb000d00e00002003d00b2
:102260008d06ea0013002000220020008103780080
:102270008faa9700000478000b00370081037800d4
:1022800007034700a4002000050009008406d800c9
:10229000010278008006780000c3b300004b4200c2
:1022a0000201e9008502e9008700e9000d00e00075
:1022b000f2ff3a000200e000f0ff3c0085af9f0013
:1022c0000800780001024700b2c2b3000300e0003a
:1022d00001003200d2c2b300024a78000101e900d5
:1022e00082004700af7997000302fb001404b1009d
:1022f00053c6b300f90f520001003e0053c4b300af
:10230000834878000faa97000482e90084af9f00f9
:10231000820f560001003d00e5020700dfa2970092
:1023200063806200e20f500015003a000fab970087
:102330000600e000120034000e007800e3020700ff
:10234000060037008fab9700870047008080400071
:1023500000014700924878000000e900efa09700d4
:10236000810f5000f7ff3d00010047000fa99700c3
:10237000010320006a0207000001eb00c2a79f00d2
:102380000e007800d10207005fa29700cfa197004e
:10239000000178008e0078003f9897004700070002
:1023a0004f0778004f06be004f05be004f04be0029
:1023b0002f04b1000000060010002000e48f46004a
:1023c00033fe3d0090b79f0053c6b300e3cf9f009c
:1023d00053fe37000d00e00036fe350090b79f0039
:1023e00046fe37008201780001017800f1ff2700e6
:1023f000d5023700881f780000047800000820000c
:10240000808f50001700350010082000808f50008a
:102410000b00340030082000808f500011003a007b
:102420009200780068805000000978003002be00f9
:102430002003be00049cbe000694be0007003700c7
:102440009202780064805200000978001000be00fb
:10245000a6030700009cbe000294be0010002000ee
:10246000010037000000eb004f0478000000060078
:10247000889fbe0000047800480090008204780025
:10248000808f540001003600800478000901780034
:10249000580090001b0207005800900009004000ff
:1024a00050049800c80090008984500049049800a6
:1024b0000048eb004f04be0000000600f287470012
:1024c000889fbe008a9fbe008c9fbe008e1f780032
:1024d0008004780001057800020478008305780004
:1024e0006107620002003a008b0f540008003900b7
:1024f000080178008a00780009007800dcff0700f6
:102500008b0f540002003900880578001e00370048
:10251000088655000c017800f00f560001003600c7
:1025200002012000010220007e805700fc0107000c
:102530008c0678000500370002012000fe8057005d
:1025400009007800caff0700f0865600ef8f56009a
:10255000f9ff3e004461de0000ff2f008091b900ca
:102560000c014100fe80570009007800c0ff070001
:102570000e00e00004003a00080178008a007800ac
:1025800009007800baff07000b0078004f077800b9
:102590004f06be004f05be004f04be002f01b10024
:1025a0000000060000000500000005000000050016
:1025b000000178000040eb008080fb00818040003b
:1025c000e308210081814100134278000404e00007
:1025d00004003a00f008210081004000114078001a
:1025e0000000060092017800934f520005003a0067
:1025f000f008210081004000114078000309e80044
:10260000010037000040e800ea4f5000eaff3600c2
:1026100000000600f6874700889fbe008a9fbe0024
:102620008c9fbe008e1f78000005780001047800a2
:1026300083057800040678000000eb00c0b79f0017
:102640008080eb00d1b79f00e0b79f00f2b79f00fa
:102650000008200080bf9f009800780001007800eb
:102660008004eb00010037008904e8003041780065
:102670000204e0000300320053c2b300834f510054
:10268000f9ff3a000900e000040032000901780077
:102690000a00780076ff0700188c440018077800bd
:1026a00050c2b3009e4f10003f013a000e07e800f1
:1026b0000e0c780010003700cfb097000100a0008a
:1026c0000b003700cfb097000110a00008003700c2
:1026d000cfb097000120a00005003700cfb09700d1
:1026e0000130a00002003700cfb097000140a000e9
:1026f000c1b79f00000ce8001800780090407800f7
:10270000b2c2b30082cf5000f1ff320007003c009c
:1027100002c2b30082cf5000f0ff320032c2b300d9
:1027200082cf500007003a00efff3700d2c2b3005b
:1027300082cf5000e0ff320002c3b30082cf5000ce
:10274000e0ff3200a2c2b30082cf50000d003a0079
:10275000000ce8001c80e900000e780010007800f2
:10276000e0b79f000000e0000f003d00cfb09700f1
:102770000100a200c1b79f000000ea00e0b79f007f
:102780000900370039010700e0b79f00010037005a
:10279000000ce800180078009000fb000103b10075
:1027a000e98f5000faff36004fb097000008a300f1
:1027b000020032000010a100c0b79f00180078008e
:1027c000e1c2b30090cf100016003a008000eb0089
:1027d000d1b79f000000e800000c7800a1c2b30050
:1027e00090cf100006003a00000ce8001c80e900c1
:1027f000000e780010007800d0b79f000900370065
:102800001a010700d0b79f0001003700000ce80054
:10281000180078009000fb000103b100e98f500020
:10282000faff36000800780061ff07008046780054
:10283000180078001000fb00bc0107009106200082
:10284000810f50003800320012003c004106200089
:10285000810f5000340032000a003c0011062000b5
:10286000810f50002000320031062000810f5000ff
:10287000a000320051022000810f5000bc003a003d
:10288000b400370071062000810f5000b8003c00f2
:102890008800370001072000810f50005c003200e3
:1028a00007003c00e1062000810f50007a00320052
:1028b000f1062000810f5000ad003a0039003700ca
:1028c00051072000810f50002700320081072000af
:1028d000810f50004200320031072000810f50006c
:1028e000a3003a008f0037008d80fb000c017800b8
:1028f00000fe2f000f004000befe07000000e000b9
:10290000a800320018007800000ce8009041780020
:1029100002fe2f000f014100f88057000a007800e6
:1029200021ff07000e0037008d80fb008c0178002e
:102930001200200000fe2f000f004000a70107003a
:102940000000e00097003200180ce80002fe2f00a3
:102950000f014100f88057000a00780011ff0700be
:1029600080844400900037008d80fb008c0178004b
:102970000001eb0000fe2f000f0040009701070050
:102980000000e00087003200180ce80002fe2f0073
:102990000f014100f88057000a00780001ff07008e
:1029a000efff37008d80fb008c0178000001eb0009
:1029b00000fe2f000f004000880107000000e0002b
:1029c00078003200180ce80002fe2f000f014100d1
:1029d000f88057000a007800f2fe0700e0ff370099
:1029e0008d80fb008c0178000001eb0000fe2f00c1
:1029f0000f004000790107000000e000690032008c
:102a000018007800000ce800904178001c003700a6
:102a10008c0178000001eb00010f200000fe2f0068
:102a20000f0040006d0107000000e0005d00320073
:102a3000180ce8000fb097009fb097002fb19700d7
:102a4000bfb19700e00f5000e08f5800e00f590031
:102a5000e08f590009003a00cfb597006fb4970096
:102a600060082100190107000b0278008801780036
:102a700000017800610821004700370083c7b300d8
:102a800002fe2f000f014100f88057000a00780075
:102a9000c5fe0700b2ff37000b8144008d80fb00ac
:102aa0008c01780000fe2f000f0040009f010700fe
:102ab0003c0037008d80fb000c01780000fe2f00e9
:102ac0000f0040004bfe07000000e0003500320020
:102ad00018007800000ce8009041780002fe2f00fa
:102ae0000f014100f88057000a0078006cfb0700d6
:102af0009bff370000c8b30080cf560029003a0082
:102b0000180ce8001c80e900000e780010407800e6
:102b1000e0df9f0013002000e2fd2f000f014100c5
:102b20000800370000c8b30080cf56001d003a00ef
:102b3000180ce8001c80e900000e78008001eb0012
:102b400010017800f88057000a00780097fe07000f
:102b500083ff370000c8b30080cf560011003a0051
:102b6000180ce8004fb29700efb19700080037004b
:102b70000e0c78000000eb00c0b79f00e0b79f008c
:102b80000080eb00d0b79f000002eb0084017800ca
:102b900012002000c10821000a00780047fe07004b
:102ba0006fff3700180ce800090078004f07780025
:102bb0004f06be004f05be004f04be006f01b100be
:102bc000000006008200fa00889fbe008a1f78007d
:102bd0000005780082047800c13f9f000004eb00ec
:102be000100037000902780088017800a2f72f0052
:102bf0000f01410081f72f008f8040000a0078000c
:102c000084fe070008004000880f500004003d00cb
:102c1000b0042000b08588000084eb000400370079
:102c2000000478004f3897001004e000edff3a00f0
:102c3000080078004f0578004f04be000080fa00bd
:102c40000000060080007800100020000202200032
:102c5000828f500004003200e9805000e48f500061
:102c6000010036000000eb0000000600889fbe0057
:102c70008a1f7800000578000a04780098447800dc
:102c80000805e8000900fb00eeff07000000e00077
:102c9000f9ff3a00b0c2b30080cf54000500320003
:102ca000d0c2b3008000eb0080cf540005003a0092
:102cb000020037008000eb00010037001100200007
:102cc0000804e8000000eb0003003700ea00b90048
:102cd000020050000003b0003801fb0003fd2f008c
:102ce00082814100e98f5100f8ff36000100e000c9
:102cf00001003a000000ea004f0578004f04be00d2
:102d0000000006008001780002003700b159780009
:102d10000201e9000200e000fcff3a0000000600aa
:102d2000889fbe008a9fbe00800478000200e000f9
:102d30005b00320001407800814c780082814400c1
:102d4000f1f99f00e20f51005500360091449800c0
:102d5000a1449800e1f99f00d1f99f00e60f5100ce
:102d60004f003600b1449800c1f99f00e80f5100b0
:102d70004b0036000905ea00630565000a8444003b
:102d80000a055100c1ff2f00010565000080fb000e
:102d90008000eb0012102000131020009e0107009d
:102da000008cbe000a01440060b99f0071b99f0009
:102db000e80f55003a0036002004980031049800ce
:102dc000400498005104980020b99f0031b99f0039
:102dd00040b99f0051b99f00f80f550030003600f0
:102de0006004980071049800000c9800110c980081
:102df000200c9800310c9800400c9800510c980061
:102e000020b19f0031b19f0040b19f0051b19f00a0
:102e100060b19f0071b19f0000b99f0011b99f0080
:102e20006401640078014100020444000205550079
:102e30006011b8000203be000002be000403be0021
:102e40006022b800000072008180720002017300ed
:102e50008381730010003700009cbe000294be0006
:102e6000400498005104980062049800730498008c
:102e7000000c9800110c9800220c9800330c98005c
:102e8000400c9800510c9800620c9800730c98004c
:102e90000a02b1000802b000ff0f5500eeff3e002d
:102ea000090078004f05be004f04be000000060078
:102eb000881f78000004780008007800d30007001d
:102ec000080078004f0478000000060080007800b9
:102ed000040037003104e00002003a000000510015
:102ee00000000600010178000108a300f9ff3a0084
:102ef0008101780031017800f4ef2f0002024200d6
:102f00000281ea0002016200040828000401610055
:102f1000f7ff320083007800010178003104e000ff
:102f2000fdff3a000000510000000600f1fb2f00f9
:102f300080804000f98f500001003e000050a0004a
:102f400000000600f9ff3700f28747008e1f780067
:102f500002027800030178000000e0000200320065
:102f60000007780001003700728757008002eb00ed
:102f70000100e000010032008102e900708057008a
:102f8000060009000018eb000080eb0080bf9f00e6
:102f90002310200093bf9f00aebf9f00b1bf9f00d2
:102fa000c5bf9f000100e00003003d00b104200008
:102fb000b185880006003700004feb00eebf9f0090
:102fc000debf9f008400780070805700af000700cc
:102fd0004f0778002f01b100000006008408200090
:102fe000848f50001d0032000d003c0014082000aa
:102ff000848f50002700320002003c0004082000ab
:103000000400370024082000848f50003400320070
:1030100044082000848f500043003a0036003700f7
:10302000040a2000848f50002700320004003c0076
:1030300004092000848f50003b003a00280037002c
:10304000020c2000828f50002f003200020f20005f
:10305000828f500034003a002b0037009380e90043
:103060000200e00005003200810978001102fb0037
:10307000cfa2de00612bb90028003700810978005b
:10308000114278000482fb008002eb006033b8003c
:103090002200370013027800e40052000200e00032
:1030a00005003200810978001102be004fabde003e
:1030b0008603780019003700810978001102be00ec
:1030c0006033b800150037009380e900810978006b
:1030d00011027800cfa2de00612bb9000f0037008b
:1030e00093027800e8805200810978003102be0026
:1030f0002103be00090037009380e9000200e000d0
:1031000002003200f1ff37009380e9008109780066
:10311000110278008002eb006033b8000498be0012
:103120000690be00100005000000050044082000c5
:10313000848f50002500320008003c001408200055
:10314000848f50001400320024082000848f500027
:1031500024003200040820000c003700040920007d
:10316000848f50001f00320004003c0084082000bf
:10317000848f500024003a000e003700040a20001b
:10318000848f500011003200040c2000848f500006
:103190001d003a000d0037009380e9008109780096
:1031a0009100780001087800cf91de008288be008f
:1031b000140037009380e9008109780091007800bd
:1031c00001087800824878000e0037009380e900fb
:1031d0008109780091007800010878008208780061
:1031e000080037009380e900810978009100780099
:1031f000010878006112b900612bb9008498be0003
:103200008690be0010000500000005000101780056
:1032100080017800008268000408a30005003200e5
:103220001300370032407800805978000004e00035
:1032300014003200030278000208a300f9ff3a00ec
:10324000030078000100370003187800820078003e
:10325000b2017800f5ef2f00838242000382ea007a
:10326000048262000508280005026200f6ff3200b1
:103270000002780031417800025878000204e00032
:10328000fbff3a0004007800000006000200fa008c
:10329000881f780000047800e2bf9f006481570017
:1032a0000800780047fe0700980090000148a3003e
:1032b000010032000080eb004f0478000080fa002b
:1032c000000006008f1fd1007a0207008f87e900f7
:1032d0000000e00000000600809feb007502070080
:1032e0008f87e9000000e0000000060081037800fd
:1032f00091f607000001be006000b8000478a3004a
:1033000013003a006220e10015003e000d00390074
:103310008301d1000281d3008180d3008301d100d9
:103320000281d3008180d3008301d1000281d300c8
:103330008180d3000538b000c42add00f300b2005c
:103340008381720007f0a70003f0a00000000600d0
:1033500083ff2700020020006110b900f9ff370049
:1033600003ff2700f7ff37001400fa00889fbe0014
:103370008a9fbe008c9fbe000004be000205be00f6
:10338000680047000a90be000890be008402070053
:103390000070a7000bf0a100304320009e029000b7
:1033a00080825200b0fe2f000028e10011003d0095
:1033b000b0fc2f000028e100150034001e09900029
:1033c0008e0890007e0090000501b0000201d1003f
:1033d0008180d3000080d3008502e800fbff3a0023
:1033e0000b00e000a9023b0060001000e080180024
:1033f000a6023700f0ff2f00f1ff27000b00e000ce
:10340000a2023b0001002800000020009f023700bc
:103410006000b8009d023700020ab900001bb90025
:103420000200b80081004200810043000000060055
:103430008c9fbe008a9fbe00889fbe00ca01070005
:103440000bf0a200040037008c9fbe008a9fbe00d4
:10345000889fbe00c40107000c48e1000b003a0041
:103460000c40e100020032008b01070040003700f1
:103470008b066d003e0032000af0a100f30120002f
:10348000f2ff2f006110b900390037000c40e10055
:10349000370032000940e100010036007e010700dc
:1034a0008a856d00cf5dde000b0575000006eb0020
:1034b0008804fd0089045400010032007d010700ea
:1034c0000a04e00011003a000800e0002800320081
:1034d00004004000858048000601490087814900ba
:1034e0000358a300180032008301d1000281d300e9
:1034f0008180d3000080d3000c86d3000100390006
:10350000610676000804e800180037000400500047
:103510008580580006015900878159000600310056
:103520000af0a2000c06ea0060001800e080180013
:1035300060011900e081190003003a000004eb006b
:103540000005eb000a0037000348a30007003a001b
:103550000c06460000004800818048000201490036
:10356000838149000804e900f7ff3700af01370005
:10357000c90137008c9fbe008a9fbe00889fbe0095
:10358000790107000b056d000940e1000a003a00cf
:103590000800e000020032000c40e10006003a00a2
:1035a0000af0a1000c047800f3012000f2ff2f00c4
:1035b0006110b9009d0037000c40e1009b00320013
:1035c0000800e000990032000c48e10002003a00d7
:1035d0000004eb00030037000900e00004003a009b
:1035e0000c0478006000b8006011b8008f0037004c
:1035f0000348a30006003a00000040008180480014
:1036000002014900838149000804e900f8ff3700fe
:103610000748a30006003a000402420085824a00df
:1036200006034b0087834b008904e900f8ff37004d
:10363000fd3f20008d845400090454008a1f780047
:10364000881f780000047800810478000205780063
:10365000830578006000b8006011b8000d042000f8
:10366000050037000804440089844c000a054d0019
:103670008b854d00080031000404540085845c00f3
:1036800006055d0087855d008381d2008d06d3002d
:10369000f4ff3b00070037000404440085844c001d
:1036a00006054d0087854d008381d2008d06d3002d
:1036b000ecff3b000804440089844c000a054d00df
:1036c0008b854d00080031000404540085845c00a3
:1036d00006055d0087855d000281d2008d06d3005e
:1036e000f4ff3b00070037000404440085844c00cd
:1036f00006054d0087854d000281d2008d06d3005e
:10370000ecff3b000804440089844c000a054d008e
:103710008b854d00080031000404540085845c0052
:1037200006055d0087855d008180d2008d06d3008f
:10373000f4ff3b00070037000404440085844c007c
:1037400006054d0087854d008180d2008d06d3008f
:10375000ecff3b000804440089844c000a054d003e
:103760008b854d00080031000404540085845c0002
:1037700006055d0087855d000080d2008d06d300c0
:10378000f4ff3b00070037000404440085844c002c
:1037900006054d0087854d000080d2008d06d300c0
:1037a000ecff3b000b00e00004003d00040444007b
:1037b00085844c0006054d0087854d000006eb0012
:1037c0008301d1000281d3008180d3000080d30027
:1037d0000c86d3008301d1000281d3008180d30005
:1037e0000080d3000c86d300890474008b0575001b
:1037f0008b84740001003200610676004f0478006b
:103800004f0578000348a30007003a000c06460065
:10381000000048008180480002014900838149007e
:103820000804e900f7ff3700000137001a013700ec
:103830008c9fbe008a9fbe00889fbe00ca00070002
:103840000b056d008a0578000c40e10008003a0085
:103850000900e00082003a000af0a1000c047800a0
:10386000f3012000f2ff2f006110b9007c00370047
:103870000c48e10004003a00870007000900e0005e
:1038800077003a00f4ff37000800e00074003200cf
:103890000900e00002003a007f00070070003700d6
:1038a000ed3f20008d845400090444008a1f7800f5
:1038b000881f7800871f7800861f7800851f780092
:1038c000841f7800cb19dd00c515de008b857100e3
:1038d0004b11dd00450dde000a057100cb08dd004f
:1038e000c504de00898470004b04dd000440b8008c
:1038f0000546b8008c80400060814e00044eb80040
:103900008c8040000d0149008001eb000318ad00e0
:103910000456b8000c0141008d8149000002eb0003
:103920000420ad000646b8000c0141008d8149001d
:1039300060024a00054eb8000c0141008d8149002b
:1039400060024a000556b8008c8141000d024a0011
:103950008002eb000528ad000746b8008c814100cd
:103960000d024a00e0824a00064eb8008c814100f8
:103970000d024a00e0824a004f0678000c5eb80053
:103980008c8141000d024a00e0824a000656b800d0
:103990000c0242008d824a000003eb000630ad00ad
:1039a000074eb8000c0242008d824a0060034b00b3
:1039b0004f0678000c5eb8000c0242008d824a006f
:1039c00060034b000756b8008c8242000d034b0089
:1039d0008003eb000738ad004f0678000c5eb8009e
:1039e0008c8242000d034b00e0834b004f067800b1
:1039f0000c5eb8000c0343008d834b004f0478002d
:103a00004f0578000748a3000a003a000000400074
:103a100081804800020149008381490004024a0074
:103a200085824a0006034b0087834b000804e900a7
:103a3000f4ff3700030678008080700082807000f9
:103a400001003200610676008701780006017800e7
:103a5000850078000400780088047800780037003a
:103a60008d0037008c06460002003a000000a600d8
:103a70000000060060004800e08048006001490046
:103a8000e08149000350a600000006008301d10038
:103a90000804e800000006000002fd008102fd00ad
:103aa0000203fd008303fd008804fd008a05fd007c
:103ab000000006007048e1001a0039007d03200074
:103ac0000d48e1000a00390081057000830671008d
:103ad0008c8575008d8575000006eb001cd8e7000d
:103ae000610676006000b8006011b80000000600b2
:103af0007048e1000b0039008c0578000006780062
:103b00000100780082007800030178008001eb005a
:103b100013d8e70061067600f0845400f4ff3a0001
:103b2000000006006160e1000c48ad00f085140063
:103b30008b06dd000966de000d0676008b0edd00cb
:103b40000900de000d0070008b16dd008908de0024
:103b50008d8070008b1edd000911de000d017100eb
:103b60008919de00000006000d002800fc7f2000ff
:103b70000d856100441cde00ef8161000c046400cf
:103b8000010032000340a0008d856300c43cde00cc
:103b9000ef8363008c846400010032000740a000c2
:103ba0000c40e10006003a00ef8661008286760054
:103bb000818676008086760001003200180037008a
:103bc0000c48e10007003a00ef8663008686760025
:103bd000858676008486760002003200aeff0700fc
:103be0000f0037000348a30005003a00810670006b
:103bf0008286760083867600010032000804e800a1
:103c00000748a30005003a00850672008686760004
:103c100087867600010032008904e8000000060073
:103c2000cf047800cf0578001b0037000002780031
:103c3000810278000203780083037800880478000a
:103c40000cf0a70087ff0700fd7f20000d40e1007a
:103c5000040035000d0478006000b8006011b80061
:103c60000d0037000800e0000b003c000400780065
:103c7000850078000601780087017800e18414004f
:103c80008cff07000cf0a70076ff07000004eb0094
:103c90000340a7000804e8004444dd006fc561004c
:103ca000880175004f04be004f05be004f06be00e0
:103cb00000000600889fbe008a9fbe008c9fbe0049
:103cc0000404be000605be00809fbe00829fbe00a9
:103cd00021000700040678000800be000a01be00ab
:103ce0001d000700840678004f03be004f02be008f
:103cf0008d4f76007fb0970013003300f0ff2f0048
:103d00008b8f6b0006003b000d0666000c00a700c1
:103d10000a00370007f0a600100020000a00370054
:103d2000880f5200898f5a008a0f5b008b8f5b00cf
:103d3000030039001000200001003e0000002000b8
:103d400007f0a7000000ea004f06be004f05be00c6
:103d50004f04be000000060005ff27000582610039
:103d6000070032000428e1000100320024000500b1
:103d70000600070001003a004400050004080500a1
:103d800002000700f9ff3a00140005006f8261008d
:103d90008102700085027100850272000000060039
:103da000800078005002be005003be004439de009f
:103db000f700b200f37f2000030161000900320028
:103dc0000218e10016003a008501720083017300b9
:103dd000838173000008200015003a004000200095
:103de0001300370085017200830173008381730023
:103df00005003a0004a8be0006a8be00100020007e
:103e00000b0037000201e9000402420085824a00eb
:103e100006034b0087834b000748a300f9ff3200dd
:103e20000740a00004a8be0006a8be002000200095
:103e30008000980092009800000006006804470087
:103e40000294be000094be00fc0447008694be00ad
:103e50008494be0009007800d1ff070008007800b4
:103e6000cfff070099007800814f70000b003b00e6
:103e70000800be000a0007004f00b1000300370031
:103e8000f3ff2700f2ff2f006110b9004f06be00bc
:103e90004f05be004f04be000080fa00000006007f
:103ea000e48240001078a300070032006402400062
:103eb0001178a3003400be001401be0004003200db
:103ec0000330a700000006003500be001501be004b
:103ed0000330a000000006001800fa00889fbe0012
:103ee0008a9fbe008c1f78000004be000205be0041
:103ef0000802be000a03be00443ade00f07f200044
:103f00000006620020432000800f560067003c003e
:103f10006022b8006033b8000800be00e9fc07006a
:103f20000000e000610032000802be000a03be008b
:103f3000b4b79f00c5b79f00d6b79f00e7b79f00f3
:103f4000e00f5200e08f5a00e00f5b00e08f5b0053
:103f50000b003d006022b80006002000073324005b
:103f60000800be000a01be0031fd07006022b80053
:103f7000060020000733240033fd07000a00370045
:103f80006022b80006002000073324000800be00ad
:103f90000a01be002cfd07006022b80006002000c8
:103fa0000733240022fd07000802be000a03be00fa
:103fb0001ffd07000002be000203be00f4b79f0011
:103fc00085bf9f0096bf9f00a7bf9f00e03f2000d6
:103fd000800f560017003c007fb097008fb8970005
:103fe0001fb99700afb99700f0af9f0081b79f004e
:103ff00092b79f00a3b79f006044b8006055b80017
:104000003fb29700cfb297005fb39700efb397002e
:10401000e00f5200e08f5a00e00f5b00e08f5b0082
:1040200022003d006044b8000a0020000bff2b0076
:104030001e0037006022b8006033b8007fb09700e0
:104040008fb897001fb99700afb99700a2fc07007f
:104050000000e0000c0034007fb297008fba970098
:104060001fbb9700afbb97000800be000a01be004f
:10407000f5fc07006022b8000600200007ff2300bf
:10408000ebfc0700070037007fb297008fba97005c
:104090001fbb9700afbb97000800be000a01be001f
:1040a000e9fc07000004be000205be000800be00d7
:1040b0000a01be004f0678004f05be004f04be0047
:0840c0000080fa000000060078
:020000040000fa
:1040c8003c2a00002020000020480000454c000049
:1040d8004c4f000020200000202000002a3e000055
:1040e800003c00002a20000020200000574f00005c
:1040f800524c00004420000020200000202a00002c
:104108003e000000c62300001c2c000020240000f4
:104118003a2400006c2400009a240000ca240000fd
:10412800d6240000fc240000e02400002001000048
:104138001300000000000000200100000f00000034
:1041480000000000563a0000202500002e32000032
:084158006620000000000000d9
:020000040000fa
:104160000000fa00002bef00000620001058880025
:10417000042bef00062bef00082bef000a2bef00bb
:10418000102bef00122bef00142bef00202bef0071
:10419000f001200010598800382bef00402bef0071
:1041a000482bef00502bef003a2bef00422bef0093
:1041b0004a2bef00522bef003c2bef00442bef007b
:1041c0004c2bef00542bef003e2bef00462bef0063
:1041d0004e2bef00562bef0000402000505b880074
:1041e00000402000705b880000402000905b880049
:1041f00000402000b05b8800a02bef00a42bef0054
:10420000a82bef00ac2bef00d02bef00d22bef0050
:10421000f02bef00f22bef00022cef002018220011
:104220003b000700001b220051000700201e220057
:1042300068000700601f220070000700a020220015
:1042400078000700e02122008000070020232200e0
:10425000880007000d68a9002d68a8000d88a90036
:104260002d88a8000da8a9002da8a8000dc8a90098
:104270002dc8a8000de8a9002de8a8001160800055
:1042800000f02000010070001060880001eba80021
:104290001100070040012000005c8800822bef0025
:1042a000842bef00862bef00882bef008a2bef008a
:1042b0008c2bef008e2bef0010102000805c88000c
:1042c00010102000905c880010002000a05c880086
:1042d0000080fa00000006000000fa0000eca800d0
:1042e00000000000016080000000280000806000e5
:1042f0000000e000fbff32000aeba8000080fa009b
:10430000000006000000fa000080fa00000006002d
:104310000200fa00000f78001e007800008088007c
:104320000080fa00000006000000fa005140800002
:1043300000402000008060000000e0000600320025
:10434000008080000000e000020032000080800059
:10435000000001000b48a9000080fa0000000600e0
:104360000200fa00000f78000080fa00000006004a
:104370000200fa00000f78001e007800108088000c
:104380000080fa00000006000200fa008059800058
:10439000610060000000e000080032006160800001
:1043a000010f7800108080000000e0000300320060
:1043b000118080001e007800010001000080fa00da
:1043c000000006000200fa00000f78000080fa00ea
:1043d000000006000200fa00000f78001e007800be
:1043e000208088000080fa00000006000200fa0029
:1043f000000f78000080fa00000006000200fa00ba
:10440000000f78001e007800308088000080fa00dd
:10441000000006000200fa00000f78000080fa0099
:10442000000006000200fa00000f78001e0078006d
:10443000408088000080fa00000006000200fa00b8
:10444000000f78000080fa00000006000200fa0069
:10445000000f78001e007800508088000080fa006d
:10446000000006000200fa00000f78000080fa0049
:10447000000006000200fa00000f78001e0078001d
:10448000608088000080fa00000006000400fa0046
:1044900020479800314798002e4090000080fb0094
:1044a0004400dd00804078003e4090000080fb002a
:1044b0004200dd000040780000c07000004f78002e
:1044c0001e407800970407001e4078000034a000ca
:1044d0009404070010002000280407001e40780004
:1044e0009004070080022000240407000080fa00e6
:1044f000000006000600fa00404798005147980067
:104500004e4090000080fb004400de00004f780029
:104510004e4090006f406000104798001e80fb00e6
:104520004400dd00804078005e4090000080fb0089
:104530004200dd000040780000c070002047980075
:104540001e4090000080fb004400dd0080407800a9
:104550005e4090000080fb004200dd0000407800db
:1045600000c07000304798002e4090006d04070096
:1045700020002000010407002e4090000034a0001d
:104580006804070020002000fc0307003e40900064
:104590006404070020002000f80307003e4090005c
:1045a0000034a0005f04070080022000f30307002e
:1045b0000080fa00000006000000fa008040eb00d6
:1045c00020c0b300cbff070020002000eb03070052
:1045d0000080fa00000006000000fa008040eb00b6
:1045e00010c0b300c3ff070020002000e303070052
:1045f0000080fa00000006000200fa00004f780078
:10460000114798009e407800800220008088b90001
:10461000804078001e40900000c040000074a00060
:104620008040eb00b3ff07000080fa0000000600a6
:104630000200fa00004f780011c0b3001e4078005d
:10464000acff07000080fa00000006000600fa0038
:1046500010079800414798008040eb004e409000c2
:10466000e5ff07000040eb00004f78000040eb0042
:10467000004f78000c0037001e80fb009e00900069
:1046800000804000104078000004e0000500320087
:104690001e80fb009e0090000080400010407800cb
:1046a000e3ff07001e4fe8001e407800ef4f500068
:1046b000f1ff3600c0ff07000080fa00000006008e
:1046c0000200fa00004f78001e4078004a040700fc
:1046d0000080fa00000006000000fa005a6ea800f0
:1046e0003eeea8005a8ea800080407000040eb0028
:1046f0000c04070080022000a00307008040eb00ac
:1047000030c0b30061ff0700a00020009b0307003a
:104710008040eb0030c0b3005cff0700a000200029
:10472000960307008040eb0030c0b30057ff07003e
:10473000a0002000910307008040eb0020c0b300e0
:1047400052ff07008040eb00c0c2b30069ff0700c2
:104750008040eb00c0c0b30066ff07008040eb0064
:1047600060c0b30063ff07008040eb00c0c0b3002f
:1047700060ff070020002000800307008eff070075
:1047800095ff07000080fa00000006000000fa0014
:10479000ade2a9000080fa00000006000200fa0065
:1047a000000f780061158000000028000080600084
:1047b0000000e0001f003a001e007800e600b9008b
:1047c00080007800a0092a000080400010007800d6
:1047d000601588001e007800e600b9008080e800bf
:1047e000a0092a000080400010007800e015880031
:1047f0001e007800e600b900e4004000a0092a008d
:104800000080400010407800614060000080fb00a4
:10481000610060004a00dd00f170800001a0a1008d
:1048200001007000f0708800ade2a80010c0b30075
:10483000010037000040eb000080fa000000060095
:104840000200fa00004f78001e80fb00c0158800af
:1048500000000000a0158000610060000000e00082
:10486000fcff3200c0158000004078000080fa0094
:10487000000006000600fa001007980021079800c3
:104880009e009000010f7800060037001e0078009f
:1048900010407800eaff07009e007800804878000a
:1048a0001e0fe8002e00900000f0a7000000ea00b4
:1048b0000000ea004f00de0000407800ae009000eb
:1048c0008100e900210798000004e000efff3a00b2
:1048d0000080fa00000006000600fa0010079800a9
:1048e000210798009e009000010f78000400370017
:1048f0001e007800104078001e0fe800d0ff07006f
:104900002e00900000f0a7000000ea000000ea007e
:104910004f00de0000407800ae0090008100e9000a
:10492000210798000004e000f1ff3a000080fa003f
:10493000000006000600fa00100798002107980002
:104940009e009000010f7800050037000040eb004a
:10495000bbff07009e007800804878001e0fe8002b
:104960002e00900000f0a7000000ea000000ea001e
:104970004f00de0000407800ae0090008100e900aa
:10498000210798000004e000f0ff3a000080fa00e0
:10499000000006000200fa00004f78001e80fb00b5
:1049a000c01588000080fa00000006000000fa0030
:1049b000c0158000004078000080fa00000006006a
:1049c0000000fa000140800000202000008060000c
:1049d0000000e00006003200008180000000e000de
:1049e0000200320000818000000001000128a900bf
:1049f0000080fa00000006000200fa00000f7800b4
:104a00009e007800018188000080fa000000060006
:104a10000400fa00100798001e009000e20f5000fa
:104a200014003200e20f500005003e000000e000dc
:104a30000a003200e10f50000b003200190037006d
:104a4000e40f500011003200e40f50000c00390058
:104a5000e50f500010003200120037006160800046
:104a6000010f78000f00370061618000010f7800ae
:104a70000c00370071618000010f780009003700d9
:104a800081618000010f780006003700916180008d
:104a9000010f780003003700a1618000010f78004a
:104aa000000000001e0078000080fa0000000600f0
:104ab0000000fa00b073800000800a0000000000cf
:104ac0000004a200614060000080fb006100600003
:104ad000b17380000100a10001007000b073880074
:104ae000b073800011800a00000000000004a200e2
:104af000614060000080fb00610060000000400039
:104b0000b17380000110a10001007000b073880033
:104b10000080fa00000006000000fa000000eb0030
:104b2000bbff070070808800708080008000eb0071
:104b30007ff007003233230033a5230072f1070012
:104b400090808800a180880090808000a1808000f3
:104b5000809fbe00600a2a00801f78006006210046
:104b600046f30700e6875700225e2200010120007d
:104b7000600721000200010090808000a180800079
:104b800002002000031824005ff1070032332300e5
:104b9000330524007df007004af00700004078004c
:104ba00010f0b7006260220010d0bf000080fb0050
:104bb0008000780060072100020001000080fa00f8
:104bc000000006000600fa00100798004147980010
:104bd0000040eb00004f7800060037001e80fb000d
:104be0009e0090000080400001c2b30001487800a0
:104bf0001e4fe8004e4090009e40780080cf50004d
:104c0000f6ff39000080fa00000006000600fa00f6
:104c100010079800414798000040eb00004f7800d3
:104c2000060037001e80fb009e00900000804000c0
:104c3000d1c3b300014878001e4fe8004e409000f9
:104c40009e40780080cf5000f6ff39000080fa00c7
:104c5000000006000000fa00c802070060062100fc
:104c6000c080880060072100d080880000c2b300a7
:104c700093fe070058fe0700d080800011c0b300eb
:104c800072fe0700c08080008040eb006ffe0700ce
:104c9000f9ff37000000fa00500c2000804a88001d
:104ca0005229ef005429ef005629ef005a29ef004e
:104cb0005c29ef006029ef006229ef00209c2000b2
:104cc000204b88006629ef006829ef00104e200075
:104cd000604b88007029ef007229ef0051e9a800ad
:104ce000804a800030800a00000000000080fb0045
:104cf0001081880000c8a90020c8a8000080fa0020
:104d0000000006000000fa000080fa000000060023
:104d10000000fa00014080000008200000806000d0
:104d20000000e00002003200f6ff070000e8a900e2
:104d30000080fa00000006000000fa0051e9a80017
:104d40000080fa00000006000000fa0051e9a90006
:104d50000080fa00000006000200fa00000f780050
:104d60009e007800414b88000080fa000000060099
:104d70000400fa00000f7800110798009e007800e8
:104d8000414b88009e009000614b88000080fa0033
:104d9000000006000400fa00000f780011079800d8
:104da0009e007800414b88009e009000614b880077
:104db0000080fa00000006000400fa00000f7800ee
:104dc000110798009e007800414b88009e009000db
:104dd000614b88000080fa00000006000400fa0021
:104de000000f7800110798009e007800414b880062
:104df0009e009000614b88000080fa0000000600d1
:104e00000200fa00000f78009e007800414b8800f5
:104e10000080fa00000006000000fa000040800058
:104e200066800a00000000000080fb0000f0a70080
:104e30000000ea000000ea004f00de0000407800b9
:104e40000080fa00000006000000fa00e04a80003e
:104e500077800a00000000000080fb0000f0a7003f
:104e60000000ea000000ea004f00de000040780089
:104e70000080fa00000006000000fa005cc9a800eb
:104e80000080fa00000006000000fa005ca9a800fb
:104e90000080fa00000006000000fa00e04a8000ee
:104ea00033800a00000000000080fb0000f0a70033
:104eb0000000ea000000ea004f00de000040780039
:104ec0000080fa00000006000000fa005c69a900fa
:104ed0000080fa00000006000000fa00007c80005c
:104ee0000080fa00000006000200fa00faff070046
:104ef000000f78001e007800240007000004e00086
:104f00000200320000002800710007001e00780037
:104f10002a0007000004e000020032000000240024
:104f20006b0007001e007800320007000004e0005c
:104f30000200320000202000650007001e007800fb
:104f40003a0007000004e0000200320000082000e0
:104f50005f0007001e007800420007000004e00028
:104f60000200320000042000590007001e007800f3
:104f70004a0007000004e0000200320000012000a7
:104f8000530007000080fa00000006000400fa0049
:104f9000100798000040eb00004f78001e009000c2
:104fa0000000e00002003d0010c0b300004f780098
:104fb0001e4078000080fa00000006000400fa009d
:104fc000100798000040eb00004f78009e00900012
:104fd00000002400008060000000e00002003200b9
:104fe00010c0b300004f78001e4078000080fa0027
:104ff000000006000400fa00100798000040eb00d3
:10500000004f78009e00900000202000008060008b
:105010000000e0000200320010c0b300004f780032
:105020001e4078000080fa00000006000400fa002c
:10503000100798000040eb00004f78009e009000a1
:1050400000082000008060000000e0000200320044
:1050500010c0b300004f78001e4078000080fa00b6
:10506000000006000400fa00100798000040eb0062
:10507000004f78009e009000000420000080600037
:105080000000e0000200320010c0b300004f7800c2
:105090001e4078000080fa00000006000400fa00bc
:1050a000100798000040eb00004f78001e009000b1
:1050b000700060000000e0000200320010c0b30089
:1050c000004f78001e4078000080fa0000000600c3
:1050d0000200fa00000f78009e80ea00007c800049
:1050e00000806000007c88000080fa00000006005c
:1050f0000000fa00802fef000080fa000000060098
:105100000000fa000421ef0010a1270040088800e9
:105110000002280000088800f08080000000e00005
:1051200002003a0080552200210007000028a90053
:105130002028a800400b21008040eb0001487800a7
:105140000080fa00000006000200fa00000f78005c
:105150009e00780041088800400b21008040eb0051
:10516000014878000080fa00000006000000fa0004
:10517000400880000080fa00000006000200fa00eb
:10518000000f78009e00780021088800400b210065
:105190008040eb00014878000080fa000000060023
:1051a0000000fa00200880000080fa0000000600dd
:1051b0000200fa00000f78002028a9009e00780065
:1051c000f18088002028a8000080fa000000060076
:1051d0000000fa00400b21008040eb0001487800fd
:1051e0002028a80001e1a8000080fa0000000600c5
:1051f0000000fa0001e1a9002028a9000080fa00bf
:10520000000006000200fa00400b2100104f780059
:105210001e4078000004e00003003200400b210033
:105220008040eb00014878001e4078000080fa00c2
:10523000000006000000fa00500b2100104078002a
:105240000080fb000080fa00000006000000fa0069
:10525000500b21008040eb00014878000080fa00ec
:045260000000060044
:020000040000fa
:105264002610000020000000800000001c10000038
:105274000200000082000000ffff0000b4100000e4
:1052840002000000800000001e1000000200000068
:1052940080000000201000000200000080000000d8
:1052a4002210000002000000800000000010000036
:1052b4000e000000800000004610000020000000e6
:1052c400820000005f0000000000000000000000f9
:1052d4000000000000000000005f0000000000006b
:1052e40000000000000000000000000000000000ba
:1052f400661000002000000080000000181000006c
:105304000400000082000000461056001000000057
:105314000e1000000a0000008000000024100000ad
:105324000200000080000000a41000001000000033
:1053340082000000494e460000696e0066004e007f
:10534400414e00006e616e000000000086100000f7
:105354001e00000082000000286e69006c29000015
:1053640025006800076c09004c836a009074a00053
:105374007ac000008068880000846c00820081008c
:10538400b6100000020000008000000000000000d1
:020000040000fa
:105394000000fa00062eef00222eef003e2eef0052
:1053a4005a2eef00762eef00f001200010708800d6
:1053b400d0bf2f00f070880070f72f00d0718800e4
:1053c40070fe2f00b0728800c0ff2f009073880019
:1053d4000c2eef00282eef00442eef00602eef007d
:1053e4007c2eef000a2eef00262eef00422eef0057
:1053f4005e2eef007a2eef00082eef00242eef0031
:10540400402eef005c2eef00782eef00f00120001c
:105414000070880040382000e0708800700420008c
:10542400c071880000c02700a0728800000420001a
:10543400807388000000eb0051052000b14688000d
:10544400a10a2000b146880000688800516c8000e1
:1054540000fc2f00008060006000b300506c8800e6
:10546400916c8000f00f2c008080600000502000c0
:1054740001007000906c880060c4b3002cedb7008c
