:020000040000fa
:080000000002040000000000f2
:020000040000fa
:04000800de03000013
:020000040000fa
:04000c0020040000cc
:020000040000fa
:040010006004000088
:020000040000fa
:04001400fe030000e7
:020000040000fa
:0400180040040000a0
:020000040000fa
:04001c005406000086
:020000040000fa
:040020008004000058
:020000040000fa
:04002400540600007e
:020000040000fa
:04002800540600007a
:020000040000fa
:04002c00ca04000002
:020000040000fa
:040030005406000072
:020000040000fa
:04003400540600006e
:020000040000fa
:04003800540600006a
:020000040000fa
:04003c005406000066
:020000040000fa
:0400400000050000b7
:020000040000fa
:04004400540600005e
:020000040000fa
:04004800540600005a
:020000040000fa
:04004c005406000056
:020000040000fa
:040050005406000052
:020000040000fa
:04005400540600004e
:020000040000fa
:04005800540600004a
:020000040000fa
:04005c005406000046
:020000040000fa
:040060005406000042
:020000040000fa
:04006400540600003e
:020000040000fa
:04006800540600003a
:020000040000fa
:04006c005406000036
:020000040000fa
:040070005406000032
:020000040000fa
:04007400540600002e
:020000040000fa
:04007800540600002a
:020000040000fa
:04007c005406000026
:020000040000fa
:040080005406000022
:020000040000fa
:04008400540600001e
:020000040000fa
:04008800540600001a
:020000040000fa
:04008c005406000016
:020000040000fa
:040090005406000012
:020000040000fa
:04009400540600000e
:020000040000fa
:04009800540600000a
:020000040000fa
:04009c005406000006
:020000040000fa
:0400a0005406000002
:020000040000fa
:0400a40054060000fe
:020000040000fa
:0400a80054060000fa
:020000040000fa
:0400ac0054060000f6
:020000040000fa
:0400b00054060000f2
:020000040000fa
:0400b40054060000ee
:020000040000fa
:0400b80054060000ea
:020000040000fa
:0400bc0054060000e6
:020000040000fa
:0400c00054060000e2
:020000040000fa
:0400c40054060000de
:020000040000fa
:0400c80054060000da
:020000040000fa
:0400cc0054060000d6
:020000040000fa
:0400d00054060000d2
:020000040000fa
:0400d40054060000ce
:020000040000fa
:0400d80054060000ca
:020000040000fa
:0400dc0054060000c6
:020000040000fa
:0400e00054060000c2
:020000040000fa
:0400e40054060000be
:020000040000fa
:0400e80054060000ba
:020000040000fa
:0400ec0054060000b6
:020000040000fa
:0400f00054060000b2
:020000040000fa
:0400f40054060000ae
:020000040000fa
:0400f80054060000aa
:020000040000fa
:0400fc0054060000a6
:020000040000fa
:0401000054060000a1
:020000040000fa
:04010400540600009d
:020000040000fa
:040108005406000099
:020000040000fa
:04010c005406000095
:020000040000fa
:040110005406000091
:020000040000fa
:04011400540600008d
:020000040000fa
:040118005406000089
:020000040000fa
:04011c005406000085
:020000040000fa
:040120005406000081
:020000040000fa
:04012400540600007d
:020000040000fa
:040128005406000079
:020000040000fa
:04012c005406000075
:020000040000fa
:040130005406000071
:020000040000fa
:04013400540600006d
:020000040000fa
:040138005406000069
:020000040000fa
:04013c005406000065
:020000040000fa
:040140005406000061
:020000040000fa
:04014400540600005d
:020000040000fa
:040148005406000059
:020000040000fa
:04014c005406000055
:020000040000fa
:040150005406000051
:020000040000fa
:04015400540600004d
:020000040000fa
:040158005406000049
:020000040000fa
:04015c005406000045
:020000040000fa
:040160005406000041
:020000040000fa
:04016400540600003d
:020000040000fa
:040168005406000039
:020000040000fa
:04016c005406000035
:020000040000fa
:040170005406000031
:020000040000fa
:04017400540600002d
:020000040000fa
:040178005406000029
:020000040000fa
:04017c005406000025
:020000040000fa
:040180005406000021
:020000040000fa
:04018400540600001d
:020000040000fa
:040188005406000019
:020000040000fa
:04018c005406000015
:020000040000fa
:040190005406000011
:020000040000fa
:04019400540600000d
:020000040000fa
:040198005406000009
:020000040000fa
:04019c005406000005
:020000040000fa
:0401a0005406000001
:020000040000fa
:0401a40054060000fd
:020000040000fa
:0401a80054060000f9
:020000040000fa
:0401ac0054060000f5
:020000040000fa
:0401b00054060000f1
:020000040000fa
:0401b40054060000ed
:020000040000fa
:0401b80054060000e9
:020000040000fa
:0401bc0054060000e5
:020000040000fa
:0401c00054060000e1
:020000040000fa
:0401c40054060000dd
:020000040000fa
:0401c80054060000d9
:020000040000fa
:0401cc0054060000d5
:020000040000fa
:0401d00054060000d1
:020000040000fa
:0401d40028050000fa
:020000040000fa
:0401d80064050000ba
:020000040000fa
:0401dc00a00500007a
:020000040000fa
:0401e000dc0500003a
:020000040000fa
:0401e40018060000f9
:020000040000fa
:0401e80054060000b9
:020000040000fa
:0401ec0054060000b5
:020000040000fa
:0401f00054060000b1
:020000040000fa
:0401f40054060000ad
:020000040000fa
:0401f80054060000a9
:020000040000fa
:0401fc0054060000a5
:020000040000fa
:0402000054060000a0
:020000040000fa
:04020400540600009c
:020000040000fa
:040208005406000098
:020000040000fa
:04020c005406000094
:020000040000fa
:040210005406000090
:020000040000fa
:04021400540600008c
:020000040000fa
:040218005406000088
:020000040000fa
:04021c005406000084
:020000040000fa
:040220005406000080
:020000040000fa
:04022400540600007c
:020000040000fa
:040228005406000078
:020000040000fa
:04022c005406000074
:020000040000fa
:040230005406000070
:020000040000fa
:04023400540600006c
:020000040000fa
:040238005406000068
:020000040000fa
:04023c005406000064
:020000040000fa
:040240005406000060
:020000040000fa
:04024400540600005c
:020000040000fa
:040248005406000058
:020000040000fa
:04024c005406000054
:020000040000fa
:040250005406000050
:020000040000fa
:04025400540600004c
:020000040000fa
:040258005406000048
:020000040000fa
:04025c005406000044
:020000040000fa
:040260005406000040
:020000040000fa
:04026400540600003c
:020000040000fa
:040268005406000038
:020000040000fa
:04026c005406000034
:020000040000fa
:040270005406000030
:020000040000fa
:04027400540600002c
:020000040000fa
:040278005406000028
:020000040000fa
:04027c005406000024
:020000040000fa
:040280005406000020
:020000040000fa
:04028400540600001c
:020000040000fa
:040288005406000018
:020000040000fa
:04028c005406000014
:020000040000fa
:040290005406000010
:020000040000fa
:04029400540600000c
:020000040000fa
:040298005406000008
:020000040000fa
:04029c005406000004
:020000040000fa
:0402a0005406000000
:020000040000fa
:0402a40054060000fc
:020000040000fa
:0402a80054060000f8
:020000040000fa
:0402ac0054060000f4
:020000040000fa
:0402b00054060000f0
:020000040000fa
:0402b40054060000ec
:020000040000fa
:0402b80054060000e8
:020000040000fa
:0402bc0054060000e4
:020000040000fa
:0402c00054060000e0
:020000040000fa
:0402c40054060000dc
:020000040000fa
:0402c80054060000d8
:020000040000fa
:0402cc0054060000d4
:020000040000fa
:0402d00054060000d0
:020000040000fa
:0402d40054060000cc
:020000040000fa
:0402d80054060000c8
:020000040000fa
:0402dc0054060000c4
:020000040000fa
:0402e00054060000c0
:020000040000fa
:0402e40054060000bc
:020000040000fa
:0402e80054060000b8
:020000040000fa
:0402ec0054060000b4
:020000040000fa
:0402f00054060000b0
:020000040000fa
:0402f40054060000ac
:020000040000fa
:0402f80054060000a8
:020000040000fa
:0402fc0054060000a4
:020000040000fa
:04030000540600009f
:020000040000fa
:04030400540600009b
:020000040000fa
:040308005406000097
:020000040000fa
:04030c005406000093
:020000040000fa
:04031000540600008f
:020000040000fa
:04031400540600008b
:020000040000fa
:040318005406000087
:020000040000fa
:04031c005406000083
:020000040000fa
:04032000540600007f
:020000040000fa
:100400004f0b21000eff27000e0188000000200086
:100410000000e000020032000001200020028800fd
:1004200014000700220207000000e00003003a0069
:10043000005b2200010020000200370000002000c5
:1004400001002000810f70004220ae000f00070065
:10045000000020000000e0004220ae00000002008a
:1004600000000000e8240200000000000040da0064
:100470000000fe00e00420000000e0000200320066
:10048000002020009001880000000600a1028800e2
:10049000800478000000eb001f003700e284440075
:1004a00054a0b4009905ba00e284440054a0b400fa
:1004b0009906ba00e284440054a0b4000006eb00a0
:1004c000476fde00fd07b200ae018800636ce100fb
:1004d00003003a000ad801000000eb000e003700cc
:1004e000606ce10008003a00004deb000a05e800ee
:1004f000020039003420ec000af0a0008b05e9006e
:10050000f9ff3e00040037006168e100010032009d
:100510000086eb000b00070019c7ba001905ba00e6
:100520000e04e00003003a000a00e000dbff3a009e
:1005300000000600fe07b200ae0288008a047800c0
:10054000f5ff37000cd0a300e20f4d001c003b006c
:1005500089027800354dba000a05e800020039002a
:100560003420ec000af0a0008b05e9000f003200f7
:10057000254dba000a05e800020039003420ec00dd
:100580000af0a0008b05e900080032000c00e00032
:100590000600320015cdba000a05e8000200390055
:1005a0003420ec000af0a0008b05e9008984e80003
:1005b00054a0b4000b00e000e2ff3a000000060087
:1005c0009902ba00055d78008b05e900f7ff32005b
:1005d000c82ade00055d78008b05e900f3ff3200d4
:1005e0000c00e000f1ff320019ddba00eeff370029
:1005f0006100e10001003200100005005400f80025
:1006000050102000a002880000f927001000ba0056
:100610005400f9000700260000f0a6008703d1006f
:100620000703780001c4fe000003eb000120200056
:1006300091018800618e2a00111303008703e900ed
:10064000fdff3a0000f0a7000000050000f0a00048
:1006500080c4fe0086037800f3ff37000408200002
:10066000010037000002eb006100e10001003200f0
:10067000100005003200f8003400f8008102780014
:10068000930188003200be000100e0000c0032003f
:100690000470a70000f0a00032037800c733de002a
:1006a000848343004220af008703e800a70188004d
:1006b000f607b2007f30e100040032002000200085
:1006c0003400f9003200f900000006008100e90062
:1006d0000500e00003003a00018009003210030029
:1006e000e8ff37000180090032900300d561ae00b9
:1006f000e4ff370030002000f1ff370050052000f4
:10070000b00e8800a00a2000b00e8800d3e1a80037
:100710000000060050052000b00e8800a00a20004e
:10072000b00e8800d3e1a90000000600c02004003c
:100730000000000094280400000000001a210400ba
:1007400000000000342104000000000066210400c5
:10075000000000009421040000000000c4210400f7
:1007600000000000d021040000000000f621040079
:1007700000000000da2104000000000088240400ca
:10078000000000007c1e040000000000aa1e0400ff
:1007900000000000dc1e040000000000f01e040049
:1007a00000000000041f040000000000181f0400e7
:1007b000000000002c1f0400000000003600f800bc
:1007c000809fbe00829fbe00849fbe00869fbe00a9
:1007d0000000fa00c028a9000000eb006f1207001b
:1007e0000080fa004f03be004f02be004f01be0062
:1007f0004f00be003600f900004006003600f80049
:10080000809fbe00829fbe00849fbe00869fbe0068
:100810000000fa0066120700c048a900100020007e
:100820005e1207000080fa004f03be004f02be00b8
:100830004f01be004f00be003600f9000040060028
:100840003600f800809fbe00829fbe00849fbe00dd
:10085000869fbe000000fa00c068a90020002000aa
:100860004e1207000080fa004f03be004f02be0088
:100870004f01be004f00be003600f90000400600e8
:100880003600f800809fbe00829fbe00849fbe009d
:10089000869fbe000000fa00c088a900300020003a
:1008a0003e1207000080fa004f03be004f02be0058
:1008b0004f01be004f00be003600f90000400600a8
:1008c0003600f800809fbe00829fbe00849fbe005d
:1008d000869fbe000000fa00c608a9007000200034
:1008e0002e1207000080fa004f03be004f02be0028
:1008f0004f01be004f00be003600f9000040060068
:100900003600f800809fbe00829fbe00849fbe001c
:10091000869fbe000000fa002146800000102000e3
:10092000008060000000e00003003200c508a9005c
:10093000c00020001912070021468000000220009c
:10094000008060000000e00003003200c4a8a9009d
:100950009000200011120700204680007000600007
:100960000000e00003003200c488a900a0002000bd
:100970000a12070020468000610060000000e000cd
:1009800003003200c408a900b000200003120700d1
:10099000ffff37003600f800809fbe00829fbe0038
:1009a000849fbe00869fbe000000fa00e0808000a9
:1009b0000000e00002003200e08080000000010042
:1009c000100b2100104078008040e800100b21003f
:1009d00001487800000b210011c0b30001487800e5
:1009e0000028a9000080fa004f03be004f02be009d
:1009f0004f01be004f00be003600f9000040060067
:100a00003600f800809fbe00829fbe00849fbe001b
:100a1000869fbe000000fa00014080000004200014
:100a2000008060000000e00002003200d20f0700ea
:100a300000c8a9000080fa004f03be004f02be00ac
:100a40004f01be004f00be003600f9000040060016
:100a50003600f800809fbe00829fbe00849fbe00cb
:100a6000869fbe003200f8003400f800100020001d
:100a7000a00188000020200000d0fe000200fa0043
:100a800061618000010f7800208080000000e0009c
:100a900003003200218080001e0078000100010068
:100aa0000d68a9000080fa003400f9003200f90056
:100ab0004f03be004f02be004f01be004f00be00fc
:100ac0003600f900004006003600f800809fbe00a6
:100ad000829fbe00849fbe00869fbe003200f80049
:100ae0003400f80010002000a00188000020200041
:100af00000d0fe000200fa0071618000010f780052
:100b0000308080000000e00003003200318080006f
:100b10001e007800010001000d88a9000080fa0085
:100b20003400f9003200f9004f03be004f02be004e
:100b30004f01be004f00be003600f9000040060025
:100b40003600f800809fbe00829fbe00849fbe00da
:100b5000869fbe003200f8003400f800100020002c
:100b6000a00188000020200000d0fe000200fa0052
:100b700081618000010f7800408080000000e0006b
:100b800003003200418080001e0078000100010057
:100b90000da8a9000080fa003400f9003200f90025
:100ba0004f03be004f02be004f01be004f00be000b
:100bb0003600f900004006003600f800809fbe00b5
:100bc000829fbe00849fbe00869fbe003200f80058
:100bd0003400f80010002000a00188000020200050
:100be00000d0fe000200fa0091618000010f780041
:100bf000508080000000e00003003200518080003f
:100c00001e007800010001000dc8a9000080fa0054
:100c10003400f9003200f9004f03be004f02be005d
:100c20004f01be004f00be003600f9000040060034
:100c30003600f800809fbe00829fbe00849fbe00e9
:100c4000869fbe003200f8003400f800100020003b
:100c5000a00188000020200000d0fe000200fa0061
:100c6000a1618000010f7800608080000000e0003a
:100c700003003200618080001e0078000100010046
:100c80000de8a9000080fa003400f9003200f900f4
:100c90004f03be004f02be004f01be004f00be001a
:100ca0003600f900004006000040da000000fe00b7
:100cb000000005006011b8000201370003836800de
:100cc0000700280007036300470ade000480a10034
:100cd000c71ade000580a100f70f20000720e10001
:100ce000420032000728e10040003200889fbe0029
:100cf0008a9fbe008c1f7800f107b200f307b20094
:100d00000400e000640032000170a0000500e00073
:100d1000680032000370a00085054200eb07b100b7
:100d20000204b8000302b8008484440060854a00cd
:100d3000020ab800848444000a854a00030ab80005
:100d400004054500040033000804d0008984d20063
:100d50000a85d2008b05e9006158e1003d003500ad
:100d60000210200009016100030820008981610050
:100d7000f70720008783640008867300c84cde00f4
:100d8000c853dd00878474004855de000300e0008e
:100d90000600320082037600040032008904e80075
:100da00060054d000a88a3000c003a00f70f2000f0
:100db0000758e10044003d000a70a100c75ddd0056
:100dc0000a8575008a007300090078004f067800d4
:100dd0004f05be004f04be00000006000a05d1000a
:100de0008984d3008b05e800f0ff3700881f780066
:100df0000604780090000700070278000001fd005b
:100e00008101fd008c0007008702780085037200d5
:100e10000778a300050032000001fd008101fd00fc
:100e20009f0007004f047800000006008503720051
:100e30000748a30003003200f0ff2f00f1ff270056
:100e4000f8ff37000000200001f8270088807000bc
:100e5000f4ff3700880178004848dd008081710088
:100e60004848de00c850dd0001007000c850de00b8
:100e7000060478000b0178001600070088807000d7
:100e8000d2ff37000500e000050032001700200007
:100e90003a0007009dff370081037000f9ff3a0018
:100ea000860078004f0678004f05be004f04be0054
:100eb0000000050083037100f9ff320027002000c5
:100ec0002e00070094ff370001f82700868070008d
:100ed000f4ff37000100e00026003200610111003c
:100ee0007810e10023003c006022b8007010e1009f
:100ef0000400350080027800010078008000eb00db
:100f0000700151000200e00009003400700311007c
:100f1000062add00822ade008603dd008782720059
:100f20000200de00860bdd00070070008208de0094
:100f300084817100f4ff27000482620084817100c3
:100f400004002800848262006102600005f0a600af
:100f50000000060004827100070032000000e80073
:100f6000e0804800000006000002be006000b800fb
:100f7000efff37006000b80000000600889fbe0049
:100f80000004eb006138e10016003a000100e000c7
:100f900008003a00c800de004800dd00880020009c
:100fa0000100e00003003a00c800de004800dd0058
:100fb000680444008184cf00e984540006003400b2
:100fc0008908dd00f08314008703de00878070004d
:100fd0000900dd0009044400610214004f04be0052
:100fe000000006000300e00008003a00c811de001f
:100ff0004811dd00880020000300e00003003a00f3
:10100000c811de004811dd00680444008384cf006d
:10101000e9845400060034008919dd00f0831400cf
:101020008713de00878171000911dd000904440087
:10103000e1021400e9ff37002700200001f0a700bb
:1010400017002000470bde00f60fb200040032004c
:101050000643e8000a0032004702b3000000060021
:1010600001037800f607b2000603700002003a00a0
:101070000703b300000006008702b300000006006b
:1010800001037800f607b200060370000200320088
:101090000770a000000006000760a0000000060026
:1010a0000478a300040032000578a3000300320096
:1010b0000168a30001003a000200be000160a00028
:1010c00000000600889fbe008a9fbe00008270005c
:1010d0000402710004827100260032000004be0088
:1010e0000200be006011b8006b09200095022000cc
:1010f0000182cf000a0039000541b1000082cf0013
:10110000070039000541b1000982cf000400390011
:101110000541b1000882cf00010039000541b1004e
:1011200005425200120032000a003b008281710029
:10113000610164008100d1000080d3008984d30064
:101140000884d3008b05e8000442e800f7ff3a006a
:10115000070037000804440089844c000000480060
:10116000818048008b05e9000442e900f9ff3a005c
:10117000030007004f05be004f04be00000006003c
:1011800081002000618055000b003d000b00200015
:1011900061fe2f000100e1001d003400828171001a
:1011a000610164008904d1000884d3000000e800d4
:1011b000faff3a0071002000610064000300700033
:1011c000020060000900320061044400e0844c0029
:1011d0000988a500050032008b05e8006808e100d9
:1011e00002003a008904d1000884d300f20f2000e5
:1011f0000258e10005003d00c75ddd00f907b200bf
:101200008980750008007800000006000bf82700b0
:101210008b007800000005000000fa00688157008c
:10122000cfb89700d60207000080fa000000060041
:1012300002000700d6023700000006002f04b000ad
:10124000889fbe008a9fbe008c9fbe008e1f7800c4
:10125000b09f9f00a1a79f00a37f9f00110078006f
:10126000d0a79f0091009000f1a79f00afa1970029
:10127000a3019000c3a79f002fa2970044029000f3
:10128000a49f9f00afa29700350790003204be00d4
:101290002205be006022b8006033b8000800be001e
:1012a0000a01be006e0607000000e00003003d00da
:1012b0000bf0a200d0c2b300040037005fa3970078
:1012c0000628a30008003200b0c2b300004f780027
:1012d000cfa397008703e90087af9f00100020008d
:1012e000e0a79f000f003700dfa097000138a300a0
:1012f0000800320000c2b300004f78004fa19700f1
:101300000201e90082af9f0013002000e3a79f00c5
:10131000040037004fa2970084af9f008002eb00cb
:10132000e5a79f000800be000a01be00c2ff07003b
:10133000f4ff2f00f5ff2f00f6ff2f00f7ff270027
:1013400004026000858260000603610087836100fb
:101350006000b8000200200003ff27000020e10029
:1013600001a8e10002b0e10003b8e10010003a007a
:101370002f7b97008600fb001104b100efa39700bc
:1013800007004700f98f500002003e00010a2100cb
:1013900001003700410a21002c050700400a210006
:1013a00031050700efa0970001014000140037004d
:1013b0000020e10001a8e10002b0e10003b8e10073
:1013c000120036002f7997008200fb001104b10053
:1013d000efa1970003004700f98f500002003e0084
:1013e000810a210001003700c10a2100170507000a
:1013f000c00a21001c0507006fa2970004014000ed
:101400005fa29700cfa19700490237006022b80081
:101410006033b8000800be000a01be0010060700d5
:101420000000e000680032006000b8000200200008
:1014300003ff2300d0af9f00e1af9f00f2af9f00fa
:1014400083b79f008006eb000802be000a03be00bf
:1014500094b79f00a5b79f00b6b79f00c7b79f007e
:10146000070037008d06e8000800be000a01be0034
:10147000d0af9f00e1af9f00f2af9f0083b79f0006
:101480006022b80006002000470224005fa89700f1
:10149000efa897007fa997008fb19700600707001a
:1014a0000004be000205be000002be000203be0032
:1014b0001fb09700afb097003fb19700cfb1970032
:1014c000e70507000000e000e6ff3d000006eb0036
:1014d0005fac9700efac97007fad97008fb597009a
:1014e0002500370040ed2f00808f560019003d0089
:1014f0000c00e00016003a006022b8000600200050
:10150000073524001fb09700afb097003fb1970098
:10151000cfb19700420707000002be000203be00e1
:1015200094b79f00a5b79f00b6b79f00c7b79f00ad
:101530006022b80006002000073524000800be0025
:101540000a01be00360707000004be000205be0007
:101550001c0020006022b800060020004702240082
:101560000800be000a01be007e0607000004be009f
:101570000205be008d06e9000802be000a03be0097
:101580001fb09700afb097003fb19700cfb1970061
:10159000b30507000000e000d2ff35000800be00e0
:1015a0000a01be00d0af9f00e1af9f00f2af9f00e5
:1015b00083b79f001fb49700afb497003fb5970063
:1015c000cfb59700080037006022b8000600200061
:1015d00007ff2300d4af9f00e5af9f00f6af9f0049
:1015e00087b79f008006eb00af7a97000500fb00ed
:1015f000b5040700b07f9f007fa397006000200024
:101600000600e000010035007fa0970071c6b3001e
:10161000bf7b970081cf53000a003a00ffa09700dc
:101620000100e000cb013200cb0137008d0f5000ec
:10163000cf013c0090b79f0052c6b300e2cf9f009d
:101640001e003700bf799700e3cf9f0002003700ec
:1016500064c6b300e4cf9f000000e80090b79f008d
:1016600060c6b300efca970080cf520013003a0063
:101670000d00e00008003d006000b80002002000fe
:1016800003ff2300d0af9f00e1af9f00f2af9f00a8
:1016900083b79f008006eb0061c6b300e1cf9f00d7
:1016a00070c6b3003f799700804f510003003200ad
:1016b0009fb197008d81410093b79f005faa97006b
:1016c000efaa97007fab97008fb39700d4b79f0026
:1016d000e5b79f00f6b79f0087bf9f000800be00d8
:1016e0000a01be0090af9f00a1af9f00b2af9f0064
:1016f000c3af9f000006eb000802be000a03be0055
:10170000e49f9f00f59f9f0086a79f0097a79f00db
:10171000310037005fb29700efb297007fb39700b8
:101720008fbb97001fa89700afa897003fa997000d
:10173000cfa997000b060700630807000004be004e
:101740000205be006f05070080027800b5a79f0064
:101750005fb29700efb297007fb397008fbb9700ff
:101760000800be000a01be00ad0607001faa9700d0
:10177000afaa97003fab9700cfab9700a805070033
:101780000002be000203be0007f0a20094af9f005b
:10179000a5af9f00b6af9f00c7af9f006022b80003
:1017a00006002000470224005fb09700efb09700ca
:1017b0007fb197008fb99700ea0507000002be00cd
:1017c0000203be00d4b79f00e5b79f00f6b79f00a5
:1017d00087bf9f000c06e8009fb29700850f560058
:1017e000ccff35006f9c9700ff9c97000fa59700da
:1017f0009fa597006022b800060020004701240042
:101800005fb09700efb097007fb197008fb9970056
:10181000830607000002be000203be00d4b79f008b
:10182000e5b79f00f6b79f0087bf9f001fa89700ee
:10183000afa897003fa99700cfa997000805070018
:101840000000e0000f0035005fb29700efb2970094
:101850007fb397008fbb97001fa89700afa8970092
:101860003fa99700cfa99700fd0407000000e00002
:1018700011003a00bfa297000508a300080032003b
:101880000d0037006000b8006011b800d0b79f00ad
:10189000e1b79f00f2b79f0083bf9f0006003700ab
:1018a0006022b8006033b800d4b79f00e5b79f004e
:1018b000f6b79f0087bf9f005fb29700efb2970017
:1018c0007fb397008fbb97000800be000a01be00df
:1018d000590507000002be000203be0094af9f003e
:1018e000a5af9f00b6af9f00c7af9f006022b800b2
:1018f00006002000470224005fa89700efa8970089
:101900007fa997008fb19700450607000004be002d
:101910000205be000002be000203be001fa8970021
:10192000afa897003fa99700cfa99700d10407005f
:101930000000e000090035008d06e80060c6b30035
:10194000efca970080cf520008003a001fb39700fb
:101950000603e80096b79f00110037005fac9700c0
:10196000efac97007fad97008fb5970050c6b300de
:101970006fc99700804f510009003a000802be006d
:101980000a03be00d4b79f00e5b79f00f6b79f00db
:1019900087bf9f008002eb00d5af9f000700370094
:1019a0000800be000a01be00d0b79f00e1b79f004b
:1019b000f2b79f0083bf9f00ddaf9f006fa6970027
:1019c0000001eb00b2a79f00c29f9f00e29f9f0013
:1019d0009d9f9f00680037005fb29700efb29700ad
:1019e0007fb397008fbb97001fa89700afa8970001
:1019f0003fa99700cfa997005a050700b207070033
:101a00000004be000205be00be040700e90f50003e
:101a10000100340090002000dfa197000348a300dc
:101a20000c003a000000e0000a003a0071c6b30062
:101a30003f7a9700814f520006003a00dfaa9700d4
:101a40000500e00003003d003fa397008606e80084
:101a500021003700cf9b97000700e0000c003a0000
:101a6000dfa897000100e00009003d000c014700dd
:101a7000e1c2b300014978000c06e8000fa9970005
:101a80000201e90082af9f0013002000c39f9f0066
:101a90000c014700bfa697000300370001c3b30045
:101aa000015978008d06e9000d00e000fbff3a00c7
:101ab0003fa29700040646008c00470005c3b30010
:101ac000854840000c06e8000480ea000fab970050
:101ad0000003430086af9f005fb29700efb297000c
:101ae0007fb397008fbb97000800be000a01be00bd
:101af000cb0507001faa9700afaa97003fab97003e
:101b0000cfab9700c60407000002be000203be0070
:101b100007f0a20094af9f00a5af9f00b6af9f0053
:101b2000c7af9f006022b8000600200047022400d3
:101b30005fb09700efb097007fb197008fb9970023
:101b4000080507000002be000203be00d4b79f00d4
:101b5000e5b79f00f6b79f0087bf9f00dfaa9700f9
:101b60008502e900d5af9f006f9b97000603e80050
:101b7000e69f9f00bda79f00ef9b97001fb09700b7
:101b8000808f530005003d00afa0970041009000fa
:101b900065005000800f56008fff39009f9e970010
:101ba0004f9997000200e00007003a00dfa197007c
:101bb0000348a300040032000c004700e1c2b30058
:101bc000014878000c06e8000c0047000048eb00d4
:101bd00051c6b3006fca9700814f520036003a00d9
:101be000af9a97008500e900010147000049eb002a
:101bf0008001eb000d00e00002003d008d06ea00d0
:101c00001300200022002000810378008faa970093
:101c1000000478000b0037008103780007034700b9
:101c2000a4002000050009008406d8000102780005
:101c30008006780000c3b300004b42000201e900b7
:101c40008502e9008700e9000d00e000f2ff3a009c
:101c50000200e000f0ff3c0085af9f000800780024
:101c600001024700b2c2b3000300e00001003200ed
:101c7000d2c2b300024a78000101e90082004700a5
:101c8000af7997000302fb001404b10053c6b30000
:101c9000f90f520001003e0053c4b300834878009e
:101ca0000faa97000482e90084af9f00820f5600bc
:101cb00001003d00e5020700dfa29700638062009b
:101cc000e20f500015003a000fab97000600e0004d
:101cd000120034000e007800e3020700060037000f
:101ce0008fab9700870047008080400000014700cd
:101cf000924878000000e900efa09700810f5000a3
:101d0000f7ff3d00010047000fa9970001032000e5
:101d10006a0207000001eb00c2a79f000e007800d6
:101d2000d10207005fa29700cfa1970000017800c1
:101d30008e0078003f989700470007004f07780013
:101d40004f06be004f05be004f04be002f04b10079
:101d50000000060010002000e48f460033fe3d0026
:101d600090b79f0053c6b300e3cf9f0053fe3700e8
:101d70000d00e00036fe350090b79f0046fe3700ac
:101d80008201780001017800f1ff2700d5023700b9
:101d9000881f78000004780000082000808f500021
:101da0001700350010082000808f50000b00340011
:101db00030082000808f500011003a009200780017
:101dc00068805000000978003002be002003be0089
:101dd000049cbe000694be00070037009202780003
:101de00064805200000978001000be00a6030700be
:101df000009cbe000294be001000200001003700cd
:101e00000000eb004f04780000000600889fbe0031
:101e1000000478004800900082047800808f54000d
:101e20000100360080047800090178005800900015
:101e30001b02070058009000090040005004980061
:101e4000c800900089845000490498000048eb00c5
:101e50004f04be0000000600f2874700889fbe00c6
:101e60008a9fbe008c9fbe008e1f78008004780081
:101e7000010578000204780083057800610762009c
:101e800002003a008b0f5400080039000801780066
:101e90008a00780009007800dcff07008b0f5400ef
:101ea00002003900880578001e00370008865500ba
:101eb0000c017800f00f56000100360002012000ee
:101ec000010220007e805700fc0107008c0678008c
:101ed0000500370002012000fe805700090078004d
:101ee000caff0700f0865600ef8f5600f9ff3e004c
:101ef0004461de0000ff2f008091b9000c01410019
:101f0000fe80570009007800c0ff07000e00e000c7
:101f100004003a00080178008a007800090078007f
:101f2000baff07000b0078004f0778004f06be008d
:101f30004f05be004f04be002f01b1000000060097
:101f40000000050000000500000005000001780009
:101f50000040eb008080fb0081804000a30821004e
:101f600081814100134278000404e00004003a003b
:101f7000b0082100810040001140780000000600f8
:101f800092017800934f520005003a00b0082100fa
:101f900081004000114078000309e800010037008b
:101fa0000040e800ea4f5000eaff3600000006005b
:101fb000f6874700889fbe008a9fbe008c9fbe00a8
:101fc0008e1f7800000578000104780083057800f2
:101fd000040678000000eb00c0b79f008080eb0093
:101fe000d1b79f00e0b79f00f2b79f000008200024
:101ff00080bf9f0098007800010078008004eb000b
:10200000010037008904e800304178000204e00054
:102010000300320053c2b300834f5100f9ff3a006e
:102020000900e00004003200090178000a0078008d
:1020300076ff0700188c44001807780050c2b300e0
:102040009e4f10003f013a000e07e8000e0c78008a
:1020500010003700cfb097000100a0000b00370040
:10206000cfb097000110a00008003700cfb0970054
:102070000120a00005003700cfb097000130a0007c
:1020800002003700cfb097000140a000c1b79f0009
:10209000000ce8001800780090407800b2c2b3004d
:1020a00082cf5000f1ff320007003c0002c2b300b3
:1020b00082cf5000f0ff320032c2b30082cf500016
:1020c00007003a00efff3700d2c2b30082cf5000c2
:1020d000e0ff320002c3b30082cf5000e0ff3200c5
:1020e000a2c2b30082cf50000d003a00000ce800fd
:1020f0001c80e900000e780010007800e0b79f0017
:102100000000e0000f003d00cfb097000100a200ea
:10211000c1b79f000000ea00e0b79f000900370048
:1021200039010700e0b79f0001003700000ce8000c
:10213000180078009000fb000103b100e98f500007
:10214000faff36004fb097000008a30002003200eb
:102150000010a100c0b79f0018007800e1c2b300d2
:1021600090cf100016003a008000eb00d1b79f001e
:102170000000e800000c7800a1c2b30090cf10006e
:1021800006003a00000ce8001c80e900000e780010
:1021900010007800d0b79f00090037001a0107002f
:1021a000d0b79f0001003700000ce800180078004d
:1021b0009000fb000103b100e98f5000faff3600e8
:1021c0000800780061ff070080467800180078005a
:1021d0001000fb00bc01070091062000810f500099
:1021e0003800320012003c0041062000810f5000f0
:1021f000340032000a003c0011062000810f50001c
:102200002000320031062000810f5000a000320073
:1022100051022000810f5000bc003a00b40037008a
:1022200071062000810f5000b8003c008800370084
:1022300001072000810f50005c00320007003c00c5
:10224000e1062000810f50007a003200f1062000e4
:10225000810f5000ad003a003900370051072000cf
:10226000810f50002700320081072000810f5000ad
:102270004200320031072000810f5000a3003a00d5
:102280008f0037008d80fb000c01780000fe2f00ce
:102290000f004000befe07000000e000a800320072
:1022a00018007800000ce8009041780002fe2f0032
:1022b0000f014100f88057000a00780021ff070055
:1022c0000e0037008d80fb008c017800120020008a
:1022d00000fe2f000f004000a70107000000e000f3
:1022e00097003200180ce80002fe2f000f01410099
:1022f000f88057000a00780011ff0700808444002e
:10230000900037008d80fb008c0178000001eb000d
:1023100000fe2f000f004000970107000000e000c2
:1023200087003200180ce80002fe2f000f01410068
:10233000f88057000a00780001ff0700efff370020
:102340008d80fb008c0178000001eb0000fe2f0067
:102350000f004000880107000000e0007800320014
:10236000180ce80002fe2f000f014100f880570012
:102370000a007800f2fe0700e0ff37008d80fb00c6
:102380008c0178000001eb0000fe2f000f004000e0
:10239000790107000000e0006900320018007800b1
:1023a000000ce800904178001c0037008c01780098
:1023b0000001eb00010f200000fe2f000f00400085
:1023c0006d0107000000e0005d003200180ce8001d
:1023d0000fb097009fb097002fb19700bfb1970043
:1023e000e00f5000e08f5800e00f5900e08f5900d7
:1023f00009003a00cfb597006fb49700200821007c
:10240000190107000b0278008801780000017800ac
:10241000210821004700370083c7b30002fe2f00c8
:102420000f014100f88057000a007800c5fe070040
:10243000b2ff37000b8144008d80fb008c017800d7
:1024400000fe2f000f0040009f0107003c003700f6
:102450008d80fb000c01780000fe2f000f00400073
:102460004bfe07000000e000350032001800780045
:10247000000ce8009041780002fe2f000f0141009f
:10248000f88057000a0078006cfb07009bff3700bc
:1024900000c8b30080cf560029003a00180ce800ad
:1024a0001c80e900000e780010407800e0df9f00fb
:1024b00013002000e2fd2f000f014100080037004b
:1024c00000c8b30080cf56001d003a00180ce80089
:1024d0001c80e900000e78008001eb0010017800fc
:1024e000f88057000a00780097fe070083ff370046
:1024f00000c8b30080cf560011003a00180ce80065
:102500004fb29700efb19700080037000e0c78002b
:102510000000eb00c0b79f00e0b79f000080eb0019
:10252000d0b79f000002eb00840178001200200069
:10253000810821000a00780047fe07006fff37007e
:10254000180ce800090078004f0778004f06be001d
:102550004f05be004f04be006f01b1000000060031
:102560008200fa00889fbe008a1f7800000578006c
:1025700082047800c13f9f000004eb001000370088
:102580000902780088017800a2f72f000f014100ae
:1025900081f72f008f8040000a00780084fe07003a
:1025a00008004000880f500004003d00b0042000e7
:1025b000908588000084eb00040037000004780058
:1025c0004f3897001004e000edff3a000800780053
:1025d0004f0578004f04be000080fa00000006009e
:1025e000800078001000200002022000828f50003e
:1025f00004003200e9805000e48f500001003600f2
:102600000000eb0000000600889fbe008a1f7800d3
:10261000000578000a047800984478000805e8006e
:102620000900fb00eeff07000000e000f9ff3a00a0
:10263000b0c2b30080cf540005003200d0c2b30056
:102640008000eb0080cf540005003a000200370004
:102650008000eb0001003700110020000804e800b2
:102660000000eb0003003700ea00b9000200500050
:102670000003b0003801fb0003fd2f008281410000
:10268000e98f5100f8ff36000100e00001003a0038
:102690000000ea004f0578004f04be00000006006d
:1026a0008001780002003700b15978000201e9008a
:1026b0000200e000fcff3a0000000600889fbe0018
:1026c0008a9fbe00800478000200e0005b003200b8
:1026d00001407800814c780082814400f1f99f002c
:1026e000e20f51005500360091449800a144980033
:1026f000e1f99f00d1f99f00e60f51004f0036002d
:10270000b1449800c1f99f00e80f51004b0036001a
:102710000905ea00630565000a8444000a055100c2
:10272000c1ff2f00010565000080fb008000eb0069
:102730001210200013102000b3010700008cbe000f
:102740000a01440060b99f0071b99f00e80f55006d
:102750003a003600200498003104980040049800a4
:102760005104980020b99f0031b99f0040b99f00e3
:1027700051b99f00f80f55003000360060049800f2
:1027800071049800000c9800110c9800200c98001f
:10279000310c9800400c9800510c980020b19f001b
:1027a00031b19f0040b19f0051b19f0060b19f00c7
:1027b00071b19f0000b99f0011b99f0064016400ce
:1027c0007801410002044400020555006011b80080
:1027d0000203be000002be000403be006022b80077
:1027e0000000720081807200020173008381730017
:1027f00010003700009cbe000294be004004980008
:10280000510498006204980073049800000c98002a
:10281000110c9800220c9800330c9800400c980082
:10282000510c9800620c9800730c98000a02b100d9
:102830000802b000ff0f5500eeff3e0009007800cf
:102840004f05be004f04be0000000600881f780040
:102850000004780008007800d30007000800780022
:102860004f04780000000600800078000400370064
:102870003104e00002003a000000510000000600b0
:10288000010178000108a300f9ff3a0081017800f6
:1028900031017800f4ef2f00020242000281ea00c9
:1028a000020162000408280004016100f7ff320001
:1028b00083007800010178003104e000fdff3a0058
:1028c0000000510000000600f1fb2f008080400056
:1028d000f98f500001003e000050a00000000600eb
:1028e000f9ff3700f28747008e1f78000202780058
:1028f000030178000000e0000200320000077800c9
:1029000001003700728757008002eb000100e000f1
:10291000010032008102e9007080570006000900c2
:102920000018eb000080eb0080bf9f002310200008
:1029300093bf9f00aebf9f00b1bf9f00c5bf9f0068
:102940000100e00003003d00b104200091858800f3
:1029500006003700004feb00eebf9f00debf9f0078
:102960008400780070805700af0007004f077800a0
:102970002f01b1000000060084082000848f500061
:102980001d0032000d003c0014082000848f500010
:102990002700320002003c00040820000400370039
:1029a00024082000848f50003400320044082000a6
:1029b000848f500043003a0036003700040a20009c
:1029c000848f50002700320004003c0004092000de
:1029d000848f50003b003a0028003700020c200092
:1029e000828f50002f003200020f2000828f500093
:1029f00034003a002b0037009380e9000200e00029
:102a000005003200810978001102fb00cfa2de0030
:102a1000612bb90028003700810978001142780045
:102a20000482fb008002eb006033b8002200370014
:102a300013027800e40052000200e00005003200ba
:102a4000810978001102be004fabde0086037800da
:102a500019003700810978001102be006033b80008
:102a6000150037009380e900810978001102780091
:102a7000cfa2de00612bb9000f003700930278006f
:102a8000e8805200810978003102be002103be00b7
:102a9000090037009380e9000200e00002003200e4
:102aa000f1ff37009380e900810978001102780076
:102ab0008002eb006033b8000498be000690be00b0
:102ac000100005000000050044082000848f50001d
:102ad0002500320008003c0014082000848f5000bc
:102ae0001400320024082000848f5000240032009b
:102af000040820000c00370004092000848f5000d7
:102b00001f00320004003c0084082000848f500025
:102b100024003a000e003700040a2000848f500081
:102b200011003200040c2000848f50001d003a0078
:102b30000d0037009380e90081097800910078004a
:102b400001087800cf91de008288be0014003700b3
:102b50009380e900810978009100780001087800ed
:102b6000824878000e0037009380e90081097800e0
:102b7000910078000108780082087800080037008a
:102b80009380e900810978009100780001087800bd
:102b90006112b900612bb9008498be008690be0016
:102ba0001000050000000500010178008001780098
:102bb000008268000408a3000500320013003700fb
:102bc00032407800805978000004e00014003200a0
:102bd000030278000208a300f9ff3a00030078001e
:102be000010037000318780082007800b2017800f5
:102bf000f5ef2f00838242000382ea000482620024
:102c00000508280005026200f6ff32000002780085
:102c100031417800025878000204e000fbff3a00de
:102c200004007800000006000200fa00881f780007
:102c300000047800e2bf9f0064815700080078001c
:102c400047fe0700980090000148a30001003200f1
:102c50000080eb004f0478000080fa0000000600be
:102c60008f1fd1008f0207008f87e9000000e0006e
:102c700000000600809feb008a0207008f87e900b2
:102c80000000e00000000600810378004900070012
:102c90000001be006000b8000478a30013003a00f1
:102ca0006220e10015003e000d0039008301d100d3
:102cb0000281d3008180d3008301d1000281d3003f
:102cc0008180d3008301d1000281d3008180d300b1
:102cd0000538b000c42add00f300b2008381720021
:102ce00007f0a70003f0a0000000060083ff270004
:102cf000020020006110b900f9ff370003ff270030
:102d0000f7ff37001400fa00889fbe008a9fbe00bc
:102d10008c9fbe000004be000205be006800470094
:102d20000a90be000890be00990207000070a7003c
:102d30000bf0a100304320009e02900080825200e0
:102d4000b0fe2f000028e10011003d00b0fc2f0074
:102d50000028e100150034001e0990008e08900044
:102d60007e0090000501b0000201d1008180d300f7
:102d70000080d3008502e800fbff3a000b00e00072
:102d8000be023b0060001000e0801800bb0237006c
:102d9000f0ff2f00f1ff27000b00e000b7023b001f
:102da0000100280000002000b40237006000b800d5
:102db000b2023700c70ade00f107b200f50fb20019
:102dc00008003200e1cf4200020032000170a00092
:102dd00024000500810f7000010032000408050086
:102de00044000500810f700002003a001400050045
:102df0008502e9000000400081c04800fcff3b0064
:102e00000170a00024000500020ab900001bb900ef
:102e10000200b8008100420081004300000006006b
:102e20008c9fbe008a9fbe00889fbe00ca0107001b
:102e30000bf0a200040037008c9fbe008a9fbe00ea
:102e4000889fbe00c40107000c48e1000b003a0057
:102e50000c40e100020032008b0107004000370007
:102e60008b066d003e0032000af0a100f301200045
:102e7000f2ff2f006110b900390037000c40e1006b
:102e8000370032000940e100010036007e010700f2
:102e90008a856d00cf5dde000b0575000006eb0036
:102ea0008804fd0089045400010032007d01070000
:102eb0000a04e00011003a000800e0002800320097
:102ec00004004000858048000601490087814900d0
:102ed0000358a300180032008301d1000281d300ff
:102ee0008180d3000080d3000c86d300010039001c
:102ef000610676000804e80018003700040050005e
:102f0000858058000601590087815900060031006c
:102f10000af0a2000c06ea0060001800e080180029
:102f200060011900e081190003003a000004eb0081
:102f30000005eb000a0037000348a30007003a0031
:102f40000c0646000000480081804800020149004c
:102f5000838149000804e900f7ff3700af0137001b
:102f6000c90137008c9fbe008a9fbe00889fbe00ab
:102f7000790107000b056d000940e1000a003a00e5
:102f80000800e000020032000c40e10006003a00b8
:102f90000af0a1000c047800f3012000f2ff2f00da
:102fa0006110b9009d0037000c40e1009b00320029
:102fb0000800e000990032000c48e10002003a00ed
:102fc0000004eb00030037000900e00004003a00b1
:102fd0000c0478006000b8006011b8008f00370062
:102fe0000348a30006003a0000004000818048002a
:102ff00002014900838149000804e900f8ff370015
:103000000748a30006003a000402420085824a00f5
:1030100006034b0087834b008904e900f8ff370063
:10302000fd3f20008d845400090454008a1f78005d
:10303000881f780000047800810478000205780079
:10304000830578006000b8006011b8000d0420000e
:10305000050037000804440089844c000a054d002f
:103060008b854d00080031000404540085845c0009
:1030700006055d0087855d008381d2008d06d30043
:10308000f4ff3b00070037000404440085844c0033
:1030900006054d0087854d008381d2008d06d30043
:1030a000ecff3b000804440089844c000a054d00f5
:1030b0008b854d00080031000404540085845c00b9
:1030c00006055d0087855d000281d2008d06d30074
:1030d000f4ff3b00070037000404440085844c00e3
:1030e00006054d0087854d000281d2008d06d30074
:1030f000ecff3b000804440089844c000a054d00a5
:103100008b854d00080031000404540085845c0068
:1031100006055d0087855d008180d2008d06d300a5
:10312000f4ff3b00070037000404440085844c0092
:1031300006054d0087854d008180d2008d06d300a5
:10314000ecff3b000804440089844c000a054d0054
:103150008b854d00080031000404540085845c0018
:1031600006055d0087855d000080d2008d06d300d6
:10317000f4ff3b00070037000404440085844c0042
:1031800006054d0087854d000080d2008d06d300d6
:10319000ecff3b000b00e00004003d000404440091
:1031a00085844c0006054d0087854d000006eb0028
:1031b0008301d1000281d3008180d3000080d3003d
:1031c0000c86d3008301d1000281d3008180d3001b
:1031d0000080d3000c86d300890474008b05750031
:1031e0008b84740001003200610676004f04780081
:1031f0004f0578000348a30007003a000c0646007c
:103200000000480081804800020149008381490094
:103210000804e900f7ff3700000137001a01370002
:103220008c9fbe008a9fbe00889fbe00ca00070018
:103230000b056d008a0578000c40e10008003a009b
:103240000900e00082003a000af0a1000c047800b6
:10325000f3012000f2ff2f006110b9007c0037005d
:103260000c48e10004003a00870007000900e00074
:1032700077003a00f4ff37000800e00074003200e5
:103280000900e00002003a007f00070070003700ec
:10329000ed3f20008d845400090444008a1f78000b
:1032a000881f7800871f7800861f7800851f7800a8
:1032b000841f7800cb19dd00c515de008b857100f9
:1032c0004b11dd00450dde000a057100cb08dd0065
:1032d000c504de00898470004b04dd000440b800a2
:1032e0000546b8008c80400060814e00044eb80056
:1032f0008c8040000d0149008001eb000318ad00f7
:103300000456b8000c0141008d8149000002eb0019
:103310000420ad000646b8000c0141008d81490033
:1033200060024a00054eb8000c0141008d81490041
:1033300060024a000556b8008c8141000d024a0027
:103340008002eb000528ad000746b8008c814100e3
:103350000d024a00e0824a00064eb8008c8141000e
:103360000d024a00e0824a004f0678000c5eb80069
:103370008c8141000d024a00e0824a000656b800e6
:103380000c0242008d824a000003eb000630ad00c3
:10339000074eb8000c0242008d824a0060034b00c9
:1033a0004f0678000c5eb8000c0242008d824a0085
:1033b00060034b000756b8008c8242000d034b009f
:1033c0008003eb000738ad004f0678000c5eb800b4
:1033d0008c8242000d034b00e0834b004f067800c7
:1033e0000c5eb8000c0343008d834b004f04780043
:1033f0004f0578000748a3000a003a00000040008b
:1034000081804800020149008381490004024a008a
:1034100085824a0006034b0087834b000804e900bd
:10342000f4ff37000306780080807000828070000f
:1034300001003200610676008701780006017800fd
:103440008500780004007800880478007800370050
:103450008d0037008c06460002003a000000a600ee
:103460000000060060004800e0804800600149005c
:10347000e08149000350a600000006008301d1004e
:103480000804e800000006000002fd008102fd00c3
:103490000203fd008303fd008804fd008a05fd0092
:1034a000000006007048e1001a0039007d0320008a
:1034b0000d48e1000a0039008105700083067100a3
:1034c0008c8575008d8575000006eb001cd8e70023
:1034d000610676006000b8006011b80000000600c8
:1034e0007048e1000b0039008c0578000006780078
:1034f0000100780082007800030178008001eb0071
:1035000013d8e70061067600f0845400f4ff3a0017
:10351000000006006160e1000c48ad00f085140079
:103520008b06dd000966de000d0676008b0edd00e1
:103530000900de000d0070008b16dd008908de003a
:103540008d8070008b1edd000911de000d01710001
:103550008919de00000006000d002800fc7f200015
:103560000d856100441cde00ef8161000c046400e5
:10357000010032000340a0008d856300c43cde00e2
:10358000ef8363008c846400010032000740a000d8
:103590000c40e10006003a00ef866100828676006a
:1035a00081867600808676000100320018003700a0
:1035b0000c48e10007003a00ef866300868676003b
:1035c000858676008486760002003200aeff070012
:1035d0000f0037000348a30005003a008106700081
:1035e0008286760083867600010032000804e800b7
:1035f0000748a30005003a0085067200868676001b
:1036000087867600010032008904e8000000060089
:10361000cf047800cf0578001b0037000002780047
:103620008102780002037800830378008804780020
:103630000cf0a70087ff0700fd7f20000d40e10090
:10364000040035000d0478006000b8006011b80077
:103650000d0037000800e0000b003c00040078007b
:10366000850078000601780087017800e184140065
:103670008cff07000cf0a70076ff07000004eb00aa
:103680000340a7000804e8004444dd006fc5610062
:10369000880175004f04be004f05be004f06be00f6
:1036a00000000600889fbe008a9fbe008c9fbe005f
:1036b0000404be000605be00809fbe00829fbe00bf
:1036c00021000700040678000800be000a01be00c1
:1036d0001d000700840678004f03be004f02be00a5
:1036e0008d4f76007fb0970013003300f0ff2f005e
:1036f0008b8f6b0006003b000d0666000c00a700d8
:103700000a00370007f0a600100020000a0037006a
:10371000880f5200898f5a008a0f5b008b8f5b00e5
:10372000030039001000200001003e0000002000ce
:1037300007f0a7000000ea004f06be004f05be00dc
:103740004f04be000000060005ff2700058261004f
:10375000070032000428e1000100320024000500c7
:103760000600070001003a004400050004080500b7
:1037700002000700f9ff3a00140005006f826100a3
:10378000810270008502710085027200000006004f
:10379000800078005002be005003be004439de00b5
:1037a000f700b200f37f200003016100090032003e
:1037b0000218e10016003a008501720083017300cf
:1037c000838173000008200015003a0040002000ab
:1037d0001300370085017200830173008381730039
:1037e00005003a0004a8be0006a8be001000200094
:1037f0000b0037000201e9000402420085824a0002
:1038000006034b0087834b000748a300f9ff3200f3
:103810000740a00004a8be0006a8be0020002000ab
:10382000800098009200980000000600680447009d
:103830000294be000094be00fc0447008694be00c3
:103840008494be0009007800d1ff070008007800ca
:10385000cfff070099007800814f70000b003b00fc
:103860000800be000a0007004f00b1000300370047
:10387000f3ff2700f2ff2f006110b9004f06be00d2
:103880004f05be004f04be000080fa000000060095
:10389000e48240001078a300070032006402400078
:1038a0001178a3003400be001401be0004003200f1
:1038b0000330a700000006003500be001501be0061
:1038c0000330a000000006001800fa00889fbe0028
:1038d0008a9fbe008c1f78000004be000205be0057
:1038e0000802be000a03be00443ade00f07f20005a
:1038f0000006620020432000800f560067003c0055
:103900006022b8006033b8000800be00d4fc070095
:103910000000e000610032000802be000a03be00a1
:10392000b4b79f00c5b79f00d6b79f00e7b79f0009
:10393000e00f5200e08f5a00e00f5b00e08f5b0069
:103940000b003d006022b800060020000733240071
:103950000800be000a01be0031fd07006022b80069
:10396000060020000733240033fd07000a0037005b
:103970006022b80006002000073324000800be00c3
:103980000a01be002cfd07006022b80006002000de
:103990000733240022fd07000802be000a03be0010
:1039a0001ffd07000002be000203be00f4b79f0027
:1039b00085bf9f0096bf9f00a7bf9f00e03f2000ec
:1039c000800f560017003c007fb097008fb897001b
:1039d0001fb99700afb99700f0af9f0081b79f0064
:1039e00092b79f00a3b79f006044b8006055b8002d
:1039f0003fb29700cfb297005fb39700efb3970045
:103a0000e00f5200e08f5a00e00f5b00e08f5b0098
:103a100022003d006044b8000a0020000bff2b008c
:103a20001e0037006022b8006033b8007fb09700f6
:103a30008fb897001fb99700afb997008dfc0700aa
:103a40000000e0000c0034007fb297008fba9700ae
:103a50001fbb9700afbb97000800be000a01be0065
:103a6000f5fc07006022b8000600200007ff2300d5
:103a7000ebfc0700070037007fb297008fba970072
:103a80001fbb9700afbb97000800be000a01be0035
:103a9000e9fc07000004be000205be000800be00ed
:103aa0000a01be004f0678004f05be004f04be005d
:083ab0000080fa00000006008e
:020000040000fa
:103ab8003c2a00002020000020480000454c00005f
:103ac8004c4f000020200000202000002a3e00006b
:103ad800003c00002a20000020200000574f000072
:103ae800524c00004420000020200000202a000042
:103af8003e000000c0200000942800001a210000a9
:103b0800342100006621000094210000c421000037
:103b1800d0210000f6210000da2100002001000079
:103b28001300000000000000200100000f0000004a
:103b380000000000563a0000202500002e32000048
:0c3b4800662000002020000000000000ab
:020000040000fa
:103b54000000fa00002bef00000620001058880037
:103b6400042bef00062bef00082bef000a2bef00cd
:103b7400102bef00122bef00142bef00202bef0083
:103b8400f001200010598800382bef00402bef0083
:103b9400482bef00502bef003a2bef00422bef00a5
:103ba4004a2bef00522bef003c2bef00442bef008d
:103bb4004c2bef00542bef003e2bef00462bef0075
:103bc4004e2bef00562bef0000402000505b880086
:103bd40000402000705b880000402000905b88005b
:103be40000402000b05b8800a02bef00a42bef0066
:103bf400a82bef00ac2bef00d02bef00d22bef0063
:103c0400f02bef00f22bef00022cef00c0e72100b5
:103c14003b000700a0ea210051000700c0ed21008d
:103c24006800070000ef21007000070040f0210049
:103c34007800070080f1210080000700c0f2210015
:103c4400880007000d68a9002d68a8000d88a90048
:103c54002d88a8000da8a9002da8a8000dc8a900aa
:103c64002dc8a8000de8a9002de8a8001160800067
:103c740000f02000010070001060880001eba80033
:103c84001100070040012000005c8800822bef0037
:103c9400842bef00862bef00882bef008a2bef009c
:103ca4008c2bef008e2bef0010102000805c88001e
:103cb40010102000905c880010002000a05c880098
:103cc4000080fa00000006000000fa0000eca800e2
:103cd40000000000016080000000280000806000f7
:103ce4000000e000fbff32000aeba8000080fa00ad
:103cf400000006000000fa000080fa000000060040
:103d04000200fa00000f78001e007800008088008e
:103d14000080fa00000006000000fa005140800014
:103d240000402000008060000000e0000600320037
:103d3400008080000000e00002003200008080006b
:103d4400000001000b48a9000080fa0000000600f2
:103d54000200fa00000f78000080fa00000006005c
:103d64000200fa00000f78001e007800108088001e
:103d74000080fa00000006000200fa00805980006a
:103d8400610060000000e000080032006160800013
:103d9400010f7800108080000000e0000300320072
:103da400118080001e007800010001000080fa00ec
:103db400000006000200fa00000f78000080fa00fc
:103dc400000006000200fa00000f78001e007800d0
:103dd400208088000080fa00000006000200fa003b
:103de400000f78000080fa00000006000200fa00cc
:103df400000f78001e007800308088000080fa00f0
:103e0400000006000200fa00000f78000080fa00ab
:103e1400000006000200fa00000f78001e0078007f
:103e2400408088000080fa00000006000200fa00ca
:103e3400000f78000080fa00000006000200fa007b
:103e4400000f78001e007800508088000080fa007f
:103e5400000006000200fa00000f78000080fa005b
:103e6400000006000200fa00000f78001e0078002f
:103e7400608088000080fa00000006000400fa0058
:103e840020479800314798002e4090000080fb00a6
:103e94004400dd00804078003e4090000080fb003c
:103ea4004200dd000040780000c07000004f780040
:103eb4001e407800560407001e4078000034a0001d
:103ec4005304070010002000e70307001e40780099
:103ed4004f04070080022000e30307000080fa007b
:103ee400000006000600fa00404798005147980079
:103ef4004e4090000080fb004400de00004f78003c
:103f04004e4090006f406000104798001e80fb00f8
:103f14004400dd00804078005e4090000080fb009b
:103f24004200dd000040780000c070002047980087
:103f34001e4090000080fb004400dd0080407800bb
:103f44005e4090000080fb004200dd0000407800ed
:103f540000c07000304798002e4090002c040700e9
:103f640020002000c00307002e4090000034a00071
:103f74002704070020002000bb0307003e409000f8
:103f84002304070020002000b70307003e409000f0
:103f94000034a0001e04070080022000b2030700c2
:103fa4000080fa00000006000000fa008040eb00e8
:103fb40020c0b300cbff070020002000aa030700a5
:103fc4000080fa00000006000000fa008040eb00c8
:103fd40010c0b300c3ff070020002000a2030700a5
:103fe4000080fa00000006000200fa00004f78008a
:103ff400114798009e407800800220008088b90014
:10400400804078001e40900000c040000074a00072
:104014008040eb00b3ff07000080fa0000000600b8
:104024000200fa00004f780011c0b3001e4078006f
:10403400acff07000080fa00000006000600fa004a
:1040440010079800414798008040eb004e409000d4
:10405400e5ff07000040eb00004f78000040eb0054
:10406400004f78000c0037001e80fb009e0090007b
:1040740000804000104078000004e0000500320099
:104084001e80fb009e0090000080400010407800dd
:10409400e3ff07001e4fe8001e407800ef4f50007a
:1040a400f1ff3600c0ff07000080fa0000000600a0
:1040b4000200fa00004f78001e407800090407004f
:1040c4000080fa00000006000000fa005a6ea80002
:1040d4003eeea8005a8ea800c70307000040eb007c
:1040e400cb030700800220005f0307008040eb0041
:1040f40030c0b30061ff0700a00020005a0307008e
:104104008040eb0030c0b3005cff0700a00020003b
:10411400550307008040eb0030c0b30057ff070091
:10412400a0002000500307008040eb0020c0b30033
:1041340052ff07008040eb00c0c2b30069ff0700d4
:104144008040eb00c0c0b30066ff07008040eb0076
:1041540060c0b30063ff07008040eb00c0c0b30041
:1041640060ff0700200020003f0307008eff0700c8
:1041740095ff07000080fa00000006000000fa0026
:10418400ade2a9000080fa00000006000200fa0077
:10419400000f780061158000000028000080600096
:1041a4000000e0001f003a001e007800e600b9009d
:1041b4008000780020d92900008040001000780099
:1041c400601588001e007800e600b9008080e800d1
:1041d40020d929000080400010007800e0158800f4
:1041e4001e007800e600b900e400400020d9290050
:1041f4000080400010407800614060000080fb00b7
:10420400610060004a00dd00f170800001a0a1009f
:1042140001007000f0708800ade2a80010c0b30087
:10422400010037000040eb000080fa0000000600a7
:104234000200fa00004f78001e80fb00c0158800c1
:1042440000000000a0158000610060000000e00094
:10425400fcff3200c0158000004078000080fa00a6
:10426400000006000600fa001007980021079800d5
:104274009e009000010f7800060037001e007800b1
:1042840010407800eaff07009e007800804878001c
:104294001e0fe8002e00900000f0a7000000ea00c6
:1042a4000000ea004f00de0000407800ae009000fd
:1042b4008100e900210798000004e000efff3a00c4
:1042c4000080fa00000006000600fa0010079800bb
:1042d400210798009e009000010f78000400370029
:1042e4001e007800104078001e0fe800d0ff070081
:1042f4002e00900000f0a7000000ea000000ea0091
:104304004f00de0000407800ae0090008100e9001c
:10431400210798000004e000f1ff3a000080fa0051
:10432400000006000600fa00100798002107980014
:104334009e009000010f7800050037000040eb005c
:10434400bbff07009e007800804878001e0fe8003d
:104354002e00900000f0a7000000ea000000ea0030
:104364004f00de0000407800ae0090008100e900bc
:10437400210798000004e000f0ff3a000080fa00f2
:10438400000006000200fa00004f78001e80fb00c7
:10439400c01588000080fa00000006000000fa0042
:1043a400c0158000004078000080fa00000006007c
:1043b4000000fa000140800000202000008060001e
:1043c4000000e00006003200f08080000000e00001
:1043d40002003200f0808000000001000128a900e2
:1043e4000080fa00000006000200fa00000f7800c6
:1043f4009e007800f18088000080fa00000006002a
:104404000000fa00500c2000804a88005229ef0076
:104414005429ef005629ef005a29ef005c29ef00d8
:104424006029ef006229ef00209c2000204b8800c7
:104434006629ef006829ef00104e2000604b8800c9
:104444007029ef007229ef0051e9a800804a80002a
:1044540030800a00000000000080fb00008188001a
:1044640000c8a90020c8a8000080fa0000000600c7
:104474000000fa000080fa00000006000000fa00c4
:104484000140800000082000008060000000e0007f
:1044940002003200f6ff070000e8a9000080fa00dd
:1044a400000006000000fa0051e9a8000080fa00ac
:1044b400000006000000fa0051e9a9000080fa009b
:1044c400000006000200fa00000f78009e00780049
:1044d400414b88000080fa00000006000400fa0046
:1044e400000f7800110798009e007800414b880067
:1044f4009e009000614b88000080fa0000000600d6
:104504000400fa00000f7800110798009e0078005c
:10451400414b88009e009000614b88000080fa00a7
:10452400000006000400fa00000f7800110798004c
:104534009e007800414b88009e009000614b8800eb
:104544000080fa00000006000400fa00000f780062
:10455400110798009e007800414b88009e0090004f
:10456400614b88000080fa00000006000200fa0097
:10457400000f78009e007800414b88000080fa000c
:10458400000006000000fa000040800066800a0077
:10459400000000000080fb0000f0a7000000ea001b
:1045a4000000ea004f00de00004078000080fa00be
:1045b400000006000000fa00e04a800077800a004c
:1045c400000000000080fb0000f0a7000000ea00eb
:1045d4000000ea004f00de00004078000080fa008e
:1045e400000006000000fa005cc9a8000080fa0080
:1045f400000006000000fa005ca9a8000080fa0090
:10460400000006000000fa00e04a800033800a003f
:10461400000000000080fb0000f0a7000000ea009a
:104624000000ea004f00de00004078000080fa003d
:10463400000006000000fa005c69a9000080fa008e
:10464400000006000000fa00007c80000080fa00f0
:10465400000006000200fa00faff0700000f7800cd
:104664001e007800240007000004e000020032006d
:1046740000002800710007001e0078002a000700cf
:104684000004e00002003200000024006b00070078
:104694001e007800320007000004e000020032002f
:1046a40000202000650007001e0078003a00070083
:1046b4000004e00002003200000820005f00070050
:1046c4001e007800420007000004e00002003200ef
:1046d40000042000590007001e0078004a0007006b
:1046e4000004e00002003200000120005300070033
:1046f4000080fa00000006000400fa001007980089
:104704000040eb00004f78001e0090000000e00025
:1047140002003d0010c0b300004f78001e40780036
:104724000080fa00000006000400fa001007980058
:104734000040eb00004f78009e0090000000240031
:10474400008060000000e0000200320010c0b300ee
:10475400004f78001e4078000080fa000000060038
:104764000400fa00100798000040eb00004f7800a6
:104774009e00900000202000008060000000e00007
:104784000200320010c0b300004f78001e407800d1
:104794000080fa00000006000400fa0010079800e8
:1047a4000040eb00004f78009e00900000082000bd
:1047b400008060000000e0000200320010c0b3007e
:1047c400004f78001e4078000080fa0000000600c8
:1047d4000400fa00100798000040eb00004f780036
:1047e4009e00900000042000008060000000e000b3
:1047f4000200320010c0b300004f78001e40780061
:104804000080fa00000006000400fa001007980077
:104814000040eb00004f78001e0090007000600024
:104824000000e0000200320010c0b300004f780026
:104834001e4078000080fa00000006000200fa0022
:10484400000f78009e80ea00007c800000806000f9
:10485400007c88000080fa00000006000000fa00d6
:10486400802fef000080fa00000006000400fa0028
:10487400100798001e009000e20f50001400320050
:10488400e20f500005003e000000e0000a00320084
:10489400e10f50000b00320019003700e40f500004
:1048a40011003200e40f50000c003900e50f5000f5
:1048b400100032001200370061608000010f7800a0
:1048c4000f00370061618000010f78000c00370091
:1048d40071618000010f7800090037008161800058
:1048e400010f78000600370091618000010f780005
:1048f40003003700a1618000010f78000000000070
:104904001e0078000080fa00000006000000fa0093
:10491400b073800000800a00000000000004a200c0
:10492400614060000080fb0061006000b1738000a2
:104934000100a10001007000b0738800b073800012
:1049440011800a00000000000004a2006140600021
:104954000080fb006100600000004000b173800033
:104964000110a10001007000b07388000080fa00fb
:10497400000006000000fa000000eb00bbff070087
:1049840070808800708080008000eb00c8f0070011
:104994003233230033a52300c7f00700808088004a
:1049a400918088008080800091808000809fbe007c
:1049b400e0d92900801f78002006210015f20700a5
:1049c400e68757000080fa00000006000000fa00a5
:1049d400a501070020062100b080880000c2b300b2
:1049e400b3fd070078fd0700b08080008040eb0035
:1049f40092fd0700fcff37000000fa000421ef00dd
:104a040010a1270040088800000228000008880040
:104a1400e08080000000e00002003a0080482200ac
:104a2400210007000028a9002028a800000b21006d
:104a34008040eb00014878000080fa000000060086
:104a44000200fa00000f78009e00780041088800f8
:104a5400000b21008040eb00014878000080fa0040
:104a6400000006000000fa00400880000080fa0000
:104a7400000006000200fa00000f78009e00780093
:104a840021088800000b21008040eb0001487800d9
:104a94000080fa00000006000000fa0020088000f0
:104aa4000080fa00000006000200fa00000f7800ff
:104ab4002028a9009e007800e18088002028a80012
:104ac4000080fa00000006000000fa00000b21003c
:104ad4008040eb00014878002028a80001e1a800ec
:104ae4000080fa00000006000000fa0001e1a900bd
:104af4002028a9000080fa00000006000200fa0045
:104b0400000b2100104f78001e4078000004e000e4
:104b140003003200000b21008040eb0001487800c4
:104b24001e4078000080fa00000006000000fa0031
:104b3400100b2100104078000080fb000080fa0078
:104b4400000006000000fa00100b21008040eb007a
:0c4b5400014878000080fa000000060014
:020000040000fa
:104b60002210000020000000800000001a10000049
:104b70000200000082000000ffff0000b0100000f3
:104b800002000000800000001c1000000200000075
:104b9000800000001e1000000200000080000000e5
:104ba0004210000020000000820000005f000000b2
:104bb00000000000000000000000000000000000f5
:104bc000005f000000000000000000000000000086
:104bd0000000000000000000621000002000000043
:104be0008000000016100000040000008200000099
:104bf00042105200100000000e10000008000000db
:104c00008000000020100000020000008000000072
:104c1000001000000e00000080000000a010000046
:104c20001000000082000000494e460000696e003e
:104c300066004e00414e00006e616e0000000000f4
:104c4000821000001e00000082000000286e690033
:104c50006c29000025006800076c09004c836a007d
:104c60009074a0007ac000008068880000846c0006
:104c700082008100b21000000200000080000000ed
:044c80000000000030
:020000040000fa
:104c84000000fa00062eef00222eef003e2eef0069
:104c94005a2eef00762eef00f001200010708800ed
:104ca400d0bf2f00f070880070f72f00d0718800fb
:104cb40070fe2f00b0728800c0ff2f009073880030
:104cc4000c2eef00282eef00442eef00602eef0094
:104cd4007c2eef000a2eef00262eef00422eef006e
:104ce4005e2eef007a2eef00082eef00242eef0048
:104cf400402eef005c2eef00782eef00f001200034
:104d04000070880040382000e070880070042000a3
:104d1400c071880000c02700a07288000004200031
:104d2400807388000000eb0051052000b146880024
:104d3400a10a2000b146880000688800516c8000f8
:104d440000fc2f00008060006000b300506c8800fd
:104d5400916c8000f00f2c008080600000502000d7
:104d640001007000906c880060c4b3002cedb700a3
:104d74000080200051052000b1468800a10a2000cf
:104d8400b1468800006888000080fa000000060030
:104d94000000fa0010002300307c88006009200025
:104da400407c88008c2fef0010042000507c880089
:104db40010102000707c880060092000807c88002e
:104dc40010042000907c88009a2fef00b82fef0089
:104dd400ba2fef00be2fef00002def00a42fef003d
:104de400a62fef00a82fef00aa2fef00ae2fef00a1
:104df400b02fef00b22fef00220020008007200028
:104e0400a109200053f820008049780081497800e6
:104e1400824978000001eb00600420007105200045
:104e240043f820008049780081497800824978005d
:104e34000080fa00000006000000fa00707c800088
:104e4400ee800a00000000000080fb0000f0a700d4
:104e54000000ea000000ea004f00de000040780095
:104e64000080fa00000006000200fa00000f78003b
:104e74000300370000fa200001002000b8000700fa
:104e84001e00780000f0a7000000ea000000ea001d
:104e94004f00de00004078001e0fe9000004e0002f
:104ea400f4ff3a000080fa00000006000200fa0055
:104eb400000f7800050037000008200001002000e2
:104ec400a700070001fe2f001e8f40001e0078007f
:104ed400ff0f5000f8ff3e000300370040002000a1
:104ee400010020009e0007001e00780000f0a700cb
:104ef4000000ea000000ea004f00de0000407800f5
:104f04001e0fe9000004e000f4ff3a000080fa00fc
:104f1400000006000000fa0011428000f08f2f000c
:104f2400008060000080a0001042880001428000e0
:104f3400f0f82f00008060000040a00000428800cc
:104f4400b1438000f08f2f00008060000080a0003b
:104f5400b0438800b1438000f0f82f000080600067
:104f64000040a000b0438800b143800080ff2f00c0
:104f7400008060000000a000b0438800a1438000ce
:104f8400f0ff28000080600000c0a000a04388005b
:104f9400b1438000f0ff28000080600000c0a00042
:104fa400b04388000080fa00000006000600fa0002
:104fb40040479800514798000000eb005e0007004e
:104fc4005a6ea90000c4b300004f7800ce40900090
:104fd40011479800de4090002147980031002000de
:104fe4000e007800b8fc07005a6ea80063fc0700a6
:104ff4000080fa00000006000000fa008040eb0088
:1050040010c0b300e9ff07000080fa0000000600aa
:105014000200fa00004f78009e40780050c1b300af
:10502400e2ff07000080fa00000006000200fa0018
:10503400000f780021028000200f20000080600013
:105044001e007000200288000080fa0000000600a4
:105054000000fa00c3e8a8000000000000000000ff
:105064000080fa00000006000000fa0004ff0700b8
:1050740047ff0700a7ff0700e1fc0700b4fa070099
:1050840011fc07005cfe0700f1ff0700000220008e
:10509400e6ff07000080fa00000006002000fa0086
:1050a40000c2b30002fc0700c1d529000f000900ab
:1050b400315f78000e01b1008040eb000e007800f3
:1050c400defb070070014700d1d629000f0009005c
:1050d400315978007000470011c0b300d7fb0700b6
:1050e400f1ff37000400fa00204798000000eb00ad
:1050f400110007003eeea9000040eb00004f7800cd
:10510400ae40900011479800210020000e00780066
:105114006dfc07003eeea80018fc07000080fa00b2
:10512400000006000000fa000000eb0017fc070076
:105134000080fa00000006000200fa00000f780068
:105144001e0078000000e00002003a00f5ff0700ae
:10515400010037000040eb000080fa000000060068
:020000040000fa
:10516400f03fb1000180b10006003500ee030900f4
:1051740000000000403fb1000180b100fbff3d0092
:105184001000b000203fb00002003500008009008c
:0851940000000000000006000d
:020000040000fa
:10519c000200fa00000f78009e007800d180880091
:1051ac00ffff37000000fa00200221008007780082
:1051bc00a0032100000188000080fa000000060016
:020000040000fa
:0451cc00ffffff00e2
:020000040000fa
:02000004000af0
:04fe0000ffffff0001
:020000040000fa
:02000004000af0
:04fe2000ffffff00e1
:020000040000fa
:02000004000af0
:04fe30007affff0056
:020000040000fa
:02000004000af0
:04fe3800b9ffff000f
:020000040000fa
:02000004000af0
:04fe40006003ff005c
:020000040000fa
:02000004000af0
:04fe4800ffffff00b9
:020000040000fa
:02000004000af0
:04fe5000deffff00d2
:020000040000fa
:02000004000af0
:04fe58000000ff00a7
:020000040000fa
:02000004000af0
:04fe60000000ff009f
:020000040000fa
:02000004000af0
:04fe68000000ff0097
:020000040000fa
:02000004000af0
:04fe70000000ff008f
:020000040000fa
:02000004000af0
:04fe7800ffffff0089
:020000040000fa
:02000004000af0
:04fe8000fffcff0084
:020000040000fa
:02000004000af0
:04fe8800ffffff0079
:020000040000fa
:02000004000af0
:04feb000ffffff0051
:020000040000fa
:02000004000af0
:04fec000ffffff0041
:020000040000fa
:02000004000af0
:04fed000ffffff0031
:020000040000fa
:02000004000af0
:04fee000ffffff0021
:020000040000fa
:02000004000af0
:04fef000ffffff0011
:020000040000fa
:02000004000af0
:04fff800ffffff0008
:020000040000fa
:020000040100f9
:04300000ffffff00cf
:00000001FF
