:020000040000fa
:080000000002040000000000f2
:020000040000fa
:04000800de03000013
:020000040000fa
:04000c0020040000cc
:020000040000fa
:040010006004000088
:020000040000fa
:04001400fe030000e7
:020000040000fa
:0400180040040000a0
:020000040000fa
:04001c006a06000070
:020000040000fa
:040020008004000058
:020000040000fa
:040024006a06000068
:020000040000fa
:040028006a06000064
:020000040000fa
:04002c00e0040000ec
:020000040000fa
:040030006a0600005c
:020000040000fa
:040034006a06000058
:020000040000fa
:040038006a06000054
:020000040000fa
:04003c006a06000050
:020000040000fa
:040040004206000074
:020000040000fa
:040044006a06000048
:020000040000fa
:040048006a06000044
:020000040000fa
:04004c006a06000040
:020000040000fa
:040050006a0600003c
:020000040000fa
:040054006a06000038
:020000040000fa
:040058006a06000034
:020000040000fa
:04005c006a06000030
:020000040000fa
:040060006a0600002c
:020000040000fa
:040064006a06000028
:020000040000fa
:040068006a06000024
:020000040000fa
:04006c006a06000020
:020000040000fa
:040070006a0600001c
:020000040000fa
:040074006a06000018
:020000040000fa
:040078006a06000014
:020000040000fa
:04007c006a06000010
:020000040000fa
:040080006a0600000c
:020000040000fa
:040084006a06000008
:020000040000fa
:040088006a06000004
:020000040000fa
:04008c006a06000000
:020000040000fa
:040090006a060000fc
:020000040000fa
:040094006a060000f8
:020000040000fa
:040098006a060000f4
:020000040000fa
:04009c006a060000f0
:020000040000fa
:0400a0006a060000ec
:020000040000fa
:0400a4006a060000e8
:020000040000fa
:0400a8006a060000e4
:020000040000fa
:0400ac006a060000e0
:020000040000fa
:0400b0006a060000dc
:020000040000fa
:0400b4006a060000d8
:020000040000fa
:0400b8006a060000d4
:020000040000fa
:0400bc006a060000d0
:020000040000fa
:0400c0006a060000cc
:020000040000fa
:0400c4006a060000c8
:020000040000fa
:0400c8006a060000c4
:020000040000fa
:0400cc006a060000c0
:020000040000fa
:0400d0006a060000bc
:020000040000fa
:0400d4006a060000b8
:020000040000fa
:0400d8006a060000b4
:020000040000fa
:0400dc006a060000b0
:020000040000fa
:0400e0006a060000ac
:020000040000fa
:0400e4006a060000a8
:020000040000fa
:0400e8006a060000a4
:020000040000fa
:0400ec006a060000a0
:020000040000fa
:0400f0006a0600009c
:020000040000fa
:0400f4006a06000098
:020000040000fa
:0400f8006a06000094
:020000040000fa
:0400fc006a06000090
:020000040000fa
:040100006a0600008b
:020000040000fa
:040104006a06000087
:020000040000fa
:040108006a06000083
:020000040000fa
:04010c006a0600007f
:020000040000fa
:040110006a0600007b
:020000040000fa
:040114006a06000077
:020000040000fa
:040118006a06000073
:020000040000fa
:04011c006a0600006f
:020000040000fa
:040120006a0600006b
:020000040000fa
:040124006a06000067
:020000040000fa
:040128006a06000063
:020000040000fa
:04012c006a0600005f
:020000040000fa
:040130006a0600005b
:020000040000fa
:040134006a06000057
:020000040000fa
:040138006a06000053
:020000040000fa
:04013c006a0600004f
:020000040000fa
:040140006a0600004b
:020000040000fa
:040144006a06000047
:020000040000fa
:040148006a06000043
:020000040000fa
:04014c006a0600003f
:020000040000fa
:040150006a0600003b
:020000040000fa
:040154006a06000037
:020000040000fa
:04015800ca040000d5
:020000040000fa
:04015c006a0600002f
:020000040000fa
:040160006a0600002b
:020000040000fa
:040164006a06000027
:020000040000fa
:040168006a06000023
:020000040000fa
:04016c006a0600001f
:020000040000fa
:040170006a0600001b
:020000040000fa
:040174006a06000017
:020000040000fa
:040178006a06000013
:020000040000fa
:04017c006a0600000f
:020000040000fa
:040180006a0600000b
:020000040000fa
:040184006a06000007
:020000040000fa
:040188006a06000003
:020000040000fa
:04018c006a060000ff
:020000040000fa
:040190006a060000fb
:020000040000fa
:040194006a060000f7
:020000040000fa
:040198006a060000f3
:020000040000fa
:04019c006a060000ef
:020000040000fa
:0401a0006a060000eb
:020000040000fa
:0401a4006a060000e7
:020000040000fa
:0401a8006a060000e3
:020000040000fa
:0401ac006a060000df
:020000040000fa
:0401b0006a060000db
:020000040000fa
:0401b4006a060000d7
:020000040000fa
:0401b8006a060000d3
:020000040000fa
:0401bc006a060000cf
:020000040000fa
:0401c0006a060000cb
:020000040000fa
:0401c4006a060000c7
:020000040000fa
:0401c8006a060000c3
:020000040000fa
:0401cc006a060000bf
:020000040000fa
:0401d0006a060000bb
:020000040000fa
:0401d400160500000c
:020000040000fa
:0401d80052050000cc
:020000040000fa
:0401dc008e0500008c
:020000040000fa
:0401e000ca0500004c
:020000040000fa
:0401e400060600000b
:020000040000fa
:0401e8006a060000a3
:020000040000fa
:0401ec006a0600009f
:020000040000fa
:0401f0006a0600009b
:020000040000fa
:0401f4006a06000097
:020000040000fa
:0401f8006a06000093
:020000040000fa
:0401fc006a0600008f
:020000040000fa
:040200006a0600008a
:020000040000fa
:040204006a06000086
:020000040000fa
:040208006a06000082
:020000040000fa
:04020c006a0600007e
:020000040000fa
:040210006a0600007a
:020000040000fa
:040214006a06000076
:020000040000fa
:040218006a06000072
:020000040000fa
:04021c006a0600006e
:020000040000fa
:040220006a0600006a
:020000040000fa
:040224006a06000066
:020000040000fa
:040228006a06000062
:020000040000fa
:04022c006a0600005e
:020000040000fa
:040230006a0600005a
:020000040000fa
:040234006a06000056
:020000040000fa
:040238006a06000052
:020000040000fa
:04023c006a0600004e
:020000040000fa
:040240006a0600004a
:020000040000fa
:040244006a06000046
:020000040000fa
:040248006a06000042
:020000040000fa
:04024c006a0600003e
:020000040000fa
:040250006a0600003a
:020000040000fa
:040254006a06000036
:020000040000fa
:040258006a06000032
:020000040000fa
:04025c006a0600002e
:020000040000fa
:040260006a0600002a
:020000040000fa
:040264006a06000026
:020000040000fa
:040268006a06000022
:020000040000fa
:04026c006a0600001e
:020000040000fa
:040270006a0600001a
:020000040000fa
:040274006a06000016
:020000040000fa
:040278006a06000012
:020000040000fa
:04027c006a0600000e
:020000040000fa
:040280006a0600000a
:020000040000fa
:040284006a06000006
:020000040000fa
:040288006a06000002
:020000040000fa
:04028c006a060000fe
:020000040000fa
:040290006a060000fa
:020000040000fa
:040294006a060000f6
:020000040000fa
:040298006a060000f2
:020000040000fa
:04029c006a060000ee
:020000040000fa
:0402a0006a060000ea
:020000040000fa
:0402a4006a060000e6
:020000040000fa
:0402a8006a060000e2
:020000040000fa
:0402ac006a060000de
:020000040000fa
:0402b0006a060000da
:020000040000fa
:0402b4006a060000d6
:020000040000fa
:0402b8006a060000d2
:020000040000fa
:0402bc006a060000ce
:020000040000fa
:0402c0006a060000ca
:020000040000fa
:0402c4006a060000c6
:020000040000fa
:0402c8006a060000c2
:020000040000fa
:0402cc006a060000be
:020000040000fa
:0402d0006a060000ba
:020000040000fa
:0402d4006a060000b6
:020000040000fa
:0402d8006a060000b2
:020000040000fa
:0402dc006a060000ae
:020000040000fa
:0402e0006a060000aa
:020000040000fa
:0402e4006a060000a6
:020000040000fa
:0402e8006a060000a2
:020000040000fa
:0402ec006a0600009e
:020000040000fa
:0402f0006a0600009a
:020000040000fa
:0402f4006a06000096
:020000040000fa
:0402f8006a06000092
:020000040000fa
:0402fc006a0600008e
:020000040000fa
:040300006a06000089
:020000040000fa
:040304006a06000085
:020000040000fa
:040308006a06000081
:020000040000fa
:04030c006a0600007d
:020000040000fa
:040310006a06000079
:020000040000fa
:040314006a06000075
:020000040000fa
:040318006a06000071
:020000040000fa
:04031c006a0600006d
:020000040000fa
:040320006a06000069
:020000040000fa
:10040000ef0921000eff27000e01880000002000e8
:100410000000e000020032000001200020028800fd
:10042000140007002d0207000000e00003003a005e
:10043000a0d12100010020000200370000002000b0
:1004400001002000810f70004220ae000f00070065
:10045000000020000000e0004220ae00000002008a
:1004600000000000f81b0200000000000040da005d
:100470000000fe00600520000000e00002003200e5
:10048000002020009001880000000600a1028800e2
:10049000800478000000eb001f003700e284440075
:1004a00054a0b4009905ba00e284440054a0b400fa
:1004b0009906ba00e284440054a0b4000006eb00a0
:1004c000476fde00fd07b200ae018800636ce100fb
:1004d00003003a000ad801000000eb000e003700cc
:1004e000606ce10008003a00004deb000a05e800ee
:1004f000020039003420ec000af0a0008b05e9006e
:10050000f9ff3e00040037006168e100010032009d
:100510000086eb000b00070019c7ba001905ba00e6
:100520000e04e00003003a000a00e000dbff3a009e
:1005300000000600fe07b200ae0288008a047800c0
:10054000f5ff37000cd0a300e20f4d001c003b006c
:1005500089027800354dba000a05e800020039002a
:100560003420ec000af0a0008b05e9000f003200f7
:10057000254dba000a05e800020039003420ec00dd
:100580000af0a0008b05e900080032000c00e00032
:100590000600320015cdba000a05e8000200390055
:1005a0003420ec000af0a0008b05e9008984e80003
:1005b00054a0b4000b00e000e2ff3a000000060087
:1005c0009902ba00055d78008b05e900f7ff32005b
:1005d000c82ade00055d78008b05e900f3ff3200d4
:1005e0000c00e000f1ff320019ddba00eeff370029
:1005f0006100e10001003200100005005400f80025
:1006000050102000a002880000f927001000ba0056
:100610005400f9000700260000f0a6008703d1006f
:100620000703780001c4fe000003eb000120200056
:1006300091018800a1f32900111303008703e90049
:10064000fdff3a0000f0a7000000050000f0a00048
:1006500080c4fe0086037800f3ff37000408200002
:10066000010037000002eb006100e10001003200f0
:10067000100005003200f8003400f8008102780014
:10068000930188003200be000100e0000c0032003f
:100690000470a70000f0a00032037800c733de002a
:1006a000848343004220af008703e800a70188004d
:1006b000f607b2007f30e100040032002000200085
:1006c0003400f9003200f900000006008100e90062
:1006d0000500e00003003a00018009003210030029
:1006e000e8ff37000180090032900300d561ae00b9
:1006f000e4ff370030002000f1ff370050052000f4
:10070000b00e8800a00a2000b00e8800d3e1a80037
:100710000000060050052000b00e8800a00a20004e
:10072000b00e8800d3e1a900000006005e170400a7
:1007300000000000e81e040000000000b8170400dc
:1007400000000000d217040000000000041804009c
:1007500000000000321804000000000062180400cd
:10076000000000006e18040000000000941804004f
:10077000000000007818040000000000d81b0400ee
:10078000000000001a1504000000000048150400d5
:10079000000000007a150400000000008e1504001f
:1007a00000000000a215040000000000b6150400bf
:1007b00000000000ca150400000000003600f80028
:1007c000809fbe00829fbe00849fbe00869fbe00a9
:1007d0000000fa00c028a9000000eb00990d0700f6
:1007e0000080fa004f03be004f02be004f01be0062
:1007f0004f00be003600f900004006003600f80049
:10080000809fbe00829fbe00849fbe00869fbe0068
:100810000000fa00900d0700c048a9001000200059
:10082000880d07000080fa004f03be004f02be0093
:100830004f01be004f00be003600f9000040060028
:100840003600f800809fbe00829fbe00849fbe00dd
:10085000869fbe000000fa00c068a90020002000aa
:10086000780d07000080fa004f03be004f02be0063
:100870004f01be004f00be003600f90000400600e8
:100880003600f800809fbe00829fbe00849fbe009d
:10089000869fbe000000fa00c088a900300020003a
:1008a000680d07000080fa004f03be004f02be0033
:1008b0004f01be004f00be003600f90000400600a8
:1008c0003600f800809fbe00829fbe00849fbe005d
:1008d000869fbe000000fa00c608a9007000200034
:1008e000580d07000080fa004f03be004f02be0003
:1008f0004f01be004f00be003600f9000040060068
:100900003600f800809fbe00829fbe00849fbe001c
:10091000869fbe000000fa002146800000102000e3
:10092000008060000000e00003003200c508a9005c
:10093000c0002000430d0700214680000002200077
:10094000008060000000e00003003200c4a8a9009d
:10095000900020003b0d07002046800070006000e2
:100960000000e00003003200c488a900a0002000bd
:10097000340d070020468000610060000000e000a8
:1009800003003200c408a900b00020002d0d0700ac
:10099000ffff3700809fbe000000fa00414080004a
:1009a00000002100008060000000e0000100320033
:1009b0000988a9000080fa004f00be000040060030
:1009c0003600f800809fbe00829fbe00849fbe005c
:1009d000869fbe000000fa00a08080000000e000ba
:1009e00002003200a080800000000100b009210058
:1009f000104078008040e800b009210001487800ec
:100a0000a009210011c0b300014878000028a90006
:100a10000080fa004f03be004f02be004f01be002f
:100a20004f00be003600f900004006003600f80016
:100a3000809fbe00829fbe00849fbe00869fbe0036
:100a40003200f8003400f80010002000a0018800f7
:100a50000020200000d0fe000200fa00616180004a
:100a6000010f7800208080000000e00003003200c9
:100a7000218080001e007800010001000d68a9009f
:100a80000080fa003400f9003200f9004f03be0084
:100a90004f02be004f01be004f00be003600f900fd
:100aa000004006003600f800809fbe00829fbe0016
:100ab000849fbe00869fbe003200f8003400f8001c
:100ac00010002000a00188000020200000d0fe00bf
:100ad0000200fa0071618000010f78003080800010
:100ae0000000e00003003200318080001e0078002a
:100af000010001000d88a9000080fa003400f9000f
:100b00003200f9004f03be004f02be004f01be008d
:100b10004f00be003600f900004006003600f80025
:100b2000809fbe00829fbe00849fbe00869fbe0045
:100b30003200f8003400f80010002000a001880006
:100b40000020200000d0fe000200fa008161800039
:100b5000010f7800408080000000e00003003200b8
:100b6000418080001e007800010001000da8a9004e
:100b70000080fa003400f9003200f9004f03be0093
:100b80004f02be004f01be004f00be003600f9000c
:100b9000004006003600f800809fbe00829fbe0025
:100ba000849fbe00869fbe003200f8003400f8002b
:100bb00010002000a00188000020200000d0fe00ce
:100bc0000200fa0091618000010f780050808000df
:100bd0000000e00003003200518080001e00780019
:100be000010001000dc8a9000080fa003400f900de
:100bf0003200f9004f03be004f02be004f01be009d
:100c00004f00be003600f900004006003600f80034
:100c1000809fbe00829fbe00849fbe00869fbe0054
:100c20003200f8003400f80010002000a001880015
:100c30000020200000d0fe000200fa00a161800028
:100c4000010f7800608080000000e00003003200a7
:100c5000618080001e007800010001000de8a900fd
:100c60000080fa003400f9003200f9004f03be00a2
:100c70004f02be004f01be004f00be003600f9001b
:100c8000004006003600f800809fbe00829fbe0034
:100c9000849fbe00869fbe000000fa0001408000d5
:100ca00000042000008060000000e000020032002c
:100cb000c20a070000c8a9000080fa004f03be0066
:100cc0004f02be004f01be004f00be003600f900cb
:100cd000004006000040da000000fe0000000500b1
:100ce0000000fa0068815700cfb89700f0010700b4
:100cf0000080fa00000006000d00070066000700f3
:100d000019010700410107009a000700400207008f
:100d1000eb0137008001780002003700b1597800fc
:100d20000201e9000200e000fcff3a0000000600ba
:100d3000ec874700889fbe008a9fbe008c9fbe0044
:100d40008e1f7800000678000104780018079000d4
:100d50002805900098067800cdb79f00b805900050
:100d60003202be002203be000400be000601be0027
:100d70004f18de006011b8008000eb00d0b79f0074
:100d8000e1b79f00f2b79f0083bf9f008004780007
:100d90000900e000060032006000b8006011b800f1
:100da00004025000858258000603590087835900c9
:100db0000e00e000020035000d10a100cdb79f002d
:100dc0000900e00005003a004fb097000028a3009a
:100dd00002003a000038a300020032008a00e90055
:100de000010037008a007800f8815700a200200037
:100df00008007800890007000900e00003003a00bd
:100e0000cfb097000128a300080032000000e900dd
:100e100000814500b1c2b3000900e00001003200ca
:100e2000d1c2b30001497800060037000138a300a1
:100e3000040032000000e9008080450002c2b300d7
:100e400082487800480190000201e9000001510049
:100e5000808045004fb297008a0178000c0078002e
:100e6000360207009c0090000188a30004003200b5
:100e700098009000810f500001003d0001007800b3
:100e80004f0778004f06be004f05be004f04be005e
:100e9000cf00b100000006000200fa00889fbe00eb
:100ea0008a9fbe0080057800010478000200780067
:100eb000180190002805900098007800b1bf9f00ad
:100ec000b80490000200e000020035000110a1000b
:100ed000b1bf9f00ea815700820020008a0078009d
:100ee0003002be002003be00080078004b0007005f
:100ef0003fb99700f0006100040032000000e900f3
:100f00008080440002c3b300824878003fb9970054
:100f1000e8006100040032000000e9008080440025
:100f200002c2b30082487800480190000201e90043
:100f300000015100808044003fba97008a01780088
:100f40000b007800fd0107009b0090000188a300c2
:100f50000400320098009000810f500001003d0015
:100f6000010078004f05be004f04be000080fa006b
:100f700000000600ea874700889fbe008a9fbe00e7
:100f80008e1f7800000478000300780072875700f5
:100f900084e2260055c72600049fbe00c3962200a7
:100fa000030f78006c875700004feb00110590008d
:100fb000a1049000910578000200e00002003200d8
:100fc0000207780001003700728757000000e00038
:100fd00002003a000e0078004e0407000a00e0000c
:100fe000030035008a0f5000010036000a00780027
:100ff0000b02780089017800000178008e007800eb
:1010000008007800cd0107004f0778004f05be00ab
:101010004f04be00af00b10000000600f487470097
:10102000889fbe008a9fbe008c9fbe008e1f7800e6
:101030000605be000404be0081bf9f0082b79f006a
:10104000f3b79f00b0009000e1b79f001301780054
:1010500092b79f0090069000400090000000e900c9
:10106000000678000d00e00001003d001d0020009a
:10107000efb19700008041000048eb001e00200007
:101080001f0037000c06e9000fb09700cf80de008c
:101090006109b900a0b79f00b1b79f00c2b79f0018
:1010a000d3b79f000203be000002be000800be00ce
:1010b0000a01be006905070000077800efb097003d
:1010c0000c80400003c3b300034847008d06e900cd
:1010d0000fb897000000e90080bf9f002fb2970073
:1010e000bfb297004fb39700dfb397000800be0070
:1010f0000a01be00520507000205be000004be0042
:101100000c00e0000d003400e00f5400e08f5c00a4
:10111000e00f5d00e08f5d00daff3a000d00e000b7
:10112000d8ff3c008fb897000100e00003003400b6
:101130001fb197000218a300d2ff3a000e00e00092
:1011400002003a00ffb197001340a1000c007800a4
:101150004f0778004f06be004f05be004f04be008b
:101160004f01b100000006000200fa00889fbe0097
:101170008a9fbe0000057800010478000200780014
:1011800018019000a804900098007800b1bf9f005b
:10119000b80590000200e000020035000110a10037
:1011a000b1bf9f00ea815700a200200089007800ab
:1011b0003002be002003be000800780097ff070041
:1011c000480190000201e9000001510080804500c3
:1011d0003fba9700890178000a007800570107009c
:1011e0009a0090000188a30004003200980090004b
:1011f000810f500001003d00010078004f05be0046
:101200004f04be000080fa0000000600fa87470085
:10121000889fbe008a9fbe008c9fbe008e1f7800f4
:10122000800478000104780082057800180190009d
:101230002805900018077800b80090000200e00030
:10124000020035000e10a10001003700120020003e
:1012500070006700e0b79f00090032003b02be004b
:101260002b03be00e00f5200e08f5a00e00f5b003e
:10127000e08f5b00020032008a86e900010037003f
:101280008a067800e8026700f5b79f000100320087
:101290008d06e9003b02be002b03be00e4af9f00b9
:1012a000f5af9f0086b79f0097b79f004806900054
:1012b0000c06e9000c8040000048eb00efb29700fc
:1012c0007fb297008903780081047800d8af9f002f
:1012d000020478008bbf9f008a05780003457800e0
:1012e0002b0037000c06e9006fab97006f0063001e
:1012f000e90f500002003c000003b000010037007d
:101300007005b0000a03fb001604b100f90f53008a
:101310000c003e00000378000650a0001606b10045
:10132000f90f530007003e00b4b79f00a5b79f0018
:10133000c7b79f0096030700cfb39700afb29700df
:101340003fb297000c834400004b78000804e9008a
:101350008d06e9006fa89700ffa897000fb19700ce
:101360009fb19700460020008301d1000281d30085
:101370008180d3000080d3000603e900faff3a0021
:10138000e0af9f00f1af9f0082b79f0093b79f002f
:10139000e10f56000f0034006fa89700ffa89700d8
:1013a0000fb197009fb19700e00f5000e08f5800f9
:1013b000e00f5900e08f5900caff3a000800e00032
:1013c000c8ff3c000d00e000020034000e18a3002e
:1013d000c4ff3a0089007800f4b79f0087047800c2
:1013e0005fac97008a4178000b0578008fbd9700ad
:1013f0000500e000120032003b02be002b03be00dd
:10140000e4af9f00f5af9f0086b79f0097b79f009e
:10141000e00f5200e08f5a00e00f5b00e08f5b00ae
:10142000070032000c06e9000c80400003487800f9
:101430000c06e9000c80400002c3b30002487800ab
:10144000ffb297000500e000040032000c06e9003e
:101450000c80400002c2b3000248780048019000ae
:101460000201e9000c0151008c8040000e0278005e
:101470008a01780009007800b00007009900900008
:101480000188a3000400320098009000810f5000f2
:1014900001003d00010078004f0778004f06be00b4
:1014a0004f05be004f04be00af01b10000000600b2
:1014b0008201780001017800f1ff27003b0337002b
:1014c00084082000848f50001d0032000d003c0075
:1014d00014082000848f50002700320002003c00d6
:1014e000040820000400370024082000848f5000e6
:1014f0003400320044082000848f500043003a003a
:1015000036003700040a2000848f50002700320084
:1015100004003c0004092000848f50003b003a0086
:1015200028003700020c2000828f50002f0032006c
:10153000020f2000828f500034003a002b00370049
:101540009380e9000200e000050032008109780084
:101550001102fb00cfa2de00612bb900280037008a
:1015600081097800114278000482fb008002eb00c0
:101570006033b8002200370013027800e400520004
:101580000200e00005003200810978001102be006f
:101590004fabde0086037800190037008109780020
:1015a0001102be006033b800150037009380e900d7
:1015b0008109780011027800cfa2de00612bb9000a
:1015c0000f00370093027800e8805200810978000c
:1015d0003102be002103be00090037009380e900fc
:1015e0000200e00002003200f1ff37009380e900c2
:1015f00081097800110278008002eb006033b800a6
:101600000498be000690be00100005000000050012
:1016100044082000848f50002500320008003c0060
:1016200014082000848f5000140032002408200089
:10163000848f500024003200040820000c00370082
:1016400004092000848f50001f00320004003c0079
:1016500084082000848f500024003a000e003700d8
:10166000040a2000848f500011003200040c200076
:10167000848f50001d003a000d0037009380e90070
:10168000810978009100780001087800cf91de0090
:101690008288be00140037009380e9008109780039
:1016a0009100780001087800824878000e00370029
:1016b0009380e900810978009100780001087800a2
:1016c00082087800080037009380e90081097800db
:1016d00091007800010878006112b900612bb9000f
:1016e0008498be008690be00100005000000050032
:1016f000889fbe00000478004800900082047800b3
:10170000808f5400010036008004780009017800c1
:10171000580090007ffd070058009000090040002d
:1017200050049800c8009000898450004904980033
:101730000048eb004f04be0000000600f28747009f
:10174000889fbe008a9fbe008c9fbe008e1f7800bf
:101750008004780001057800020478008305780091
:101760006107620002003a008b0f54000800390044
:10177000080178008a00780009007800dcff070083
:101780008b0f540002003900880578001e003700d6
:10179000088655000c017800f00f56000100360055
:1017a00002012000010220007e805700f5010700a1
:1017b0008c0678000500370002012000fe805700eb
:1017c00009007800caff0700f0865600ef8f560028
:1017d000f9ff3e004461de0000ff2f008091b90058
:1017e0000c014100fe80570009007800c0ff07008f
:1017f0000e00e00004003a00080178008a0078003a
:1018000009007800baff07000b0078004f07780046
:101810004f06be004f05be004f04be002f01b100b1
:1018200000000600000005000000050000000500a3
:10183000000178000040eb008080fb0081804000c8
:101840004308210081814100134278000404e00034
:1018500004003a0050082100810040001140780047
:101860000000060092017800934f520005003a00f4
:101870005008210081004000114078000309e80071
:10188000010037000040e800ea4f5000eaff360050
:1018900000000600f6874700889fbe008a9fbe00b2
:1018a0008c9fbe008e1f7800000578000104780030
:1018b00083057800040678000000eb00c0b79f00a5
:1018c0008080eb00d1b79f00e0b79f00f2b79f0088
:1018d0000008200080bf9f00980078000100780079
:1018e0008004eb00010037008904e80030417800f3
:1018f0000204e0000300320053c2b300834f5100e2
:10190000f9ff3a000900e000040032000901780004
:101910000a00780076ff0700188c4400180778004a
:1019200050c2b3009e4f10003f013a000e07e8007e
:101930000e0c780010003700cfb097000100a00017
:101940000b003700cfb097000110a000080037004f
:10195000cfb097000120a00005003700cfb097005e
:101960000130a00002003700cfb097000140a00076
:10197000c1b79f00000ce800180078009040780084
:10198000b2c2b30082cf5000f1ff320007003c002a
:1019900002c2b30082cf5000f0ff320032c2b30067
:1019a00082cf500007003a00efff3700d2c2b300e9
:1019b00082cf5000e0ff320002c3b30082cf50005c
:1019c000e0ff3200a2c2b30082cf50000d003a0007
:1019d000000ce8001c80e900000e78001000780080
:1019e000e0b79f000000e0000f003d00cfb097007f
:1019f0000100a200c1b79f000000ea00e0b79f000d
:101a00000900370039010700e0b79f0001003700e7
:101a1000000ce800180078009000fb000103b10002
:101a2000e98f5000faff36004fb097000008a3007e
:101a3000020032000010a100c0b79f00180078001b
:101a4000e1c2b30090cf100016003a008000eb0016
:101a5000d1b79f000000e800000c7800a1c2b300dd
:101a600090cf100006003a00000ce8001c80e9004e
:101a7000000e780010007800d0b79f0009003700f2
:101a80001a010700d0b79f0001003700000ce800e2
:101a9000180078009000fb000103b100e98f5000ae
:101aa000faff36000800780061ff070080467800e2
:101ab000180078001000fb00ae010700910620001e
:101ac000810f50003800320012003c004106200017
:101ad000810f5000340032000a003c001106200043
:101ae000810f50002000320031062000810f50008d
:101af000a000320051022000810f5000bc003a00cb
:101b0000b400370071062000810f5000b8003c007f
:101b10008800370001072000810f50005c00320070
:101b200007003c00e1062000810f50007a003200df
:101b3000f1062000810f5000ad003a003900370057
:101b400051072000810f500027003200810720003c
:101b5000810f50004200320031072000810f5000f9
:101b6000a3003a008f0037008d80fb000c01780045
:101b700000fe2f000f004000b10107000000e00050
:101b8000a800320018007800000ce80090417800ae
:101b900002fe2f000f014100f88057000a00780074
:101ba00021ff07000e0037008d80fb008c017800bc
:101bb0001200200000fe2f000f00400040fe070032
:101bc0000000e00097003200180ce80002fe2f0031
:101bd0000f014100f88057000a00780054fc07000c
:101be00080844400900037008d80fb008c017800d9
:101bf0000001eb0000fe2f000f00400030fe070048
:101c00000000e00087003200180ce80002fe2f0000
:101c10000f014100f88057000a00780052fd0700cc
:101c2000efff37008d80fb008c0178000001eb0096
:101c300000fe2f000f00400021fe07000000e00022
:101c400078003200180ce80002fe2f000f0141005e
:101c5000f88057000a0078008ffc0700e0ff37008b
:101c60008d80fb008c0178000001eb0000fe2f004e
:101c70000f00400012fe07000000e0006900320083
:101c800018007800000ce800904178001c00370034
:101c90008c0178000001eb00010f200000fe2f00f6
:101ca0000f00400006fe07000000e0005d0032006b
:101cb000180ce8000fb097009fb097002fb1970065
:101cc000bfb19700e00f5000e08f5800e00f5900bf
:101cd000e08f590009003a00cfb597006fb4970024
:101ce000c00721000b0107000b0278008801780073
:101cf00000017800c10721004700370083c7b30007
:101d000002fe2f000f014100f88057000a00780002
:101d10003efd0700b2ff37000b8144008d80fb00c1
:101d20008c01780000fe2f000f00400038fe0700f5
:101d30003c0037008d80fb000c01780000fe2f0076
:101d40000f0040003e0107000000e00035003200b7
:101d500018007800000ce8009041780002fe2f0087
:101d60000f014100f88057000a007800aefe07001e
:101d70009bff370000c8b30080cf560029003a000f
:101d8000180ce8001c80e900000e78001040780074
:101d9000e0df9f0013002000e2fd2f000f01410053
:101da0000800370000c8b30080cf56001d003a007d
:101db000180ce8001c80e900000e78008001eb00a0
:101dc00010017800f88057000a00780069fc0700cd
:101dd00083ff370000c8b30080cf560011003a00df
:101de000180ce8004fb29700efb1970008003700d9
:101df0000e0c78000000eb00c0b79f00e0b79f001a
:101e00000080eb00d0b79f000002eb008401780057
:101e100012002000210821000a00780047fe070078
:101e20006fff3700180ce800090078004f077800b2
:101e30004f06be004f05be004f04be006f01b1004b
:101e4000000006008200fa00889fbe008a1f78000a
:101e50000005780082047800c13f9f000004eb0079
:101e6000100037000902780088017800a2f72f00df
:101e70000f01410081f72f008f8040000a00780099
:101e800084fe070008004000880f500004003d0059
:101e9000b0042000e08488000084eb0004003700d8
:101ea000000478004f3897001004e000edff3a007e
:101eb000080078004f0578004f04be000080fa004b
:101ec00000000600800078001000200002022000c0
:101ed000828f500004003200e9805000e48f5000ef
:101ee000010036000000eb0000000600889fbe00e5
:101ef0008a1f7800000578000a047800984478006a
:101f00000805e8000900fb00eeff07000000e00004
:101f1000f9ff3a00b0c2b30080cf54000500320090
:101f2000d0c2b3008000eb0080cf540005003a001f
:101f3000020037008000eb00010037001100200094
:101f40000804e8000000eb0003003700ea00b900d5
:101f5000020050000003b0003801fb0003fd2f0019
:101f600082814100e98f5100f8ff36000100e00056
:101f700001003a000000ea004f0578004f04be005f
:101f800000000600889fbe008a9fbe008004780083
:101f90000200e0005b00320001407800814c7800d4
:101fa00082814400f1f99f00e20f51005500360094
:101fb00091449800a1449800e1f99f00d1f99f0055
:101fc000e60f51004f003600b1449800c1f99f0060
:101fd000e80f51004b0036000905ea006305650073
:101fe0000a8444000a055100c1ff2f000105650065
:101ff0000080fb008000eb00121020001310200076
:10200000f0000700008cbe000a01440060b99f0088
:1020100071b99f00e80f55003a003600200498007f
:1020200031049800400498005104980020b99f00a2
:1020300031b99f0040b99f0051b99f00f80f55007a
:10204000300036006004980071049800000c98007d
:10205000110c9800200c9800310c9800400c98004e
:10206000510c980020b19f0031b19f0040b19f00fa
:1020700051b19f0060b19f0071b19f0000b99f00f6
:1020800011b99f006401640078014100020444001a
:10209000020555006011b8000203be000002be0038
:1020a0000403be006022b80000007200818072004c
:1020b000020173008381730010003700009cbe0092
:1020c0000294be00400498005104980062049800f5
:1020d00073049800000c9800110c9800220c9800d2
:1020e000330c9800400c9800510c9800620c98003a
:1020f000730c98000a02b1000802b000ff0f5500ef
:10210000eeff3e00090078004f05be004f04be0000
:102110000000060080007800040037003104e00071
:1021200002003a00000051000000060001017800a2
:102130000108a300f9ff3a0081017800310178001d
:10214000f4ef2f00020242000281ea000201620065
:102150000408280004016100f7ff320083007800c2
:10216000010178003104e000fdff3a000000510059
:1021700000000600f1fb2f0080804000f98f500026
:1021800001003e000050a00000000600f9ff3700eb
:10219000f1f92f0080804000f98f500001003e00cf
:1021a000f005b20000000600f9ff3700f287470093
:1021b0008e1f780002027800030178000000e00022
:1021c00002003200000778000100370072875700d4
:1021d0008002eb000100e000010032008102e90012
:1021e00070805700060009000018eb000080eb002b
:1021f00080bf9f002310200093bf9f00aebf9f00b1
:10220000b1bf9f00c5bf9f000100e00003003d007b
:10221000b1042000e184880006003700004feb0085
:10222000eebf9f00debf9f008400780070805700e3
:10223000220007004f0778002f01b10000000600c0
:10224000881f78000004780000082000808f50006c
:102250001700350010082000808f50000b0034005c
:1022600030082000808f500011003a009200780062
:1022700068805000000978003002be002003be00d4
:10228000049cbe000694be0007003700920278004e
:1022900064805200000978001000be00150007009d
:1022a000009cbe000294be00100020000100370018
:1022b0000000eb004f047800000006000200fa0066
:1022c000881f780000047800e2bf9f0064815700f7
:1022d00008007800dbfe0700980090000148a3008a
:1022e000010032000080eb004f0478000080fa000b
:1022f00000000600810378001d0007000001be00f9
:102300006000b8000478a30013003a006220e100e6
:1023100015003e000d0039008301d1000281d30079
:102320008180d3008301d1000281d3008180d3005a
:102330008301d1000281d3008180d3000538b00031
:10234000c42add00f300b2008381720007f0a70009
:1023500003f0a0000000060083ff27000200200019
:102360006110b900f9ff370003ff2700f7ff3700be
:10237000c70ade00f107b200f50fb2000800320014
:10238000e1cf4200020032000170a00024000500ed
:10239000810f7000010032000408050044000500b0
:1023a000810f700002003a00140005008502e90068
:1023b0000000400081c04800fcff3b000170a0000d
:1023c00024000500020ab900001bb9000200b80091
:1023d000810042008100430000000600889fbe008b
:1023e0008a9fbe0030044200b0844a0030054b0092
:1023f00090854b006000b1000898be000a90be00b6
:102400000440e10005c8e10006d0e10007d8e10082
:1024100002003100680040001008e8004f05be00cf
:102420004f04be0000000600889fbe008a9fbe00c9
:102430003004be002005be000418540005985c005e
:1024400006185d0007985d00110020000440e100bf
:1024500005c8e10006d0e10007d8e100010039001d
:102460008000eb00108810004f05be004f04be0036
:10247000000006001200fa00889fbe008a9fbe007e
:102480008c9fbe00e0b79f00f1b79f0082bf9f0006
:1024900093bf9f000605be000404be000000eb00d1
:1024a000d0b79f00c0b79f00b0b79f00a0b79f00f4
:1024b00090b79f00000678005fb19700cfb09700fb
:1024c000820141003fb097000200e00004003d009f
:1024d000370007007e805700c0ff07000300370069
:1024e000330007007e805700cfff0700dfb697005c
:1024f0000d00e0000c0035006fb29700ffb29700ae
:102500000fbb97009fbb9700100020000100200028
:102510006011b80000027200818272000203730031
:10252000838373001b0007000c06e80001042000f1
:10253000810f5600e0ff3a000d00e00004003d006e
:102540000802be000a03be007e805700a3ff0700fa
:102550005fa897000000e00005003a001fb2970056
:10256000afb297003fb39700cfb3970009000700c1
:102570006fb09700ffb097000fb997009fb9970011
:102580004f06be004f05be004f04be000080fa009b
:10259000000006000100070000000600a4b79f002d
:1025a000b5b79f00c6b79f00d7b79f0000000600d1
:1025b0004f09de0082817100b3b79f004f01de003a
:1025c0008180400082807000a1b79f008fb097008b
:1025d0004f09de00000040000200700090b79f002d
:1025e0007fa897004f01de0081804000828070004c
:1025f00081b79f000d0007004f3ade000000400049
:1026000004007000f0af9f000800070004024200c1
:1026100085824a0006034b0087834b00dfff0700db
:102620000802be000a03be00000006002fb2970099
:10263000bfb297004fb39700dfb3970000000600ca
:10264000881f780018002000881f780089ff070085
:102650008f87e9004f04780000000600801feb0020
:1026600084ff07008f87e90000000600889fbe00f6
:102670008a9fbe00e00f5000e08f5800e00f590025
:10268000e08f59000c003d006044b8006055b80070
:102690000000540081805c0002015d0083815d00c8
:1026a000180020001500070008003d001800070072
:1026b0000004eb00050037000004eb000f000700ea
:1026c00002003d001200070018002000dcff070098
:1026d0000800e000060032006022b8006033b80055
:1026e0000000520081805a0002015b0083815b0080
:1026f0004f05be004f04be0000000600e00f520070
:10270000e08f5a00e00f5b00e08f5b0000000600e6
:102710006044b8006055b8000402540085825c0033
:1027200006035d0087835d0000000600889fbe00f1
:102730008a9fbe008c1f7800e00f5000e08f580089
:10274000e00f5900e08f59000d003d006044b800d3
:102750006055b8000000540081805c0002015d00fb
:1027600083815d001c0020000820e10009a8e10031
:102770000ab0e1000bb8e1000d003d000800370091
:102780000006eb00e00f5200e08f5a00e00f5b0004
:10279000e08f5b0006003d006044b8006055b80063
:1027a0000402540085825c0006035d0087835d009f
:1027b000aaff07000c00e000060032006022b8000b
:1027c0006033b8000000520081805a0002015b00b3
:1027d00083815b004f0678004f05be004f04be00aa
:0427e00000000600ef
:020000040000fa
:1027e4003c2a00002020000020480000454c000046
:1027f4004c4f000020200000202000002a3e000052
:10280400003c00002a20000020200000574f000058
:10281400524c00004420000020200000202a000028
:102824003e0000005e170000e81e0000b81700001c
:10283400d2170000041800003218000062180000cb
:102844006e18000094180000781800002564000039
:102854002020000020200000200000004f73000012
:10286400636100007220000049760000616e000080
:102874000000000020010000130000000000000020
:0c288400200100000f0000000000000018
:020000040000fa
:102890000000fa00002bef0000062000105888000e
:1028a000042bef00062bef00082bef000a2bef00a4
:1028b000102bef00122bef00142bef00202bef005a
:1028c000f001200010598800382bef00402bef005a
:1028d000482bef00502bef003a2bef00422bef007c
:1028e0004a2bef00522bef003c2bef00442bef0064
:1028f0004c2bef00542bef003e2bef00462bef004c
:102900004e2bef00562bef0000402000505b88005c
:1029100000402000705b880000402000905b880031
:1029200000402000b05b8800a02bef00a42bef003c
:10293000a82bef00ac2bef00d02bef00d22bef0039
:10294000f02bef00f22bef00022cef00a051210042
:102950003b0007008054210051000700a0572100d0
:1029600068000700e058210070000700205a21008d
:1029700078000700605b210080000700a05c210058
:10298000880007000d68a9002d68a8000d88a9001f
:102990002d88a8000da8a9002da8a8000dc8a90081
:1029a0002dc8a8000de8a9002de8a800116080003e
:1029b00000f02000010070001060880001eba8000a
:1029c0001100070040012000005c8800822bef000e
:1029d000842bef00862bef00882bef008a2bef0073
:1029e0008c2bef008e2bef0010102000805c8800f5
:1029f00010102000905c880010002000a05c88006f
:102a00000080fa00000006000000fa0000eca800b8
:102a100000000000016080000000280000806000cd
:102a20000000e000fbff32000aeba8000080fa0083
:102a3000000006000000fa000080fa000000060016
:102a40000200fa00000f78001e0078000080880065
:102a50000080fa00000006000000fa0051408000eb
:102a600000402000008060000000e000060032000e
:102a7000008080000000e000020032000080800042
:102a8000000001000b48a9000080fa0000000600c9
:102a90000200fa00000f78000080fa000000060033
:102aa0000200fa00000f78001e00780010808800f5
:102ab0000080fa00000006000200fa008059800041
:102ac000610060000000e0000800320061608000ea
:102ad000010f7800108080000000e0000300320049
:102ae000118080001e007800010001000080fa00c3
:102af000000006000200fa00000f78000080fa00d3
:102b0000000006000200fa00000f78001e007800a6
:102b1000208088000080fa00000006000200fa0011
:102b2000000f78000080fa00000006000200fa00a2
:102b3000000f78001e007800308088000080fa00c6
:102b4000000006000200fa00000f78000080fa0082
:102b5000000006000200fa00000f78001e00780056
:102b6000408088000080fa00000006000200fa00a1
:102b7000000f78000080fa00000006000200fa0052
:102b8000000f78001e007800508088000080fa0056
:102b9000000006000200fa00000f78000080fa0032
:102ba000000006000200fa00000f78001e00780006
:102bb000608088000080fa00000006000400fa002f
:102bc00020479800314798002e4090000080fb007d
:102bd0004400dd00804078003e4090000080fb0013
:102be0004200dd000040780000c07000004f780017
:102bf0001e407800310407001e4078000034a00019
:102c00002e04070010002000e80307001e40780093
:102c10002a04070080022000e40307000080fa0075
:102c2000000006000600fa0040479800514798004f
:102c30004e4090000080fb004400de00004f780012
:102c40004e4090006f406000104798001e80fb00cf
:102c50004400dd00804078005e4090000080fb0072
:102c60004200dd000040780000c07000204798005e
:102c70001e4090000080fb004400dd008040780092
:102c80005e4090000080fb004200dd0000407800c4
:102c900000c07000304798002e40900007040700e5
:102ca00010002000c10307002e4090000034a00057
:102cb0000204070010002000bc0307003e40900003
:102cc000fe03070010002000b80307003e409000fc
:102cd0000034a000f903070010002000b303070030
:102ce0000080fa00000006000000fa008040eb00bf
:102cf00020c0b300cbff070020002000ab0307007b
:102d00000080fa00000006000000fa008040eb009e
:102d100010c0b300c3ff070020002000a30307007a
:102d20000080fa00000006000200fa00004f780060
:102d3000114798009e407800800220008088b900ea
:102d4000804078001e40900000c040000074a00049
:102d50008040eb00b3ff07000080fa00000006008f
:102d60000200fa00004f780011c0b3001e40780046
:102d7000acff07000080fa00000006000600fa0021
:102d800010079800414798008040eb004e409000ab
:102d9000e5ff07000040eb00004f78000040eb002b
:102da000004f78000c0037001e80fb009e00900052
:102db00000804000104078000004e0000500320070
:102dc0001e80fb009e0090000080400010407800b4
:102dd000e3ff07001e4fe8001e407800ef4f500051
:102de000f1ff3600c0ff07000080fa000000060077
:102df0000200fa00004f78001e407800e40307004c
:102e00000080fa00000006000000fa005a6ea800d8
:102e10003eeea8005a8ea800a20307000040eb0077
:102e2000a603070080022000600307008040eb003b
:102e300030c0b30061ff0700a00020005b03070063
:102e40008040eb0030c0b3005cff0700a000200012
:102e5000560307008040eb0030c0b30057ff070067
:102e6000a0002000510307008040eb0020c0b30009
:102e700052ff07008040eb00c0c2b30069ff0700ab
:102e80008040eb00c0c0b30066ff07008040eb004d
:102e900060c0b30063ff07008040eb00c0c0b30018
:102ea00060ff070020002000400307008eff07009e
:102eb00095ff07000080fa00000006000000fa00fd
:102ec000ade2a9000080fa00000006000200fa004e
:102ed000000f78006115800000002800008060006d
:102ee0000000e0001f003a001e007800e600b90074
:102ef00080007800c0432900008040001000780066
:102f0000601588001e007800e600b9008080e800a7
:102f1000c04329000080400010007800e0158800c0
:102f20001e007800e600b900e4004000c04329001c
:102f30000080400010407800614060000080fb008d
:102f4000610060004a00dd00f170800001a0a10076
:102f500001007000f0708800ade2a80010c0b3005e
:102f6000010037000040eb000080fa00000006007e
:102f70000200fa00004f78001e80fb00c015880098
:102f800000000000a0158000610060000000e0006b
:102f9000fcff3200c0158000004078000080fa007d
:102fa000000006000600fa001007980021079800ac
:102fb0009e009000010f7800060037001e00780088
:102fc00010407800eaff07009e00780080487800f3
:102fd0001e0fe8002e00900000f0a7000000ea009d
:102fe0000000ea004f00de0000407800ae009000d4
:102ff0008100e900210798000004e000efff3a009b
:103000000080fa00000006000600fa001007980091
:10301000210798009e009000010f780004003700ff
:103020001e007800104078001e0fe800d0ff070057
:103030002e00900000f0a7000000ea000000ea0067
:103040004f00de0000407800ae0090008100e900f3
:10305000210798000004e000f1ff3a000080fa0028
:10306000000006000600fa001007980021079800eb
:103070009e009000010f7800050037000040eb0033
:10308000bbff07009e007800804878001e0fe80014
:103090002e00900000f0a7000000ea000000ea0007
:1030a0004f00de0000407800ae0090008100e90093
:1030b000210798000004e000f0ff3a000080fa00c9
:1030c000000006000200fa00004f78001e80fb009e
:1030d000c01588000080fa00000006000000fa0019
:1030e000c0158000004078000080fa000000060053
:1030f0000000fa00014080000020200000806000f5
:103100000000e00006003200b08080000000e00017
:1031100002003200b0808000000001000128a900f8
:103120000080fa00000006000200fa00000f78009c
:103130009e007800b18088000080fa000000060040
:103140000000fa00500c2000804a88005229ef004d
:103150005429ef005629ef005a29ef005c29ef00af
:103160006029ef006229ef0000272000204b880033
:103170006629ef006829ef0080132000604b88006b
:103180007029ef007229ef0051e9a800804a800001
:1031900030800a00000000000080fb00d080880022
:1031a00000c8a90020c8a8000080fa00000006009e
:1031b0000000fa000080fa00000006000000fa009b
:1031c0000140800000082000008060000000e00056
:1031d00002003200f6ff070000e8a9000080fa00b4
:1031e000000006000000fa0051e9a8000080fa0083
:1031f000000006000000fa0051e9a9000080fa0072
:10320000000006000200fa00000f78009e0078001f
:10321000414b88000080fa00000006000400fa001c
:10322000000f7800110798009e007800414b88003d
:103230009e009000614b88000080fa0000000600ac
:103240000400fa00000f7800110798009e00780033
:10325000414b88009e009000614b88000080fa007e
:10326000000006000400fa00000f78001107980023
:103270009e007800414b88009e009000614b8800c2
:103280000080fa00000006000400fa00000f780039
:10329000110798009e007800414b88009e00900026
:1032a000614b88000080fa00000006000200fa006e
:1032b000000f78009e007800414b88000080fa00e3
:1032c000000006000000fa000040800066800a004e
:1032d000000000000080fb0000f0a7000000ea00f2
:1032e0000000ea004f00de00004078000080fa0095
:1032f000000006000000fa00e04a800077800a0023
:10330000000000000080fb0000f0a7000000ea00c1
:103310000000ea004f00de00004078000080fa0064
:10332000000006000000fa005cc9a8000080fa0056
:10333000000006000000fa005ca9a8000080fa0066
:10334000000006000000fa00e04a800033800a0016
:10335000000000000080fb0000f0a7000000ea0071
:103360000000ea004f00de00004078000080fa0014
:10337000000006000000fa005c69a9000080fa0065
:10338000000006000000fa00007c80000080fa00c7
:10339000000006000200fa00faff0700000f7800a4
:1033a0001e007800240007000004e0000200320044
:1033b00000002800710007001e0078002a000700a6
:1033c0000004e00002003200000024006b0007004f
:1033d0001e007800320007000004e0000200320006
:1033e00000202000650007001e0078003a0007005a
:1033f0000004e00002003200000820005f00070027
:103400001e007800420007000004e00002003200c5
:1034100000042000590007001e0078004a00070041
:103420000004e00002003200000120005300070009
:103430000080fa00000006000400fa00100798005f
:103440000040eb00004f78001e0090000000e000fc
:1034500002003d0010c0b300004f78001e4078000d
:103460000080fa00000006000400fa00100798002f
:103470000040eb00004f78009e0090000000240008
:10348000008060000000e0000200320010c0b300c5
:10349000004f78001e4078000080fa00000006000f
:1034a0000400fa00100798000040eb00004f78007d
:1034b0009e00900000202000008060000000e000de
:1034c0000200320010c0b300004f78001e407800a8
:1034d0000080fa00000006000400fa0010079800bf
:1034e0000040eb00004f78009e0090000008200094
:1034f000008060000000e0000200320010c0b30055
:10350000004f78001e4078000080fa00000006009e
:103510000400fa00100798000040eb00004f78000c
:103520009e00900000042000008060000000e00089
:103530000200320010c0b300004f78001e40780037
:103540000080fa00000006000400fa00100798004e
:103550000040eb00004f78001e00900070006000fb
:103560000000e0000200320010c0b300004f7800fd
:103570001e4078000080fa00000006000200fa00f9
:10358000000f78009e80ea00007c800000806000d0
:10359000007c88000080fa00000006000000fa00ad
:1035a000802fef000080fa00000006000000fa0003
:1035b0000421ef0030422f0040088800202228001c
:1035c00000088800a08080000000e00002003a00af
:1035d00080bd2100210007000028a9002028a800a4
:1035e000a00921008040eb00014878000080fa002b
:1035f000000006000200fa00000f78009e0078002c
:1036000041088800a00921008040eb0001487800b3
:103610000080fa00000006000000fa004008800068
:103620000080fa00000006000200fa00000f780097
:103630009e00780021088800a00921008040eb004e
:10364000014878000080fa00000006000000fa003f
:10365000200880000080fa00000006000200fa0046
:10366000000f78002028a9009e007800a180880023
:103670002028a8000080fa00000006000000fa00e0
:10368000a00921008040eb00014878002028a80014
:1036900001e1a8000080fa00000006000000fa0026
:1036a00001e1a9002028a9000080fa00000006001e
:1036b0000200fa00a0092100104f78001e40780097
:1036c0000004e00003003200a00921008040eb006c
:1036d000014878001e4078000080fa0000000600d3
:1036e0000000fa00b0092100104078000080fb00c3
:1036f0000080fa00000006000000fa00b009210076
:103700008040eb00014878000080fa0000000600cd
:103710000400fa00100798001e009000e20f50000d
:1037200014003200e20f500005003e000000e000ef
:103730000a003200e10f50000b0032001900370080
:10374000e40f500011003200e40f50000c0039006b
:10375000e50f500010003200120037006160800059
:10376000010f78000f00370061618000010f7800c1
:103770000c00370071618000010f780009003700ec
:1037800081618000010f78000600370091618000a0
:10379000010f780003003700a1618000010f78005d
:1037a000000000001e0078000080fa000000060003
:1037b0000000fa000080fa00000006000000fa0095
:1037c0000000eb00d2ff0700c0808800c0808000ae
:1037d000801f780080422900801f7800c0042100eb
:1037e0003ff50700e48757000080fa00000006005c
:1037f0000000fa0047010700b20020000143290041
:10380000c003210043f5070000c2b30078fd0700a4
:103810003dfd0700c003210070808800c004210026
:1038200080808800708080008040eb0053fd07009e
:103830008080800011c0b30050fd0700f9ff370001
:103840000000fa00062eef00222eef003e2eef00c1
:103850005a2eef00762eef00f00120001070880045
:10386000d0bf2f00f070880070f72f00d071880053
:1038700070fe2f00b07288000080eb00907388000b
:103880000c2eef00282eef00442eef00602eef00ec
:1038900000082000e07388000a2eef00262eef00bb
:1038a000422eef005e2eef007a2eef00082eef0082
:1038b000242eef00402eef005c2eef00782eef005c
:1038c000f00120000070880040182000e07088009f
:1038d00070042000c071880000c02700a07288001a
:1038e00000042000807388000000eb0051052000d8
:1038f000b1468800a10a2000b1468800006888000f
:10390000516c800000fc2f00008060006000b3005c
:10391000506c8800916c8000f00f2c00808060005b
:103920000050200001007000906c880090c2b3002d
:103930001aedb70060c4b3002cedb7000080200082
:1039400051052000b1468800a10a2000b146880038
:10395000006888000080fa00000006000000fa00fd
:1039600010002300307c880060092000407c880023
:103970008c2fef0010042000507c880010102000d5
:10398000707c880060092000807c88001004200082
:10399000907c88009a2fef00b82fef00ba2fef002d
:1039a000be2fef00002def00a42fef00a62fef0099
:1039b000a82fef00aa2fef00ae2fef00b02fef00df
:1039c000b22fef002200200080072000a109200074
:1039d00053f82000804978008149780082497800b6
:1039e0000001eb00600420007105200043f8200076
:1039f0008049780081497800824978000080fa0087
:103a0000000006000000fa00707c8000ee800a00d2
:103a1000000000000080fb0000f0a7000000ea00aa
:103a20000000ea004f00de00004078000080fa004d
:043a3000000006008c
:020000040000fa
:103a34005c10000020000000800000001210000054
:103a44000200000082000000ffff00009a10000046
:103a540002000000800000001410000002000000ba
:103a6400800000001610000002000000800000002a
:103a7400001000000e000000800000001c10000078
:103a840040000000800000000e1000000400000050
:103a9400820000001c102c00100000001810000010
:103aa40002000000800000001a1000000200000064
:103ab400800000007c1000001e0000008200000056
:103ac400286e69006c29000025006800076c090055
:103ad4004c836a009074a0007ac00000806888005b
:103ae40000846c00820081009c1000000200000031
:083af40080000000000000004a
:020000040000fa
:103afc000000fa0011428000f08f2f00008060005f
:103b0c000080a000104288003143800080ff2f000d
:103b1c00008060006000b3003043880001428000e8
:103b2c00f0f82f008080600000052000010070007c
:103b3c0000428800b1438000f08f2f0000806000ad
:103b4c000080a000b0438800b1438000f0f82f0043
:103b5c00008060000040a000b0438800b1438000aa
:103b6c0080ff2f00008060000000a000b0438800a0
:103b7c00a1438000f0ff28000080600000c0a0007e
:103b8c00a0438800b1438000f0ff28000080600053
:103b9c0000c0a000b04388000080fa0000000600be
:103bac000200fa00000f78000300370000fa200032
:103bbc0001002000920007001e00780000f0a70012
:103bcc000000ea000000ea004f00de000040780030
:103bdc001e0fe9000004e000f4ff3a000080fa0038
:103bec00000006000200fa00000f78000500370004
:103bfc0000082000010020008100070001fe2f00ba
:103c0c001e8f40001e007800ff0f5000f8ff3e0092
:103c1c00030037004000200001002000780007005e
:103c2c001e00780000f0a7000000ea000000ea0087
:103c3c004f00de00004078001e0fe9000004e00099
:103c4c00f4ff3a000080fa00000006000600fa00bb
:103c5c0040479800514798000000eb005e000700b9
:103c6c005a6ea90000c4b300004f7800ce409000fb
:103c7c0011479800de409000214798003100200049
:103c8c000e007800ddfc07005a6ea80088fc0700c7
:103c9c000080fa00000006000000fa008040eb00f3
:103cac0010c0b300e9ff07000080fa000000060016
:103cbc000200fa00004f78009e40780050c1b3001b
:103ccc00e2ff07000080fa00000006000200fa0084
:103cdc00000f780021028000200f2000008060007f
:103cec001e007000200288000080fa000000060010
:103cfc000000fa00c3e8a80000000000000000006b
:103d0c000080fa00000006000000fa00c9fe07005f
:103d1c0077ff07000eff070006fd0700d9fa070022
:103d2c0036fc07001efe0700f1ff07000002200012
:103d3c00e6ff07000080fa00000006002000fa00f1
:103d4c0000c2b30027fc0700213f29000f00090027
:103d5c00315f78000e01b1008040eb000e0078005e
:103d6c0003fc070070014700314029000f000900d7
:103d7c00315978007000470011c0b300fcfb0700fc
:103d8c00f1ff37000400fa00204798000000eb0018
:103d9c00110007003eeea9000040eb00004f780038
:103dac00ae40900011479800210020000e007800d2
:103dbc0092fc07003eeea8003dfc07000080fa00d4
:103dcc00000006000000fa000000eb003cfc0700bd
:103ddc000080fa00000006000200fa00000f7800d4
:103dec001e0078000000e00002003a00f5ff07001a
:103dfc00010037000040eb000080fa0000000600d4
:020000040000fa
:103e0c00f03fb1000180b10006003500ee0309005f
:103e1c0000000000403fb1000180b100fbff3d00fd
:103e2c001000b000203fb0000200350000800900f7
:083e3c00000000000000060078
:020000040000fa
:103e44000200fa00000f78009e007800918088003c
:103e5400ffff37000000fa00c0052100800778004a
:103e640040072100000188000080fa0000000600dd
:020000040000fa
:043e7400ffffff004d
:020000040000fa
:02000004000af0
:04fe0000ffffff0001
:020000040000fa
:02000004000af0
:04fe2000ffffff00e1
:020000040000fa
:02000004000af0
:04fe30007affff0056
:020000040000fa
:02000004000af0
:04fe3800b9ffff000f
:020000040000fa
:02000004000af0
:04fe40006003ff005c
:020000040000fa
:02000004000af0
:04fe4800ffffff00b9
:020000040000fa
:02000004000af0
:04fe5000deffff00d2
:020000040000fa
:02000004000af0
:04fe58000000ff00a7
:020000040000fa
:02000004000af0
:04fe60000000ff009f
:020000040000fa
:02000004000af0
:04fe68000000ff0097
:020000040000fa
:02000004000af0
:04fe70000000ff008f
:020000040000fa
:02000004000af0
:04fe7800ffffff0089
:020000040000fa
:02000004000af0
:04fe8000fffcff0084
:020000040000fa
:02000004000af0
:04fe8800ffffff0079
:020000040000fa
:02000004000af0
:04feb000ffffff0051
:020000040000fa
:02000004000af0
:04fec000ffffff0041
:020000040000fa
:02000004000af0
:04fed000ffffff0031
:020000040000fa
:02000004000af0
:04fee000ffffff0021
:020000040000fa
:02000004000af0
:04fef000ffffff0011
:020000040000fa
:02000004000af0
:04fff800ffffff0008
:020000040000fa
:020000040100f9
:04300000ffffff00cf
:00000001FF
